:10000000008020200D5A0000174900001749000009
:1000100000000000000000000000000000000000E0
:100020000000000000000000000000001749000070
:1000300000000000000000001749000011590000F6
:10004000174900001749000017490000AD4F000094
:100050001749000017490000174900001749000020
:1000600000000000174900001749000000000000D0
:1000700000000000C95000001749000017490000A7
:1000800017490000174900001749000017490000F0
:1000900017490000174900000000000000000000A0
:1000A0001749000017490000000000000000000090
:1000B0001749000000000000174900001749000020
:1000C000F0B593B0014C80200A9001E00805202093
:1000D000119001200D9040021290201810900320E2
:1000E000C0010E9021180F912046E0300C90204660
:1000F000C0300B902546A03527468037264660360F
:100100002246403220462030002121702172217485
:1001100021762023E154017201740176402021549C
:10012000117211741176602021543172317431765C
:100130000A982154397239743976A02021542972D1
:1001400029742976C02021540B980172017401761C
:10015000E02021540C980172017401760D98000280
:1001600021542126F000215411200001215423257F
:10017000E80021540920400121542523D8002154AE
:100180001320000121542722D00021540520800192
:1001900021542920C00021541520000121542B2076
:1001A000C00021540B20400121542D20C0002154B7
:1001B0001720000121542F20C00021540E982154F3
:1001C0000F980172017401760D20400121543520F1
:1001D000C00021541B20000121543720C0002154AD
:1001E0000720800121543920C00021541D20000126
:1001F00021543B20C00021540F20400121543D20B8
:10020000C00021541F20000121543F20C000215470
:1002100011984038109C00D05AE70695089309922F
:10022000014C80200A9601E0080520201190FF274C
:10023000384682300D9022180E922046E1300C9004
:100240002046C1300F902046A1300B9026468136C3
:10025000224661322346413320462130617061726B
:10026000617461760A9D61550172017401764120C5
:10027000109021541972197419766123E154117286
:10028000117411768122A154317231743176A12614
:10029000A1550B98017201740176C12561550F9823
:1002A000017201740176E1200F9021540C980172C3
:1002B0000174017638460230215438460A30215400
:1002C00038461230215438461A30215438462230EC
:1002D000215438462A302154384632302154384689
:1002E0003A30215438464230215438464A3021545D
:1002F00038465230215438465A30215438466230FC
:10030000215438466A3021543846723021543846D8
:100310007A3021540D9821540E980172017401769F
:100320003846A23021543846AA3021543846B230DB
:1003300021543846BA3021543846C2302154384608
:10034000CA3021543846D23021543846DA3021544C
:100350003846E23021543846EA3021543846F230EB
:1003600021543846FA3021541298241811984038F4
:1003700000D05BE7079311970495024D802003920C
:10038000059601E0080520200E90049840000C908E
:100390002A180D922846E2300B902846C2300A9067
:1003A0002A46A2322E4682362C4662342B464233EF
:1003B00028462230A970A972A974A9762227E95586
:1003C0000172017401764220295419721974197648
:1003D000622029542172217421768220295431729D
:1003E00031743176059EA220295411721174117650
:1003F000C22029540A98017201740176E22029541E
:100400000B980172017401760398400029548522EB
:10041000500029548920400029548D20400029543F
:1004200091204000295495204000295499204000F3
:1004300029549D204000295470002954A5235800B8
:100440002954A92040002954AD2040002954B1204E
:1004500040002954B52040002954B92040002954B7
:10046000BD20400029540C9829540D980172017444
:100470000176D12040002954D52040002954D920AC
:1004800040002954DD20400029540F984000295491
:10049000E52460002954E92040002954ED20400063
:1004A0002954F12040002954F52040002954F92016
:1004B00040002954FD204000295412982D180E9810
:1004C000403800D060E700940193029201488022F6
:1004D000119B01E0080520200E9284330C93C21872
:1004E0000D920246E3320B920246C3320A9205464F
:1004F000A335064683360446633403464333024637
:100500002332C170C172C174C176069FC155117288
:100510001174117643220F9281541972197419764D
:1005200063228154217221742176119B8324015509
:10053000317231743176A326815529722974297656
:10054000C32541550A9A117211741176E327C155DA
:100550000B9A1172117411761A46043281541A469C
:100560000C3281541A46143281541A461C3281547A
:100570001A46243281541A462C3281541A46343297
:1005800081541A463C3281541A46443281541A46E8
:100590004C3281541A46543281541A465C3281548A
:1005A0001A46643281541A466C3281541A467432A7
:1005B00081541A467C3281540C9A81540D9A1172DE
:1005C000117411761A46A43281541A46AC32815401
:1005D0001A46B43281541A46BC3281541A46C43287
:1005E00081541A46CC3281541A46D43281541A4668
:1005F000DC3281541A46E43281541A46EC3281547A
:100600001A46F43281541A46FC328154129A8018E8
:100610000E9A403A00D05FE703970495059606943A
:10062000014E802002E0C046080520200E90079869
:1006300080000C9032180D923046E4300B9030461A
:10064000C4300A903746A437344684343246643284
:10065000334644333046243031713173317531774C
:1006600024257155017201740176442031541972A8
:100670001974197664203154117211741176842022
:100680003154217221742176A42031543972397485
:100690003976C42031540A98017201740176E4203D
:1006A00031540B9801720174017610988000315416
:1006B0000F98800031544523980031544722900010
:1006C00031544920800031544B20800031544D205A
:1006D000800031544F20800031545120800031542B
:1006E0005320800031545520800031545720800021
:1006F00031545920800031545B20800031545D20FA
:10070000800031545F20800031540C9831540D9892
:100710000172017401766920800031546B208000E1
:1007200031546D20800031546F208000315471208D
:100730008000315473208000315475208000315482
:100740007720800031547920800031547B20800054
:1007500031547D20800031547F2080003154129824
:1007600036180E98403800D060E70792F54A80208E
:100770000B93119B089F109086330E93D0180F9007
:100780001046E5300D901046C5300C901646A53643
:1007900015468535144665341346453310462530D5
:1007A0005171517351755177D155017201740176B0
:1007B0000B9811541972197419766520115421720D
:1007C00021742176119B029811542972297429767B
:1007D00001981154317231743176C52011540C983E
:1007E000017201740176009811540D980172017420
:1007F000017618460630115418460E30115418462A
:100800001630115418461E30115418462630115413
:1008100018462E30115418463630115418463E30C2
:10082000115418464630115418464E30115418468B
:100830005630115418465E30115418466630115423
:1008400018466E30115418467630115418467E30D2
:1008500011540E9811540F980172017401761846C4
:10086000A63011541846AE3011541846B630115403
:100870001846BE3011541846C63011541846CE30B2
:1008800011541846D63011541846DE30115418460B
:10089000E63011541846EE3011541846F630115413
:1008A0001846FE301154129812181098403800D093
:1008B00061E7A44D80201090049840000E902A1803
:1008C0000F922846E6300D902846C6300C902E46F2
:1008D000A6362F4686372C4666342B4646332846A6
:1008E0002630A971A973A975A9772622A954017286
:1008F00001740176462029541972197419766620FC
:100900002954217221742176119A86202954397232
:1009100039743976A6202954317231743176C62063
:1009200029540C98017201740176E62029540D981F
:1009300001720174017606984000295487235800FB
:1009400029548B20400029548F20400029549320A3
:10095000400029549720400029549B2040002954EE
:100960009F2040002954059840002954A724600086
:100970002954AB2040002954AF2040002954B32013
:1009800040002954B72040002954BB20400029547E
:10099000BF20400029540E9829540F980172017409
:1009A0000176D32040002954D72040002954DB2071
:1009B00040002954DF204000295403984000295466
:1009C000E72670002954EB2040002954EF20400016
:1009D0002954F32040002954F72040002954FB20DB
:1009E000400029545000295412982D18109840386E
:1009F00000D060E7534D8020089302940196109038
:100A0000104688300E902B180F9310320C92A818B5
:100A10000D902846E7300B902846C7300A902F46A5
:100A2000A7372C4687342B4667332A464732284659
:100A30002730E971E973E975E977099EA9550172D3
:100A40000174017607982954117211741176672088
:100A50002954197219741976089BE954217221746A
:100A60002176029C119A2955397239743976C7203A
:100A700029540A98017201740176019EA9550B98B8
:100A80000172017401761046083029540C982954DB
:100A90000D980172104620302954104628302954F0
:100AA0001046303029541046383029541046403012
:100AB00029541046483029541046503029541046C5
:100AC0005830295410466030295410466830295453
:100AD0001046703029541046783029541046803022
:100AE00029540E9829540F9801720174017610460A
:100AF000A83029541046B03029541046B830295433
:100B00001046C03029541046C83029541046D03001
:100B100029541046D83029541046E0302954104644
:100B2000E83029541046F03029541046F830295442
:100B30000548295412982D181098403800D05EE7C7
:100B400013B0F0BD08052020FF010000F0B5FFB094
:100B50008EB0049306920646929802900025E843D0
:100B600005908C913468204604F0F9FE21188B958D
:100B700003918C4200D3BBE00020879087A90873C3
:100B80008890059889902F46049D2078002800D1F0
:100B9000AFE0252805D0641C34600699A8477F1C67
:100BA000F3E78B97601C306087AC2046314600F03D
:100BB000A7F88CAA2046314600F0BFF830680178CB
:100BC0007A2925D0682919D06A2908D06C290ED035
:100BD000742908D04C2922D1879980221BE087995B
:100BE0000122D20217E087990122520313E04278D2
:100BF00087996C2A64D10122120205E04278879914
:100C0000682A60D10122520211438791801C05E0BD
:100C10008799012212030A438792401C0178441CE1
:100C2000346087A8017373291FD06E2929D1879852
:100C300032490840202850D040283CD001214A03A6
:100C4000904238D04A02904242D0CA02904205D027
:100C50000A0390422FD0090288422CD1F8178C99B0
:100C600004C98C91176050603BE087A8007840066B
:100C700019D4009587A88CAA8BAB069900F01DF9B2
:100C80002FE007AD87A98CAA284600F06DF902462F
:100C900028460699029B9847411C059D00D0C5191E
:100CA0008B9503991FE0009587A88CAA8BAB0699BA
:100CB00000F09FF815E08C9802C88C900F6010E04F
:100CC000401C402201E0401C202211438791A5E7EF
:100CD0008C9802C88C900F7003E08C9802C88C909E
:100CE0000F8003998B9D681C00D042E7059F00E0B0
:100CF0002F4638467FB00EB0F0BDC046603F0000C2
:100D000010B50A681378302B0FD0232B07D02B2B6C
:100D100009D02D2B05D0202B0ED1042306E008236B
:100D200004E0012302E0022300E0102304681C43D6
:100D30000460521C0A60E5E710BDFEB516460D467C
:100D40000446086802782A2A10D13068011D3160F3
:100D500000686060002805D540426060206801217D
:100D6000014321602868471C2F6017E00021303ABA
:100D7000092A08D84218531C2B60435C6F467B54E9
:100D80005278491CF3E76A460023535412784718F7
:100D9000002A03D0684604F08FFB606038782E2864
:100DA00026D1781C286079782A2908D13068011D5D
:100DB00031600068A0602868401C2860FEBD0020EB
:100DC0003039092908D839188A1C2A604A786B46B4
:100DD0001A548978401CF3E76A46002111541078B0
:100DE000002804D0684604F067FBA060FEBDA16047
:100DF000FEBDF0B587B01E460C9F13681C1D146025
:100E00001D68002D3BD0049106908468002C04D40A
:100E1000284604F08DFD844203D3284604F088FD63
:100E2000044606984068A042039000DC2046014634
:100E30003068019140180296306005940398A042F2
:100E40000EDD06980078C0070AD1059801990E1AA0
:100E50000024B44204DA20200499B847641CF8E75F
:100E60000026049C069805998E420BDA2868010A30
:100E700019D12D1DC0B22146B847761CF2E70020DB
:100E8000B84718E00599039A8A4214DD0078C00734
:100E900011D00198451A0024AC420CDA20200499A4
:100EA000B847641CF8E70020C0430299086004F0CA
:100EB00089FD5821016007B0F0BDF0B585B00C4642
:100EC00006460A9D1068011D116000680490002804
:100ED00044D00393B768002F04D4049804F03FFD76
:100EE000874203D3049804F03AFD074602967268DD
:100EF000BA42114600DC3946039B1868009140183D
:100F000018600192BA420FDD02980078C0070BD139
:100F10000098C01B039000260398864204DA202024
:100F20002146A847761CF7E70026BE4205DA04985A
:100F3000805D2146A847761CF7E70198B84210DD8E
:100F400002980078C0070CD00098C61B0027B74253
:100F500007DA20202146A8477F1CF8E70020214619
:100F6000A84705B0F0BDC046F0B589B001920F4664
:100F70000446FF210846FA302518786802900026BA
:100F800007960391FE3120222046009204F0E0FCF7
:100F90007F20800006942118089104952E713D460B
:100FA000387B0246613A172A2AD8012393402C46FF
:100FB000B44D2B42254608D007A908AA2846019B14
:100FC00000F066F900260596B3E071252B42254610
:100FD00022D1022A14D1019B1868021D1A600068F0
:100FE000C2B2534253410593039AFC32069B9A18AE
:100FF000089208702868022188432860002698E03B
:1010000001464539032907D3252860D0412803D05C
:1010100058280596D0D08DE0019A1068C11D072090
:10102000814308460830106005C9D1432F7B490031
:10103000490D0BD17B3F944911400143049C2CD0B6
:101040001920C1438F4234D36E2033E0002A01D4EB
:10105000114602E00121C9075140D60F0022059236
:101060003A46413A062A0BD9613F062F61D8C0465D
:101070007F443F797F00BF440B5C5C5C3B363100B2
:101080007A4412795200974403545454332E290061
:1010900008AB2A4602F00EF94BE0002311461A462F
:1010A000059303F0F9FE1921C9438F4225D3662227
:1010B00024E04E20E0708F4201D3612100E0412105
:1010C000A1700894607000200590022631E0002095
:1010D00006994870252008700120A1E008AB2A4637
:1010E00002F0EEFA25E008AB2A4604F045F820E0CD
:1010F00008AB2A4602F09EFF1BE04622E2708F42B8
:1011000001D36E2200E04E22A2708F4201D36921EA
:1011100000E0492161703F21C900069A51180891E9
:10112000002803D02D202070042602E02B20207000
:101130000326287B012701466F39092904D801229B
:101140008A4052490A4201D158286BD1049B029C23
:1011500004972946069F3D1908980C460978C90747
:1011600007D1191D091A62689142069F01DC691AAC
:101170004F1C411C0398430000263846324604F0B9
:101180004DFB08900599002903D0411C0891067079
:1011900000E00146A94206D8481E691A491C2022CF
:1011A00004F0D6FB2E702078C00605D40698391AB4
:1011B000202204F0CDFB2EE0069887422BD0069823
:1011C000391A3026324604F0C3FB079841424141A8
:1011D00004980140012905D12078400702D43846FF
:1011E000069905E03878069A511C1070781C3E70FC
:1011F000227B412A0CD0582A05D0612A08D0782AAF
:1012000001D0702A07D123781B0701D4612A02D1AB
:1012100042784A704670069804F0A1FB0599401880
:1012200009B0F0BD002E09D0012E049B029C8FD185
:101230000120079029680220084007E0079A2968E2
:1012400002200840002A09D0049B029C08994A1EEB
:1012500008922D220A704742474179E70028049BF3
:10126000029C08D1480700D472E70898411E0891F3
:10127000009901706CE70898411E08912B210170BC
:10128000002765E708C19000FFFF0F004302000040
:10129000F8B514460F4605468068002804D428682F
:1012A00010218843286001E00120A860287B1026D7
:1012B000582808D0782806D0702804D06F2801D18B
:1012C000082600E00A262846194600F055F8AA68C4
:1012D000002A09D102460A4306D12878000749D5D9
:1012E0002B7B0020024612E02B7B642B03D164236E
:1012F00000290BD504E0692B08D1002906D5692304
:1013000001223A60002240428A4100E00A460094ED
:101310001146324600F0B0F8A968884206DA401C4F
:1013200021684A1E226030220A70F5E7287B58287F
:1013300003D0782801D070280FD1297809070CD55F
:10134000702800D1782021684A1E22600870206829
:10135000411E216030210170287B6F280AD1287836
:10136000000707D520684178302903D0411E21604D
:1013700030210170F8BDC04610B5037B702B05D13C
:101380000868021D0A60006800226FE00068384AA1
:10139000024001204403A24222D0402A20D004026D
:1013A000A24230D04402A24246D0C402A2422AD075
:1013B0000403A24214D0202A12D100221C46643C0D
:1013C000142C06D8A0402B4C204204D121242042CA
:1013D0003ED1582B49D10868031D0B60008845E0B9
:1013E00000221C46643C142C06D8A040214C20420C
:1013F00004D1212420422BD1582B36D10868031D5B
:101400000B60006832E01A46643A142A06D890400D
:10141000184A104206D12122104203D10020582B35
:10142000024623D10868C21D0720824310460830B7
:1014300008601068526819E000221C46643C142CB5
:101440000CD8A0400B4C20420AD12124204205D0C8
:101450000868021D0A600068C21707E0582B04D113
:101460000868031D0B60007800E01046114610BDAF
:10147000603F000000081200FEB501920D460646CE
:10148000582B01D0174800E01548009008980290AA
:101490003046284305D1029A1068411E1160302160
:1014A0000170019C3046284313D03046294622461D
:1014B00000F01AF807460D46224604F09DF9301A4E
:1014C0000099085C029B19684A1E1A6008703E4623
:1014D000E8E70298006804F042FA401EFEBDC046EC
:1014E000447300005573000080B5102A06D0082A06
:1014F00009D1C0084A078018C90880BD00090A0739
:101500008018090980BD002904D1114603F0B4FFF9
:10151000002180BD002304F0CBF980BDF0B587B079
:10152000E54CE64D642004F0FBF903A8002102918C
:101530000170AE2141702046296889065FD4296870
:1015400089065CD42968890659D42968890656D445
:101550002968890653D42968890650D429688906E0
:101560004DD4296889064AD42968890647D4296850
:10157000890644D42968890641D4296889063ED45D
:10158000296889063BD42968890638D429688906E0
:1015900035D42968890632D4296889062FD4296868
:1015A00089062CD42968890629D42968890626D475
:1015B0002968890623D42968890620D429688906E0
:1015C0001DD4296889061AD42968890617D4296880
:1015D000890614D42968890611D4296889060ED48D
:1015E000296889060BD42968890608D429688906E0
:1015F00005D42968890602D420309DD178E0B04F07
:10160000B04CB148B14E03A9022203F0FFFC2946B9
:1016100008390868384078300F460860291F086884
:1016200020400C468019A44E08603046296889067F
:1016300062D4296889065FD4296889065CD4296840
:10164000890659D42968890656D42968890653D44D
:101650002968890650D4296889064DD429688906E5
:101660004AD42968890647D42968890644D4296858
:10167000890641D4296889063ED4296889063BD465
:101680002968890638D42968890635D429688906E5
:1016900032D4296889062FD4296889062CD4296870
:1016A000890629D42968890626D42968890623D47D
:1016B0002968890620D4296889061DD429688906E5
:1016C0001AD42968890617D42968890614D4296888
:1016D000890611D4296889060ED4296889060BD495
:1016E0002968890608D42968890605D420309DD147
:1016F000281F02990160A8E204A8029901704170B4
:101700003046296889065FD4296889065CD429682F
:10171000890659D42968890656D42968890653D47C
:101720002968890650D4296889064DD42968890614
:101730004AD42968890647D42968890644D4296887
:10174000890641D4296889063ED4296889063BD494
:101750002968890638D42968890635D42968890614
:1017600032D4296889062FD4296889062CD429689F
:10177000890629D42968890626D42968890623D4AC
:101780002968890620D4296889061DD42968890614
:101790001AD42968890617D42968890614D42968B7
:1017A000890611D4296889060ED4296889060BD4C4
:1017B0002968890608D42968890605D42968890614
:1017C00002D420309DD13EE204A902223E4803F01B
:1017D0001DFC394638683A4A10407822019210437D
:1017E000386020683749084038490843206030464F
:1017F000296889066CD42968890669D4296889060C
:1018000066D42968890663D42968890660D4296862
:1018100089065DD4296889065AD42968890657D46F
:101820002968890654D42968890651D4296889060B
:101830004ED4296889064BD42968890648D429687A
:10184000890645D42968890642D4296889063FD487
:10185000296889063CD42968890639D4296889060B
:1018600036D42968890633D42968890630D4296892
:1018700089062DD4296889062AD42968890627D49F
:101880002968890624D42968890621D4296889060B
:101890001ED4296889061BD42968890618D42968AA
:1018A000890615D42968890612D4296889060FD4B7
:1018B00020309DD1C7E1C046C0F2FCFF18320F4076
:1018C00000F8FFFFF8FF00F000200F4007000200C3
:1018D00005A80299017010214170304629688906D7
:1018E0005FD4296889065CD42968890659D4296897
:1018F000890656D42968890653D42968890650D4A4
:10190000296889064DD4296889064AD42968890638
:1019100047D42968890644D42968890641D42968AE
:1019200089063ED4296889063BD42968890638D4BB
:101930002968890635D42968890632D42968890638
:101940002FD4296889062CD42968890629D42968C6
:10195000890626D42968890623D42968890620D4D3
:10196000296889061DD4296889061AD42968890638
:1019700017D42968890614D42968890611D42968DE
:1019800089060ED4296889060BD42968890608D4EB
:101990002968890605D42968890602D420309DD19A
:1019A00051E105A90222FC4803F030FB39463868B2
:1019B000F74A1040019A104338602068F549084002
:1019C000F649084320603046296889065FD42968B3
:1019D00089065CD42968890659D42968890656D4B1
:1019E0002968890653D42968890650D4296889064C
:1019F0004DD4296889064AD42968890647D42968BC
:101A0000890644D42968890641D4296889063ED4C8
:101A1000296889063BD42968890638D4296889064B
:101A200035D42968890632D4296889062FD42968D3
:101A300089062CD42968890629D42968890626D4E0
:101A40002968890623D42968890620D4296889064B
:101A50001DD4296889061AD42968890617D42968EB
:101A6000890614D42968890611D4296889060ED4F8
:101A7000296889060BD42968890608D4296889064B
:101A800005D42968890602D420309DD1DBE006A860
:101A900002990170402141703046296889065FD45F
:101AA000296889065CD42968890659D42968890679
:101AB00056D42968890653D42968890650D42968E0
:101AC00089064DD4296889064AD42968890647D4ED
:101AD0002968890644D42968890641D42968890679
:101AE0003ED4296889063BD42968890638D42968F8
:101AF000890635D42968890632D4296889062FD405
:101B0000296889062CD42968890629D42968890678
:101B100026D42968890623D42968890620D429680F
:101B200089061DD4296889061AD42968890617D41C
:101B30002968890614D42968890611D42968890678
:101B40000ED4296889060BD42968890608D4296827
:101B5000890605D42968890602D420309DD172E017
:101B600006A902228C4803F051FA386888490840D7
:101B7000019908433860206886490840874908432E
:101B800020602868800663D42868800660D42868AE
:101B900080065DD4286880065AD42868800657D409
:101BA0002868800654D42868800651D428688006A6
:101BB0004ED4286880064BD42868800648D428680C
:101BC000800645D42868800642D4286880063FD421
:101BD000286880063CD42868800639D428688006A6
:101BE00036D42868800633D42868800630D4286824
:101BF00080062DD4286880062AD42868800627D439
:101C00002868800624D42868800621D428688006A5
:101C10001ED4286880061BD42868800618D428683B
:101C2000800615D42868800612D4286880060FD450
:101C3000286880060CD42868800609D428688006A5
:101C400006D420369DD102982060012007B0F0BD57
:101C50008120002101F03EFC01460120002901D035
:101C600007B0F0BD0446CF20002101F033FC00286E
:101C70007DD1A120002101F02DFC002877D1C820C2
:101C8000002101F027FC002871D1A620002101F0DD
:101C900021FC00286BD1A820002101F01BFC0028AA
:101CA00065D13F20002101F015FC00285FD1D32031
:101CB000002101F00FFC002859D10020014601F05D
:101CC00009FC002853D1D520002101F003FC002895
:101CD0004DD18020002101F0FDFB002847D1D92003
:101CE000002101F0F7FB002841D1F120002101F093
:101CF000F1FB00283BD1DA20002101F0EBFB0028AA
:101D000035D11220002101F0E5FB00282FD1DB2086
:101D1000002101F0DFFB002829D14020002101F043
:101D2000D9FB002823D12020002101F0D3FB00287B
:101D30001DD10220002101F0CDFB002817D18D20FC
:101D4000002101F0C7FB002811D11420002101F06F
:101D5000C1FB00280BD1A420002101F0BBFB00280F
:101D600005D1A620002101F0B5FB002802D02046B5
:101D700007B0F0BDAF20002101F0ACFB00282046E9
:101D800000D06DE7FEF79CF900F00AF807B0F0BD4F
:101D900000F8FFFFF8FF00F000200F4007000200EE
:101DA000F0B587B0E34BE44F002529460095B020FD
:101DB0000191084303A90D704870184639688906D7
:101DC0005FD4396889065CD43968890659D4396882
:101DD000890656D43968890653D43968890650D49F
:101DE000396889064DD4396889064AD43968890624
:101DF00047D43968890644D43968890641D439689A
:101E000089063ED4396889063BD43968890638D4B6
:101E10003968890635D43968890632D43968890623
:101E20002FD4396889062CD43968890629D43968B1
:101E3000890626D43968890623D43968890620D4CE
:101E4000396889061DD4396889061AD43968890623
:101E500017D43968890614D43968890611D43968C9
:101E600089060ED4396889060BD43968890608D4E6
:101E70003968890605D43968890602D420309DD195
:101E800057E303A90222AD4803F0C0F8A94A3C4633
:101E9000083C2068AA490840782102910843206044
:101EA0003E1F3068A7490840A749084330601046E4
:101EB000396889065FD4396889065CD4396889062F
:101EC00059D43968890656D43968890653D4396893
:101ED000890650D4396889064DD4396889064AD4B0
:101EE0003968890647D43968890644D4396889062F
:101EF00041D4396889063ED4396889063BD43968AB
:101F0000890638D43968890635D43968890632D4C7
:101F1000396889062FD4396889062CD4396889062E
:101F200029D43968890626D43968890623D43968C2
:101F3000890620D4396889061DD4396889061AD4DF
:101F40003968890617D43968890614D4396889062E
:101F500011D4396889060ED4396889060BD43968DA
:101F6000890608D43968890605D43968890602D4F7
:101F700020309DD1DDE204A8002505704570104693
:101F8000396889065FD4396889065CD4396889065E
:101F900059D43968890656D43968890653D43968C2
:101FA000890650D4396889064DD4396889064AD4DF
:101FB0003968890647D43968890644D4396889065E
:101FC00041D4396889063ED4396889063BD43968DA
:101FD000890638D43968890635D43968890632D4F7
:101FE000396889062FD4396889062CD4396889065E
:101FF00029D43968890626D43968890623D43968F2
:10200000890620D4396889061DD4396889061AD40E
:102010003968890617D43968890614D4396889065D
:1020200011D4396889060ED4396889060BD4396809
:10203000890608D43968890605D43968890602D426
:1020400020309DD170E204A902223C4802F0DEFF5C
:10205000384A20683A4908400299084320603068AD
:1020600038490840384908433060104639688906C5
:102070006CD43968890669D43968890666D43968A8
:10208000890663D43968890660D4396889065DD4C5
:10209000396889065AD43968890657D43968890657
:1020A00054D43968890651D4396889064ED43968C0
:1020B00089064BD43968890648D43968890645D4DD
:1020C0003968890642D4396889063FD43968890657
:1020D0003CD43968890639D43968890636D43968D8
:1020E000890633D43968890630D4396889062DD4F5
:1020F000396889062AD43968890627D43968890657
:1021000024D43968890621D4396889061ED43968EF
:1021100089061BD43968890618D43968890615D40C
:102120003968890612D4396889060FD420309DD1C8
:10213000FAE1C046C0F2FCFF18320F4000200F4009
:1021400000F8FFFFF8FF00F00700020005A8057087
:10215000102141701046396889065FD439688906B4
:102160005CD43968890659D43968890656D43968E7
:10217000890653D43968890650D4396889064DD404
:10218000396889064AD43968890647D43968890686
:1021900044D43968890641D4396889063ED43968FF
:1021A00089063BD43968890638D43968890635D41C
:1021B0003968890632D4396889062FD43968890686
:1021C0002CD43968890629D43968890626D4396817
:1021D000890623D43968890620D4396889061DD434
:1021E000396889061AD43968890617D43968890686
:1021F00014D43968890611D4396889060ED439682F
:1022000089060BD43968890608D43968890605D44B
:102210003968890602D420309DD185E105A90222C2
:10222000C94802F0F3FEC64B2068C4490840029931
:10223000084320603068C3490840C44908433060FF
:1022400018463968890663D43968890660D43968C4
:1022500089065DD4396889065AD43968890657D405
:102260003968890654D43968890651D43968890691
:102270004ED4396889064BD43968890648D4396800
:10228000890645D43968890642D4396889063FD41D
:10229000396889063CD43968890639D43968890691
:1022A00036D43968890633D43968890630D4396818
:1022B00089062DD4396889062AD43968890627D435
:1022C0003968890624D43968890621D43968890691
:1022D0001ED4396889061BD43968890618D4396830
:1022E000890615D43968890612D4396889060FD44D
:1022F000396889060CD43968890609D43968890691
:1023000006D420309DD10FE16D1C802D00D102E15B
:10231000E8008F4908180199405C06A940220A701C
:1023200048701846396889065FD4396889065CD4D4
:102330003968890659D43968890656D439688906B6
:1023400053D43968890650D4396889064DD4396820
:1023500089064AD43968890647D43968890644D43D
:102360003968890641D4396889063ED439688906B6
:102370003BD43968890638D43968890635D4396838
:10238000890632D4396889062FD4396889062CD455
:102390003968890629D43968890626D439688906B6
:1023A00023D43968890620D4396889061DD4396850
:1023B00089061AD43968890617D43968890614D46D
:1023C0003968890611D4396889060ED439688906B6
:1023D0000BD43968890608D43968890605D4396868
:1023E000890602D420309DD19EE006A902225648DB
:1023F00002F00CFE524B20685049084002990843F5
:10240000206030684F490840504908433060184602
:102410003968890600D577E73968890600D573E7FA
:102420003968890600D56FE73968890600D56BE7FA
:102430003968890600D567E73968890600D563E7FA
:102440003968890600D55FE73968890600D55BE7FA
:102450003968890600D557E73968890600D553E7FA
:102460003968890600D54FE73968890600D54BE7FA
:102470003968890600D547E73968890600D543E7FA
:102480003968890600D53FE73968890600D53BE7FA
:102490003968890600D537E73968890600D533E7FA
:1024A0003968890600D52FE73968890600D52BE7FA
:1024B0003968890600D527E73968890600D523E7FA
:1024C0003968890600D51FE73968890600D51BE7FA
:1024D0003968890600D517E73968890600D513E7FA
:1024E0003968890600D50FE73968890600D50BE7FA
:1024F0003968890600D507E73968890600D503E7FA
:102500003968890600D5FFE63968890600D5FBE6FB
:10251000203009D07CE70199491C0829009D00D092
:1025200045E4002007B0F0BD00203060012007B076
:10253000F0BD381F00210160F8E7C04600F8FFFF3A
:10254000C0F2FCFFF8FF00F000200F40070002007F
:1025500008052020F0B58BB00393164605460446C7
:1025600034340078002811D068780A78904209D174
:10257000A8784A78904205D1E8788A78904201D1CB
:102580002879CA78904201D000202080681C052755
:102590003A4603F01BFAAE606078810069180E625B
:1025A000401CB2494143090C7943401A60702078BD
:1025B000042804D8411C2170042801D04CE10746AE
:1025C00029462031FCB2A20006A803F0FFF9A61E9E
:1025D0000321304602F050FF481C0328009000D130
:1025E00000200590022E0295019412D20127009836
:1025F000032800D0B7E0019948088000C90700D03F
:1026000027E106A90A18121F126808588018460800
:1026100021E10598C043001904900026012708E035
:102620001546A80006A90C50FF1CF61C049886420B
:10263000DDD0B80006A90C5838463946850006AAF0
:10264000AA18121F1368A342024623D906A84351B1
:10265000481EC2B20025002A1BD0900006ABC3184A
:102660001B1F1B68A34215D906AA1350881EC2B2AD
:10267000002A0ED0900006ABC3181B1F1B68A34294
:1026800008D906AA1350C91EC8B200282A46D5D1B7
:1026900000E02A46900006AA1450791C88001458BD
:1026A00008468A0006ABD3181B1F1B68A3420D46C1
:1026B00023D906A98B50411ECDB20022002D1BD07C
:1026C000A90006ABCB181B1F1B68A34215D906AD8A
:1026D0006B50811ECDB2002D0ED0A90006ABCB18D9
:1026E0001B1F1B68A34208D906AD6B50C01EC1B2A8
:1026F00000291546D5D100E01546A80006A90C50C2
:10270000B81C82008C580146820006ABD3181B1FF0
:102710001B68A342054684D906A88350481EC5B24B
:102720000022002D00D17BE7A80006ABC3181B1FB9
:102730001B68A34200D874E706AD2B50881EC5B2B3
:10274000002D00D16CE7A80006ABC3181B1F1B6847
:10275000A34200D865E706AD2B50C91EC8B20028B9
:102760001546D1D15DE7002209E02546A80006A95B
:102770000B50BF1C921C0598824200D13BE7B80069
:1027800006A90B5838463946840006AD65192D1F39
:102790002E689E42054623D906A80651481EC5B29A
:1027A0000024002D1BD0A80006AE8619361F3668FF
:1027B0009E4215D906AD2E50881EC5B2002D0ED0F2
:1027C000A80006AE8619361F36689E4208D906ADA7
:1027D0002E50C91EC8B200282546D5D100E0254696
:1027E000A80006A90B50012010430599884200D18A
:1027F00001E77E1CB00006A90B583146B00006ACBC
:102800000419241F24689C423546AFD906AD2C50CC
:10281000481EC5B20024002DA7D0A80006AE861918
:10282000361F36689E42A1D906AD2E50881EC5B20D
:10283000002D9AD0A80006AE8619361F36689E4233
:1028400094D906AD2E50C91ECEB2002E2546D5D144
:102850008CE706A90E58029DEE600398286168690E
:10286000401C6861012028700BB0F0BD34330000BB
:10287000F0B58FB045182E46D036D022AF5CD222AC
:10288000AB5CD235002B00D050E1002F00D14DE1E0
:102890000B930C90032F00D246E130220B464A43A3
:1028A0000C98841870348A0082182046D423D45897
:1028B0000278722A09D14278652A06D182783A2AAA
:1028C00003D1C01C0A90F81E01E00A903846089017
:1028D000C0B209900A2800D226E10A980278502A4C
:1028E00000D021E10A9842782C2A6AD1022207926C
:1028F000825C0692303AD2B20A2A09D30698C2B252
:102900001346613B062B03D3413A052A00D90BE15C
:102910000A98079A13185A780592303AD2B20A2ABE
:1029200009D30598C0B20246613A062A03D341385A
:10293000052800D9F8E09A780492303AD2B20A2AEF
:1029400009D30498C0B20246613A062A03D341383B
:10295000052800D9E8E0DA780392303AD2B20A2AA0
:1029600009D30398C0B20246613A062A03D341381C
:10297000052800D9D8E01A792C2A00D0D4E05B7958
:10298000303B092B00D9CFE0019438224A430C9800
:10299000801802900798801D0A9A125C1446303CF9
:1029A000092C1ED8694CA34200D3BDE00A245C4325
:1029B000A318303B401CC2B2099C9442ECD1089A47
:1029C00010E009980A2800D1AEE0303A092A00D96F
:1029D000AAE00A9882782C2A00D0A5E003220A985F
:1029E00085E702460092921CD4B2099A0794944259
:1029F00000D999E00A9A125C632A00D094E00A9AFE
:102A0000821852786D2A00D08EE00998079A824287
:102A10005FD20A98079A825C2C2A00D084E0009842
:102A2000C01CC2B2099CA24205D20A9CA25C2D2AFB
:102A300001D10098001DC0B2099A904274D20A9A3E
:102A4000125C303A092A6FD8421C0092D2B2099C1B
:102A500094422DD0001D0A9A12180792D21E1278A5
:102A6000303A092A21D8821E0092D2B2099C94429F
:102A70001ED0079A921E1278303A092A12D8421EA6
:102A80000092D2B2099C944212D0079A521E127838
:102A9000303A092A06D8C2B2C01C099C9442DAD145
:102AA000C01E04E00098089002E0C01E089000904C
:102AB0000898821CD2B20998824235D10A98009AAD
:102AC000825C642A30D10A98009A12185278422AFD
:102AD0002AD1069A10466138C0B2062800D2203AA0
:102AE000059F019C0DA90A7038466138C0B20628BE
:102AF00000D2203F049A4F7010466138C0B20628B9
:102B000000D2203A039F8A7038466138C0B2062846
:102B100000D2203F1A46CF70002008710298234649
:102B2000FFF718FD01220AE00C980B9B00221F43BF
:102B300005D038234B43C018C169491CC16100202E
:102B40003070287010460FB0F0BDC04699999919A1
:102B5000F0B585B0A34EA44C012257061305A44D31
:102B600020681F21090688432060049292040020F7
:102B70000393194602F074FE99489C49016042246F
:102B80003068384200D083E0284602F003FF306806
:102B900038427DD1284602F0FDFE3068384277D1B8
:102BA000284602F0F7FE3068384271D1284602F01C
:102BB000F1FE306838426BD1284602F0EBFE3068F7
:102BC000384265D1284602F0E5FE306838425FD1D0
:102BD000284602F0DFFE3068384259D1284602F01C
:102BE000D9FE3068384253D1284602F0D3FE30680F
:102BF00038424DD1284602F0CDFE3068384247D1E8
:102C0000284602F0C7FE3068384241D1284602F01B
:102C1000C1FE306838423BD1284602F0BBFE306826
:102C2000384235D1284602F0B5FE306838422FD1FF
:102C3000284602F0AFFE3068384229D1284602F01B
:102C4000A9FE3068384223D1284602F0A3FE30683E
:102C500038421DD1284602F09DFE3068384217D117
:102C6000284602F097FE3068384211D1284602F01B
:102C700091FE306838420BD1284602F08BFE306856
:102C8000384205D1284602F085FE163C00D077E791
:102C9000554880690290049802040020019003992D
:102CA00002F0DEFD4E48514901604224306838424E
:102CB00000D083E0284602F06DFE306838427DD1B6
:102CC000284602F067FE3068384277D1284602F085
:102CD00061FE3068384271D1284602F05BFE3068F0
:102CE00038426BD1284602F055FE3068384265D133
:102CF000284602F04FFE306838425FD1284602F085
:102D000049FE3068384259D1284602F043FE306807
:102D1000384253D1284602F03DFE306838424DD14A
:102D2000284602F037FE3068384247D1284602F084
:102D300031FE3068384241D1284602F02BFE30681F
:102D400038423BD1284602F025FE3068384235D162
:102D5000284602F01FFE306838422FD1284602F084
:102D600019FE3068384229D1284602F013FE306837
:102D7000384223D1284602F00DFE306838421DD17A
:102D8000284602F007FE3068384217D1284602F084
:102D900001FE3068384211D1284602F0FBFD306850
:102DA00038420BD1284602F0F5FD3068384205D193
:102DB000284602F0EFFD163C00D077E70A4881690B
:102DC000173502984543284602F056FB094940183A
:102DD0000F2801D301980490049805B0F0BDC046B7
:102DE0002C030B4004020B4038010B400100000E85
:102DF000D103000043F6FFFFF0B590B008911478BE
:102E000021462039C9B25E2900D919E1DD085907E8
:102E100000D06D1C590801914D43E9B20091802109
:102E2000C91A04910E93029509E0029D511C547831
:102E30002246203AD2B25F2A0A4600D300E103922A
:102E40000590290600D1EAE0182B00D9E7E001211E
:102E50000D9199407B48014200D1E0E0203CE2B274
:102E60000899C8B20C90242006925043764A15184F
:102E70000020009A059C0F91102B0B9206D00C2B72
:102E80000AD10C21069A5143714A02E006990901C0
:102E90006E4A5118091800E029460023CE560A94BC
:102EA000E4B20F9FF9B2CB08072109910F400D99A9
:102EB000B940E400674A1719FC5C002E01D48C432A
:102EC00000E00C43FC540F994C1CE1B20C9A8B1A95
:102ED0000E9A934200D194E0F2B2CB0809990C40CB
:102EE0000D99A140FC5C0792560601D50C4300E009
:102EF0008C43FC540F99891CCBB20C9A9C1A0E9AE5
:102F000094427ED0DB08099A11400D9E8E40FC5CF5
:102F10000799890601D5344300E0B443FC540F9966
:102F2000C91CCBB20C9A9C1A0E9A944269D0DB0849
:102F3000099A11400D9E8E40FC5C0799C90601D587
:102F4000344300E0B443FC540F99091DCBB20C9AF2
:102F50009C1A0E9A944254D0DB08099A11400D9E97
:102F60008E40FC5C0799090701D5344300E0B44367
:102F7000FC540F99491DCBB20C9A9C1A0E9A94429C
:102F80003FD0DB08099A11400D9E8E40FC5C0799EA
:102F9000490701D5344300E0B443FC540F99891D1F
:102FA000CBB20C9A9C1A0E9A94422AD0DB08099A4A
:102FB00011400D9E8E40FC5C0799890701D5344372
:102FC00000E0B443FC540F99C91DCBB20C9A9C1A73
:102FD0000E9A944215D0DB08099A11400D9E8E403E
:102FE000FC5C0799C90701D0344300E0B443FC54AA
:102FF0000F9908310F91C9B20C9A891A0E9A914211
:103000000AD10A9C641C08990F910B9A401C6D1CF4
:10301000521E0E9B03D02FE70B9A0A9CF6E70598E9
:1030200001994018C2B20499914202DA0899C9186C
:10303000089104999142039A00DBF6E60020F4E639
:1030400010B0F0BD00100101205A00007C670000A4
:103050006C6D000008052020F0B585B0002A36D040
:103060000D46044601270026166056609660D6601D
:10307000166104925661314602F000FC029020462F
:10308000394602F0FBFB01902046039631462A4662
:1030900002F0E6FA06462046009739462A4602F034
:1030A000DFFA022132464A4003464B40134311D017
:1030B000731E5A425A41441E634263410328084624
:1030C00001D01A431046032E0ED001460CE000201A
:1030D00005B0F0BD029B1969019D2A69501A00D8FC
:1030E000881AC82805D90321049A0398117005B0DD
:1030F000F0BD587869788842049A0DD19878A978FB
:10310000884209D1D878E978884205D11879297997
:10311000884201D15879697988422FD1D968002035
:10312000039002F087F902F02BFB0446E9680120C6
:1031300002F080F902F024FB014601F0C9FC0546CB
:103140002046214601F0C4FC0446294601F0CEFA8F
:103150004E4901F0D0FA4E4901F000FD0646014605
:1031600001F0B6FC0146204601F0C0FA0446494988
:1031700001F0C4FE002803D00521B5E70421B4E71F
:1031800000252046294601F0B9FE0028284600D136
:10319000204601F0C1FB074601903F4C30462146D6
:1031A00001F096FC214601F0D9FC3C4901F0A3FA5C
:1031B00004463846294601F08BFC374901F0CEFC25
:1031C0000146204601F092FA07460395049DA86047
:1031D0003046039901F07CFC2F490E4601F0BEFCFD
:1031E0002F4901F088FA04460198314601F070FC3D
:1031F000314601F0B3FC0146204601F07CFAE8605C
:10320000039D014601F064FC04463846394601F04E
:103210005FFC214601F06FFA01F07EFB214901F0CD
:103220006AFA0446294601F069FE0028284600D1C2
:10323000204602994E1C1C4901F05DFA1B4901F021
:103240008DFC02F029FA049908618868C96800F0C9
:1032500081FF174901F03CFC0446294601F062FE5B
:10326000002801D03F2000E0BF200106204601F0E9
:1032700042FA02F0D9F9049C6061601C05223146D3
:1032800002F0A4FB2246062100982FE70024744791
:103290000000FA43000080BF00007A430000FAC239
:1032A00000002042000096C30000A0400000204122
:1032B000E12E6542F0B5A5B0049308920E4607468C
:1032C00000240A947E4D22462B4601F0F9FD002889
:1032D00013D100247B4D3846314622462B4601F05F
:1032E000E5FD002809D1002238463146134601F099
:1032F000C9FD00283C46354607D10AAA2046294682
:1033000001F0B4FE0A98401E0A900899087B0BAEA3
:10331000412801D06D4800E06B4809908868019011
:103320003020039030700022079220462946134631
:1033300001F0B2FD01210028029101D0C8074540EB
:10334000771C20462946079A134601F09BFD00286A
:103350000DD124AA2046294601F088FE2498012197
:103360000A1A2046294601F055F904460D46204622
:10337000294601F0CFFF06463946059701F0D0FEF9
:103380000690304602F0D2F902F009FB04460D46E1
:103390000198471C20D3059806994618002220461C
:1033A0002946134601F06EFD002848D10022204630
:1033B0002946474B00F0E0FF04460D4601F0AAFF06
:1033C0000999095C771C317002F0B0F902F0E7FA54
:1033D00004460D463E46E1E70BA806994618002F25
:1033E00016D07F1E002220462946394B00F0C4FF2C
:1033F00004460D4601F08EFF0999095C3246761CA1
:10340000517002F093F902F0CAFA04460D46E6E75D
:103410003178099C204602F055FA001B08280EDB83
:103420000196741E089D079F099E2178304602F080
:1034300049FA801B0E2805DD2770641EF5E7089DFC
:10344000079F04E00999081840782070019E3770A2
:103450000A98297B4129049C01D0702100E0502169
:10346000069E059F224601F0DEFEAA68501C04D18C
:10347000384602F074FA421EAA60384631462346A6
:1034800002F023F9A8680028029A02D128680007F0
:10349000C20F38463146234601F08EFC287B412876
:1034A00001D0782000E0582021684A1E2260087070
:1034B0002068411E21600399017025B0F0BDC0460F
:1034C0000000F07F0000F0FF44730000557300001F
:1034D00000003040B0B582B04A1E9141724D734C2D
:1034E000890101AA117050702846216889065FD4AD
:1034F000216889065CD42168890659D42168890627
:1035000056D42168890653D42168890650D421688D
:1035100089064DD4216889064AD42168890647D492
:103520002168890644D42168890641D42168890626
:103530003ED4216889063BD42168890638D42168A5
:10354000890635D42168890632D4216889062FD4AA
:10355000216889062CD42168890629D42168890626
:1035600026D42168890623D42168890620D42168BD
:1035700089061DD4216889061AD42168890617D4C2
:103580002168890614D42168890611D42168890626
:103590000ED4216889060BD42168890608D42168D5
:1035A000890605D42168890602D420309DD175E0B2
:1035B0003F4801A9022201F029FD20460838016890
:1035C0003C4A0A4078320260201F01683A4A0A40A9
:1035D0003A495118016021680020890662D42168A7
:1035E00089065FD4216889065CD42168890659D48C
:1035F0002168890656D42168890653D42168890632
:1036000050D4216889064DD4216889064AD421689E
:10361000890647D42168890644D42168890641D4A3
:10362000216889063ED4216889063BD42168890631
:1036300038D42168890635D42168890632D42168B6
:1036400089062FD4216889062CD42168890629D4BB
:103650002168890626D42168890623D42168890631
:1036600020D4216889061DD4216889061AD42168CE
:10367000890617D42168890614D42168890611D4D3
:10368000216889060ED4216889060BD42168890631
:1036900008D42168890605D420359CD1201F00213B
:1036A0000160012002B0B0BDC0F2FCFF18320F4033
:1036B00000200F4000F8FFFFF8FF00F007000200B5
:1036C000F0B5A3B003930F46044604929168002915
:1036D00003D0002904D5062100E00121049881606F
:1036E00007910AA83021089101700025204639462B
:1036F0002A462B4601F0D0FB01210028059101D07C
:10370000C8074740624E20463946604A334601F0BA
:10371000E1FB002809D00022204639465E4B00F02C
:10372000A5FD04460F466D1CEDE75A4E00222046CB
:1037300039460992134601F0A5FB002811D1002259
:1037400020463946334601F0A7FB002809D0002265
:1037500020463946504B00F00FFE04460F466D1EC2
:10376000E4E702950AA8451C2046394601F0D2FD3F
:103770000695294601F0D4FC07998842019004DDA2
:10378000481C0AA90A18085C1FE0C9430E180AA9B8
:103790000D18681C07902046394601F0BBFD01F06A
:1037A000C5FF02460B462046394600F03DFA00228E
:1037B000394B00F0E1FD04460F4601F0ABFD079ADE
:1037C00030306870761C1546E3D3C0B23528039EAE
:1037D000049F029B099D0FD31446501E0178491C7B
:1037E000CAB201703A2A03D330210170401EF5E7B6
:1037F0000AA98842224640D00198C41815700220B8
:10380000C043844202DBB868844207DD601E397B16
:10381000891EC9B2324601F006FD0124069802F065
:103820009EF8401E0599A0421ADB0028089A01D490
:10383000069A125C1346303B5D1EAB41C9431943E7
:10384000C90705D13978090702D40025059905E093
:1038500031684B1E33600A7001250021401EE2E7EB
:103860003868082202402A43501E824106982146A9
:10387000334601F0A1FA23B0F0BD501E00210170C3
:103880000198C018441C0AA80690B8E70000C0FFC1
:10389000FFFFDF410000F03F00002440FEB5074677
:1038A00006460121C8073D468543EC0D992C07D3F8
:1038B0006948854217D33046314600F01CFF8DE041
:1038C0005748854213D85C49304600F014FF7F21E9
:1038D000C90501F031FB0021C9430028029148D0FD
:1038E000732C7CD345E0002F18DC5D4E77E04D480B
:1038F000854215D84F48854227D82846294600F0EA
:10390000FAFE4A4900F0F7FE04460120810702F062
:1039100072F802F05FF80646002029E04F4E5EE0A4
:10392000414885421ED8424902F065F80446FF200E
:103930008105284601F0CCF87F21C90500F0DBFEA7
:1039400002F048F80646022012E00291374902F0E0
:1039500052F804467F20C10502F04DF802F03AF813
:10396000064606E03148294601F0F8F806460320ED
:10397000029001973046314601F0AAF8044601460C
:1039800001F0A6F807462D4901F0A2F82C4900F0F5
:10399000B2FE0146384601F09BF82A4900F0ABFE22
:1039A0000146204601F094F804462749384601F0C4
:1039B0008FF8264900F09FFE0146384601F088F84E
:1039C00017498D420DD8214600F095FE014630463C
:1039D00001F07EF80146304600F088FE064630468B
:1039E000FEBD02998F001A49CD59214600F083FE91
:1039F00001461848C459304601F06AF8214600F0E3
:103A000075FE314600F072FE0146284600F06EFE5B
:103A1000064601980028E2D50120C0074640DEE7AF
:103A2000FFFFDF3EFFFF973FFFFF1B40000080BF0F
:103A30000000C0BFFFFF2F3FCAF2497125AC7C3D9B
:103A40000DF5113EA9AAAA3E4712DABD98CA4CBE8E
:103A50000C7300001C7300000100807FDB0FC93F66
:103A6000DB0FC9BF98B001F077FE644801F07EFF1C
:103A700063480024046063486349416063490A68FD
:103A8000FF231B069A4303239B07D2180A60846016
:103A9000072101600120039040035D49086008226E
:103AA0000A605C4908600A60FDF738FD002804944C
:103AB00005942AD152480168504807AC224600F0CC
:103AC0003BFDFCF7FDFA0027102538463946224613
:103AD0002B46FFF791F922461132384629462B46EC
:103AE000FFF78AF922462232202138462B46FFF77B
:103AF00083F933343021384622462B46FFF77CF9D0
:103B0000FEF74EF941424141059107A801461131A6
:103B10000191014622310091333002903E4D3F4EDB
:103B200004E00599084001283C4E3DD03448006827
:103B30000690A85D0521CF01E95D884234462F4EED
:103B400011D0285D2A5C810069188023CB58401C65
:103B50007F21014029550021304600F02EF9285DD3
:103B6000E95D8842EDD12E4C285D2E4FE95D8842FB
:103B700012D0285DA121890069180A5C8300C91848
:103B80008023CB58401C7F2101402955012130461C
:103B900000F013F9285DE9E70498069C201A6328D1
:103BA0000398BED80020BCE707AA04921348214618
:103BB00000F0C2FCFCF784FA0020059010270146B3
:103BC000049A3B46FFF718F905983946019A3B4697
:103BD000FFF712F920210598009A3B46FFF70CF9F0
:103BE00030210598029A3B46FFF706F9FEF7D8F810
:103BF000414241410591049498E7C046880920203C
:103C0000940A202010E000E07F38010020ED00E061
:103C100080E200E000E100E00000202081020000DE
:103C20000505000004050000FCB40124E40763401E
:103C300002E0FCB40124E40708B41D03ED08D60D2E
:103C4000354356025F007F0D06D12C00344300D06F
:103C5000AEE001B0FCBC7047A40825430724240251
:103C6000FF34A74205D10020190D090501B0FCBCA5
:103C70007047002B03D50024A61BAC4125000B0385
:103C8000DB08C20D134342024800400D07D11C005F
:103C9000144300D08CE00EBC1000F0BC704701242F
:103CA0006407234307242402FF34A04205D10020E7
:103CB000090D090501B0FCBC7047002903D500249B
:103CC000A21A9C412300C11B08D51C002B00250013
:103CD0001400320026000024611A3800362925D548
:103CE00002B4393949420C00203C03D22F008F40E6
:103CF000374301E03700A740002F01D040210E4399
:103D000002BC20290BD500290ED04C42203420B40F
:103D1000A5402C0020BC0D41CE40361904E00029FE
:103D20002E000D4120390E4192196B411C001443A5
:103D30003ED00024002B04D5012400218A1A994189
:103D40000B00401E52005B41FBD50121890215008A
:103D50000D400CD0521800277B4101D3401C0BE0D2
:103D60000721C90115000D4001D189008A430721AF
:103D700009028A4352005B41801C19DD07210902B8
:103D8000FF31884209D30EBC0020C90F0902FF3160
:103D9000C900C91D0905F0BC7047190B0005014396
:103DA000E40721431805120B104301B0FCBC704717
:103DB0000021002001B0FCBC7047F0B583B0044680
:103DC0000020002C00D192E0012900D98FE0382595
:103DD0004D436519AE69761CAE618D006519D42618
:103DE000AB510D2A01D00A2A0ED16218D023D35C20
:103DF000002B03D1D223D25C002A78D02046FEF7D4
:103E000037FD012003B0F0BD66183546D235D22308
:103E1000F35C002B0ED0502A69D10020287030228C
:103E20004A43A118702250238B54D021012272548E
:103E300003B0F0BDD023F35CD036502A18D1002B4C
:103E400016D030224A43A21815467035032B17D1DD
:103E50002F78722F14D16F78652F11D1AF783A2F48
:103E60000ED1D21870235027D7540422327019E093
:103E70002F2B0ED3002030700121297003B0F0BD2C
:103E80002046FEF7F5FC502129700121317003B066
:103E9000F0BD30254D4365197035EA545A1C327017
:103EA000002B24D030234B43E318D2B29F183E4658
:103EB00070366E230193FB5C642B03D1731E1B7859
:103EC000422B11D0009102902846114601F014FBBC
:103ED00000280ED00198385C63280AD1701E007843
:103EE0006D280298009902D12046FEF7C1FC03B06C
:103EF000F0BD029803B0F0BDF0B587B01D46164680
:103F00003024059004700027104619463A463B4677
:103F100000F0C2FF0028019402D00120C0074540F4
:103F20000D9804900C9803903F4C304629463D4A2A
:103F3000234600F0CFFF002809D000223046294652
:103F40003B4B00F093F906460D467F1CEDE70598C4
:103F5000441C0022304629460692134600F092FF88
:103F6000002811D1002230462946304B00F094FF42
:103F7000002809D00022304629462D4B00F0FCF9DC
:103F800006460D467F1EE4E70398C01903903046AD
:103F9000294601F0BFF9214601F0C2F80294241825
:103FA000C019049908600398471C012F1ADB30469A
:103FB000294601F0AFF901F0B9FB02460B46304645
:103FC0002946FFF731FE0022194B00F0D5F90646CD
:103FD0000D4601F09FF93030611C20707F1E0C46A9
:103FE000E5D100E02146481E0278352A0DD3891E0E
:103FF000019C0A78521CD3B20A703A2B02D30C707F
:10400000491EF6E7059A914204D00699017002987C
:1040100007B0F0BD0699017004990868401C08605B
:104020000598F5E70000C0FFFFFFDF410000F03F0B
:1040300000002440F0B5A1B0049305469068002824
:1040400001D5062090600290039200243D4F28463F
:10405000224606913B4600F033FF0699002826468B
:1040600014D10026384F284632463B4600F01EFF4A
:10407000069900280AD1002228460592134600F02E
:1040800001FF069B00282E461F4622D12F4D01F02E
:1040900093FC00F001FF002809D000223046394689
:1040A0002B4B00F069F906460F46641EEFE7284DDA
:1040B00001F082FC00F004FF002807D001F07CFC36
:1040C00000F0D4F806460F46641CF1E735463B463F
:1040D000059407A802990091019008A82A46FFF7C5
:1040E0000BFF0446079D022D0DD1059D6D1C20463A
:1040F00001F035FC2018401E0021017028460125E2
:10410000049E039F02E0049E039F0598397B32467C
:1041100001F089F8BA6820462946334601F0D5FAFD
:10412000204601F01CFC854203D138680007C20F0D
:1041300000E0012220462946334600F03DFE21B032
:10414000F0BDC0460000F07F0000F0FF0000F03F2F
:104150000000244070B5FF22D5053B4A0B461340B2
:10416000AB4202D80240AA4202D900F0C4FA70BDA4
:104170007F24E405A14202D1FFF790FB70BDC60F7A
:10418000CC0F6400A419002A0BD0AB420ED0002B38
:1041900001D0AA4226D10121C9070840314940185F
:1041A00070BD022CE3D3032C18D119E0AA420AD126
:1041B0002848C0467C4424796400A7440102222494
:1041C000D5E7274870BD00207C4424796400A744CB
:1041D00001020507CBE70120C00770BD1C4870BD78
:1041E0001A4870BDD21AD2151A2A02DD1D4834466B
:1041F00012E0002909D51923DB439A4205DA002091
:104200000AE0164870BD144870BD00F0A7FC0121FB
:10421000C9078843FFF742FB002CA8D0022C05D029
:10422000012C0BD10121C907484070BD0E4900F097
:1042300062FA0146064800F059FA70BD0A4900F0DA
:104240005AFA024991E7C046FFFFFF7FDB0F49C0E2
:10425000DB0F4940DB0F493FE4CB16C0E4CB1640EF
:10426000DB0F49BFDB0FC93F2EBDBB33FCB40C00D5
:104270005C40E40FE40710B41D032D0B56006D41A4
:104280005F007F0D73D001246405254307242402B9
:10429000FF34A74261D00B031B0B42005B41480077
:1042A000400D64D001246405234307242402FF3415
:1042B000A04252D0C01B002100273624AB4200D1BF
:1042C000B24204D37F414941921BAB4101E07F419F
:1042D0004941641E06D0002B01D1002A02D05200B1
:1042E0005B41EBE7202C07D2162C0AD33900A740FC
:1042F0002026361BF1400BE0203C3900A14000276E
:1043000006E0A1402026361B3D00F5402943A7408A
:1043100001246405214202D17F004941401E00244E
:104320007F1C61410124A405214202D0401CA1430D
:1043300001E06408A14303242402FF34001916DDC0
:104340002419A04209D8CC07490800050143780880
:10435000204310BC2143FCBC704702BC0020C90FA5
:104360000902FF21C900C91D0905FCBC70470021D5
:10437000002001B0FCBC7047FCB50C005C40E40FB1
:10438000E40710B4DD02540D2543D6025F007F0D13
:1043900060D00124E407254307242402FF34A74208
:1043A00050D0CB02440D2343C2024800400D51D0EF
:1043B0000124E407234307242402FF34A04241D010
:1043C000C01901B41800290001F010F90F0001B460
:1043D0001800310001F00AF903000C001000310050
:1043E00001F004F906001000290001F0FFF80500B3
:1043F0007618002202BC01BC55415141A419554117
:1044000051418024A4005B195141FF18514100D54E
:1044100064003F19514102D47F00494100E0401C33
:1044200003242402FF34001B14DD2419A04209D800
:104430000305F80A4C0520434900090B194310BC39
:104440002143FCBD0020FF21C900C91D090510BC86
:104450002143FCBD0021002001B0FCBDF0B584B0BB
:104460003049314A0125AC0316682B0203939E4361
:1044700016600E68264205D10E68264202D10E68EB
:104480002642F6D06C02467E9769AF432E40BD1996
:1044900095612025455DD6690327BE433D407519CA
:1044A000D561224D2E680727374005262E60466AC3
:1044B00033681362736853622F60C3695B065B0CD9
:1044C000D5697F263602B543EB18D361E8C800975B
:1044D00007680197476802971B071B0B2D03ADB2B6
:1044E000ED1833071B0D007A009E35431D43019BD9
:1044F0001D43029B1D43054390690D4B03400D482E
:104500002840C01890611068039B18431060086829
:10451000204205D10868204202D108682042F6D026
:1045200004B0F0BD04020B4008010B4000134040F2
:104530008D00F0FF72FF0F00F0B58DB002920D46B6
:104540000646002105AF2A463B4600F049FB012103
:1045500003AC30462A46234600F042FB0094029CFE
:10456000224A112120463B4600F0AEFE07AA304603
:104570002946FEF771FD00281AD00B9B0C9D21489F
:10458000834200D30346204611301F4A112631468C
:1045900000F09AFE204622301C4A31462B4600F09D
:1045A00093FE333407A8431C194A2046314619E0CC
:1045B000204611300E490A2201F008FA2046223026
:1045C0000C490B2201F002FA33340798401EC0B2A6
:1045D000052803D8800009490B5800E0064B084A1B
:1045E0001121204600F070FE0DB0F0BDDA7300001E
:1045F000C07300008C730000F47300002C73000083
:10460000807300000F270000AC730000747300007B
:10461000B6730000F8B515462A4E0A0D771C3A40CD
:10462000294B9A4213D00C46002A18D10122D207F6
:104630009443044344D00022244BFFF79DFE0C46D4
:1046400023498D4208DC234A234B214636E00246AB
:104650000B46FFF7EEFAF8BD220D3A40363A5119F3
:10466000B1420ADD01F0AEF9222101600120C0074C
:1046700004401D4821180020F8BD012904DB174A19
:10468000144009052143F8BD3522D24391420CDC88
:1046900001F098F92221016012488542E6DA0120F2
:1046A000C007044000202146F8BD0C4A144009050B
:1046B0001B225205891821430022094BFFF75CFE9B
:1046C000F8BDC046FE070000FF0700000000504391
:1046D000AF3CFFFF59F3F8C21F6EA501FFFF0F802B
:1046E0000000903C51C300000000F07FFCB40127A3
:1046F000FF07794002E0FCB40127FF070C024D00E0
:104700002D0E03D1002C52D1FCBC70473C43FF2D31
:1047100050D0A408002900D56442020243001B0EB9
:1047200004D1002A43D10800FCBC70473A43FF2B58
:1047300041D09208002800D552425E1B04D51700D4
:1047400022003C0076422B00192E06D52700374167
:10475000D2191C27F71B7F42BC40002A27D002D564
:104760005242012700E00027013B5200FCD5150012
:10477000802635400FD01500202635402C4380324E
:1047800008D21500402635402C4304D101263602BC
:10479000B24300E05B1C5200023308DDFF2B0BD25A
:1047A000500ADB051843FF073843FCBC7047002064
:1047B000FCBC70470800C70FFF07FF20C005384347
:1047C000FCBC7047F0B581B0264E01277C0226481C
:1047D00000210160331F18680F2212029043001954
:1047E000009318603046083802680323DD43154003
:1047F00005603068B84330603068194A1040306056
:1048000018030A4600F00CFB1848FFF727FEFEF7D6
:104810009FF900280BD0009A106810210143202036
:1048200081431160002000F0E3FD01B0F0BD104DA8
:1048300003E0FEF78DF90028EDD130680849084003
:104840003060306839020143316028682042F0D17D
:1048500028682042EDD128682042F6D0E9E7C0461A
:10486000FFFEFFFF08010B4008030B40E47200004D
:1048700004020B40F0B58B4200D1824204D90B00F8
:1048800002000021002040E0002B00D1002A0CD1C2
:104890000B00020000210020002B00D1002A01D0D3
:1048A000C943C04300F0BBFA2FE01C0015000B0009
:1048B00002000CB4002126002F00FF19764102D21D
:1048C000491C4029F9D100201E001700FF1976412C
:1048D00002D2401C4028F9D10E1A210028003200D3
:1048E00000F0AEFF0C0005000CBC00200021A3422C
:1048F00000D1AA4201D3521BA341404149416D0856
:10490000E7073D436408761EF1D5059F002F01D0CF
:104910003A607B60F0BDFEE7F8B50446FF20C005B5
:1049200021460140814208D12046214600F0D0F8BE
:104930002146FFF7E0FE04463AE0002C31DD01237A
:10494000DA05E00D05D11846144202D16400401E7C
:10495000FAE77F38511E2140114302461A40914028
:10496000002500931C062A46002C0DD04E00671926
:10497000F31B314600DB1946B74200DC3D19B74254
:1049800000DC12196408EFE7002902D000991140F9
:10499000521851104008C00540183F21090644181C
:1049A00006E0600004D001F00DF821210160014C07
:1049B0002046F8BD0000C07F10B51C491C4C2046A5
:1049C00000F08AFF1B49204600F0CAFC1A48016823
:1049D0000322D203914301600169184A0A4015324B
:1049E000026141692D220A4312218A4342614268D1
:1049F00001210A4043688B439A184260104A1368A9
:104A00008C021C43146002684B0413430360C268A9
:104A100070231343C360C2680223134305229343E8
:104A2000C36002680A43026010BDC046FD73000007
:104A30000000104098730000001110400000FFFFBC
:104A40002810104010B51C491C4C204600F044FFB3
:104A50001B49204600F084FC1A4801680322D20357
:104A6000914301600169184A0A402B320261416991
:104A70001A220A4325218A434261426801210A40E1
:104A800043688B439A184260104A13688C021C4397
:104A9000146002684B0413430360C268702313431D
:104AA000C360C2680223134305229343C3600268B4
:104AB0000A43026010BDC046FF7300000000504072
:104AC000A2730000001150400000FFFF281050406A
:104AD000FCB40127FF0706004E4001D4002600E089
:104AE0003E00020243001B0E30D03A43FF2B30D071
:104AF0000C024D002D0E29D03C43FF2D29D05B190F
:104B00004240504042404C4061404C4000B500F0B3
:104B10006DFD20BCAE464240504042404C4061409A
:104B20004C4025001400002C01D46400013B80346B
:104B300001D3013364087E3B08DDFF2B09D2BC435F
:104B4000200ADB0518433043FCBC70470020FCBC46
:104B50007047FF20C0053043FCBC7047FCB4012700
:104B6000FF0706004E40F60FF607020243001B0E39
:104B70002DD03A43FF2B2DD00C024D002D0E26D008
:104B80003C43FF2D26D05B1B0020202164085208E7
:104B9000A2424041A24200D3121B013904D0002A94
:104BA00001D05200F4D18840384201D14000013B8D
:104BB000803001D3013300E040007F3307DDFF2B5D
:104BC00008D2400ADB0518433043FCBC7047002084
:104BD000FCBC7047FF20C0053043FCBC70477047E9
:104BE000F0B583B0029317460D46044600F046FE2A
:104BF0000646204629463A4600F032FD002E12D0E5
:104C0000022810D1F168284600F014FC401D0A214A
:104C100000F032FC1049884200D308463135EBB22F
:104C200000900E4A0CE03135EBB2401EC0B20228B3
:104C300003D880000649085800E004480090054A5F
:104C40000821029800F040FB03B0F0BDF4730000AF
:104C500068730000D37300000F270000CA730000C0
:104C6000F8B5451C00780023082B32D02F78C207F6
:104C70000CD16A780F241440E41C122C0BD10224AE
:104C80002E57F4B2002E08D4EE1C0EE06D1C4A1C08
:104C90000F7011461AE0AE1C08E02E1DED7800954D
:104CA0007F252C40009DED012C1912343D01120985
:104CB0005219094DAA420ED0D243002C05D08D5C6A
:104CC0004F1C0D70641E3946F7E7354640085B1CE3
:104CD000CAE72846C5E7F8BDFF0F0000FEB50293FE
:104CE0000F46194D0024E143184E009737400190BC
:104CF00043422B46BB4101D20C4623E008460299B1
:104D00000E405342B54101D204461BE013460199BF
:104D10000B433E431E43029D009E13D02B4633405F
:104D200004D401998B1A3346AB4103E00199531A1D
:104D30002B46B341044605DB51406E400E43701EC6
:104D4000864134462046FEBD0000F07FFFFFFF7F16
:104D5000F8B50446164F174D0E462E40012000941C
:104D600064423C46B4411AD31D405442AF4116D36D
:104D70001046009C20433543054311D00020C0431A
:104D80001C460C400ED4009CA41A0C469C4106DB29
:104D90000098504059400143481E81410846F8BDE3
:104DA0000020F8BD009C141B1C468C41F0DAF6E78D
:104DB0000000F07FFFFFFF7FF8B51C4617460E4648
:104DC000054600F0CCFD0021012E03DBB04201DBE3
:104DD000A919491E002F04D02268531E23602E23D8
:104DE00013703246824206DD23685F1E276030273B
:104DF0001F70521EF6E7B04200DB3046012808DB88
:104E0000A9420BD308782268531E23601070491EF4
:104E1000F6E72068411E216030210170F8BD70471F
:104E2000F0B5164B1D46083D2E680124A6432E60A2
:104E30001E6803273F03BE433840301818601868C7
:104E4000FF26B043C9B24018186028682043286084
:104E50001D68002A0ED00A482102220715431D6052
:104E600002680A4205D102680A4202D102680A4277
:104E7000F6D0F0BD200785431D60F0BD10010B404A
:104E800004020B4010B5FFF763FF002801D000209B
:104E900010BD012010BDC04610B5FFF759FF002816
:104EA00001DB002010BD012010BDC04610B5FFF78A
:104EB0004FFF002801DD002010BD012010BDC046BD
:104EC00010B5FFF70BFF002801DA002010BD01200C
:104ED00010BDC04610B5FFF701FF002801DC00201F
:104EE00010BD012010BD000010B500F061FB0028CE
:104EF00001D0002010BD012010BDC04610B500F04B
:104F000057FB002801DB002010BD012010BDC0466A
:104F100010B500F04DFB002801DD002010BD012080
:104F200010BDC04610B500F007FB002801DA0020D4
:104F300010BD012010BDC04610B500F0FDFA0028DC
:104F400001DC002010BD012010BD000080B5144917
:104F5000144800F03DFC14480168032252020A4341
:104F60000260026801210B021343036002680A43D6
:104F700006239A4302600022426127224262826B2A
:104F800007231A438263826B1B0213438363826A83
:104F9000042313438362826A0A43826280BDC0464F
:104FA0006673000000200F4000320F40F0B511483A
:104FB000016849071DD41049104A114B05E001242E
:104FC000114D4C550468640713D4C4698F5C7D1C73
:104FD0007F262E40CD5CAE42F1D0A125AD004D190B
:104FE000EC55084C2468BF00ED198027EC518E5415
:104FF000E8E7F0BD08115040000020200405000043
:1050000005050000940A202006050000F0B581B0D7
:10501000002A22D091235B01C3180F200402901EA6
:105020000090561E0020DF6927421BD00F5C1F60D6
:10503000864210D0DF69274211D00F187D781D609D
:10504000009D854207D0DD6925420AD0BD781D60EC
:10505000C01C8242E7D1104604E0002002E0401C60
:1050600000E0801C80B201B0F0BD000070B51446B5
:105070000F4D0B462B40002222600E4EB34215D836
:105080001E46064312D01E0D07D100220A4BFFF721
:1050900073F90D403522D2432B461B0D9A18074B4E
:1050A000D2182260064A0A400649511870BDC0460F
:1050B000FFFFFF7FFFFFEF7F0000504302FCFFFF79
:1050C000FFFF0F800000E03FF0B51048016849077E
:1050D0001BD40F490F4A05E00123104C0B55036800
:1050E0005B0712D4C7690523DD014B5D5C1C7F267D
:1050F00026408C5CA642EFD0CF54074C24689B001E
:10510000CB188027DC514E55E9E7F0BD081110405F
:105110000000202081020000940A2020820200006A
:10512000F0B587B00191064602AD0020E874123553
:1051300037460A243846214600F04AF84443391BD2
:10514000CA175140891A3031297009376D1E122F44
:105150000746EED8002E01D46D1C01E02D202870EA
:1051600002A8441B224614320198294600F02EFC66
:105170001334204607B0F0BDF0B5FFB086B01C4632
:1051800015460246A868002801D50620A8602368B5
:10519000039304AB0090019305A80B46FEF7ACFE09
:1051A0000646049FAA683946234600F08EFA206816
:1051B0000399814201D0012202E028680007C20F52
:1051C000304639462346FFF7F7FD7FB006B0F0BD05
:1051D0001CB5002922D04C08002900D549424210B4
:1051E0005440002800D5404200230A00904201D9D3
:1051F0005200FBE790425B41904200D3801A9142FB
:1052000001D25208F6E71900002C00D54042640094
:1052100000D549420200080011001CBD0100002019
:10522000FFF7DDFC1CBD7CB515460C460646C017D5
:1052300031464140081A009200210A226423FCF7FB
:105240001BF930460930122808D8DF2020405028AA
:1052500004D02868411E296030210170002E01D43D
:105260002B2000E02D2029684A1E2A60087028683B
:10527000411E296004707CBD0F480146143900228C
:105280000A60014610390A600C4941604268426078
:1052900001600168016041680122520611434160CA
:1052A00001681143016082210161054A426105489C
:1052B000016102607047C0463C80424084000E009D
:1052C00082000400DC80424081B010B587B00C46FB
:1052D000099305924A1E0021012C00D20A4603922E
:1052E0000491029009A9069108480090084B05A86E
:1052F00002AAFBF72BFC002C02D0029900220A70B4
:1053000007B010BC02BC01B00847C046FB56000005
:10531000995800000CB54A00520D03231B02FF33BD
:10532000D21A13D31F239A1A12D98E46C902012307
:10533000DB071943D1400B2A02D21532D04001437A
:105340007346002B00D5494208000CBD00200CBD5F
:105350000B000120C007002B00D401380CBD000059
:1053600070B511221302C218C4580125AC43C450B1
:105370000C888D7825438C882C43C558084E2E40C8
:10538000084D25407419C4508879CB790343087AB5
:10539000184351687E23994318400818506070BD27
:1053A000E798FDFF18670000B0B50A480A49416058
:1053B0000A4A51600A4B59600A4C61600A4D6960A3
:1053C0000A4901601160196021602960102000F015
:1053D000E1FAB0BD00080A40030000B100280A400D
:1053E00000280F400008104000085040010000262F
:1053F00010B50E490E4A01235C05906008682042F2
:1054000005D10868204202D108682042F6D0106811
:105410001B04034313600868C00605D40868C0066F
:1054200002D40868C006F6D510BDC04604020B4081
:1054300004010B40B0B50C46022802D30A20604399
:10544000B0BD0C4A0025204629462B4600F0D4F971
:105450007D229300C0186941D2002B4600F028FA43
:10546000012902DA002C03D0B0BDE843002CFBD1A7
:105470002046B0BD102700001CB50A0017D000233D
:105480000124E407A04200D20400944201D9520052
:10549000FBE790425B41904200D3801A914201D2D7
:1054A0005208F6E719000200080011001CBD0100B7
:1054B0000020FFF794FB1CBD10B50E4902788B1835
:1054C0005B78401CDB06F9D400212D2A04D02B2A5E
:1054D00002D0401E134600E00378303B092B04D86D
:1054E0000A244C431919401CF6E72D2A00D14942E1
:1054F000084610BDE071000010B5024600200329E7
:1055000003460DD31378722B034609D15378652BCC
:10551000034605D193783A2B01D0002300E0032302
:105520009C1C8C4207D8D15C502904D1D0184178FA
:105530002C394842484110BD40B542004B005E083E
:10554000164301D006004E4000D4D01A04D20120E8
:10555000C90F06D1404204E003D90120C90F00D091
:105560004042FF263606B24200D8B34201D901209C
:10557000404240BD70B50A480A4C84420CD00A4DE6
:105580000A4EB54208D02A686968501C1278920009
:10559000A25890470835F4E700BF00BF70BDC04671
:1055A0001C740000107400002C7400003C74000097
:1055B00040B542004B005E08164301D006004E4045
:1055C00000D4D01A04D20120C90F06D1404204E011
:1055D00003D90120C90F00D04042FF263606B2424F
:1055E00000D8B34200D9012040BD0000FCB4020C39
:1055F0000B0CFF242402FF34204021400C004443C4
:1056000015005D4306005E430F005743320C3B0C10
:10561000A818C01832043B040025A1186841C91815
:105620006841FCBC7047000006B54100090E7F3997
:105630000DD41F22511A0CD9864600020122D2072E
:105640001043C8407246002A00D5404206BD0020E3
:1056500006BD02000120C007002A00D4401E06BD7E
:1056600010B503460120002B0FD001290DD8382496
:105670004C43191909D00878002807D00869101A76
:105680007D218900884205D8022010BD8869411E0D
:10569000884110BD032010BD06B5002803D5734610
:1056A000FFF7C2FF06BD4100090E7F3908D31F2254
:1056B000511A07D300020122D2071043C84006BD89
:1056C000002006BD0020401E06BDF8B51C4615464C
:1056D0000646571800F043F9711E012D0CDB3022ED
:1056E000012F02DB874200DCCA5D23685E1E266054
:1056F0001A707F1E6D1EF0E7F8BD70B514460D469A
:1057000001466A68A86882420BD9161AA64200D3DD
:1057100026462868324600F059F928688019286022
:10572000A8680019A860204670BD000004B40422D7
:10573000002802D1002104BC704701D50832404244
:1057400012021F320100521E4900FCD30805090B4A
:105750001205114304BC704780B5FFF725FEFFF723
:105760008BFDFFF72FF8FFF7F1FBFFF725F9FFF7A8
:1057700069F902482C210022425480BD640A20208D
:1057800002B49E21002805D401D102BC7047013922
:105790004000FCD5803001D3013100E04000400AD8
:1057A000C905084302BC7047084880F3088800BF59
:1057B00000BF00F02DF9002801D0FFF7DBFE00202C
:1057C000FEF750F9012000F011F9C04600802020BA
:1057D00070B50122120383180C785D680C26B5435E
:1057E00034402C195C60497883580724A343214036
:1057F0005918815070BD000030B514004C4325008D
:105800001C0044436419050010002900FFF7EEFE58
:10581000001904000D002100280030BDB0B5044679
:105820000020002B08D0D2B20D782570954204D00C
:10583000641C491C5B1EF7D1B0BD601CB0BD0000EC
:1058400018B520239B1A04D8010000205B42994020
:1058500004E004009140DC402143904018BD00006A
:105860000843104304490A683F231B049A43184025
:10587000101808607047C04638010B40012905D850
:1058800038224A438118002803D003E00021002871
:1058900000D10146084670474B688A689A4204D294
:1058A0000A68531C0B6010708A68521C8A6070472B
:1058B00040B584B002AE0096FEF7DCFF029A039B6F
:1058C00004B040BDC9B202788A4204D0002A01D097
:1058D000401CF8E70020704710B50122120383181E
:1058E0000C789C604978815010BD10B500239A4215
:1058F00003D0CC5CC4545B1CF9E710BD80B50B46EB
:1059000003214258C11D184600F060F880BD000018
:1059100002480168491C01607047C046940A202073
:1059200080B50249484300F035F880BD8038010059
:1059300000214258091D002AFBD1081F8010704722
:1059400080B50A4603214158104600F01DF880BD7D
:105950000B4611461A4680B500F00FF880BD0021B5
:10596000425C491C002AFBD1481E704780B50028C4
:1059700002D0DC2100F008F880BD00239A4202D05A
:10598000C1545B1CFAE770470A46002180B5FFF757
:10599000F4FF80BD811E091F00BFFCD27047024684
:1059A0000B4620462946FFE782B00094014C019443
:1059B00010BD00BF293C00000022304639462B466E
:1059C0007047000000487047980A202080B5FFF714
:1059D0008CFF80BD0146204600E0000082B00094AC
:1059E000014C019410BD00BF5D4B000000F001F8B8
:1059F000FEE700BF7047284600E0000082B0009438
:105A0000014C019410BD00BFF7460000CCE6704782
:085A10000120704700000000B6
:105A20000000000000000000000000000000000076
:105A30000000000000000000000000000000000066
:105A40000000000000000000000000000000000056
:105A50000000000F80380FFE380F80380000000073
:105A60000000000000000000000000000000010035
:105A7000000600000C0000380000310000060000A5
:105A80000C000038000030000000000000000000A2
:105A900061800067F807F980006180006180006123
:105AA000800061800067F807F980006180000000D5
:105AB00000000000000001C0E003E0F00630080430
:105AC00018081FFFFE040E080787F00381E000009E
:105AD0000000000001F000060C00040408060C7031
