:1000000000802020E9960000875100008751000001
:1000100000000000000000000000000000000000E0
:1000200000000000000000000000000087510000F8
:10003000000000000000000087510000D59500007E
:10004000875100008751000087510000618E000039
:100050008751000087510000875100008751000040
:1000600000000000875100008751000000000000E0
:1000700000000000C18F0000198E0000D18D00002B
:100080008751000087510000875100008751000010
:1000900087510000875100000000000000000000B0
:1000A00087510000875100000000000000000000A0
:1000B00087510000000000008751000087510000B8
:1000C000F0B5E9B01D9135AD0021002801D101F056
:1000D0002BF8002A01D101F027F80446FC48261825
:1000E000307C012801D001F01FF8B0681D9B181A60
:1000F0002768F98A884201D201F00DF802926B203C
:100100000001201801902C35009500200F90C0436D
:100110000D9001200490B36024AD4421284609F0DD
:10012000E0F9B88868863889A8860E97B86D32904D
:100130000596F0683390201D1490284610301390D7
:1001400028461430129028461C30119024351595FD
:10015000039425460A350F9B1C46189304980B9070
:1001600017930D9816900FE001211B9CA140164695
:10017000189A0A431892169017961A98641C2D180C
:10018000042C01D100F084FC200135A90E18612255
:1001900092001A921B946243149CA2180B50736035
:1001A000B3601F96F36003201090C001105C00281C
:1001B0004ED00E994F8A002119952A460B461E9162
:1001C00021910D9923911D99209705E02197209F5A
:1001D000401E1032002822D0022415594E1BBE4268
:1001E000F6D8941F24882293DFB27F005DABDC53E6
:1001F0009379012B08D1138821994F1CCCB264004C
:1002000045A90B531D9900E0219F229B5B1C239C59
:10021000A642DBD21F9CA5601E952396D6E71F98A9
:1002200003732293DCB2032C15D3A51E03212846A9
:1002300008F0E8FE491C0329239101D100202390F6
:10024000601E0A95022D1C9407900FD20120B1E088
:100250001E93229301E00F9B199D339802210143C5
:1002600033911E4618461F460B93D1E20C912399F9
:10027000401A20900027012009E0324651005DAA73
:100280005552C01CFF1C20998F4200D18FE04100C5
:100290005DAA555A034601465A005DACA218941E49
:1002A0002488AC421E4620D914804B1E00221C0616
:1002B0001AD0DEB273005DACE3189C1E2488AC42F9
:1002C00013D91C808B1E1C060ED0DEB273005DACF1
:1002D000E3189C1E2488AC4207D91C80C91ECBB2EF
:1002E000002B1646D8D100E0164671005DAA555283
:1002F000411C4B00D55A0B464A005DACA418A21E07
:100300001688AE420A4620D92680591E00260A06C3
:100310001AD0CAB251005DAC61188C1E2488AC4260
:1003200013D90C80991E0A060ED0CAB251005DACDA
:1003300061188C1E2488AC4207D90C80DB1ED9B210
:1003400000293246D8D100E0324651005DAA55520C
:10035000831C5900555A19465A005DACA418A21EB8
:100360001688AE421A4689D926804A1E00261306F0
:1003700083D0D2B253005DACE3189C1E2488AC42FB
:1003800000D87BE71C808A1E130600D175E7D2B225
:1003900053005DACE3189C1E2488AC4200D86DE786
:1003A0001C80C91ECBB2002B3246D5D166E70C9912
:1003B00003296DD0002208E02E4671005DAC635227
:1003C000801C921C23998A4262D041005DAB5B5A2B
:1003D000074601467C005DAD2C19A51E2D889D4267
:1003E0003E4620D925804C1E002526061AD0E6B2AE
:1003F00074005DAF3C19A71E3F889F4213D9278028
:100400008C1E26060ED0E6B274005DAF3C19A71E06
:100410003F889F4207D92780C91ECFB2002F2E46A2
:10042000D8D100E02E4671005DAC6352012111432A
:10043000239B99422CD0471C79005DAB5B5A39460F
:100440007C005DAD2C19A51E2D889D423E46B4D979
:1004500025804C1E00252606AED0E6B274005DAFA6
:100460003C19A71E3F889F42A7D927808C1E2606CD
:10047000A2D0E6B274005DAF3C19A71E3F889F4230
:100480009BD92780C91ECFB2002F2E46D8D194E722
:100490005DAD28886988AA8840188018401C03210F
:1004A00008F0B0FD02461F98028022990806400E0F
:1004B000012323931940400008902818099100292E
:1004C00008D1811E098800884018450803E0C0460D
:1004D0001406000005881C9C0C920321079808F064
:1004E00091FD481C00230328069000D11846079070
:1004F000201A209006241A4621465DAFFC18FF5AA8
:100500007F1BF8174740381A51AFFE18F852608821
:10051000401BC7177840C01B7080A088401BC417C1
:100520006040001BB080D21C9B1D8C1D2098904207
:10053000E2D106980328079B16D05DA8405A401BBD
:10054000C2175040801A51AA5052012B0CD05DA8FE
:1005500040184088401BC2175040801A51AA5218B8
:100560005080091D9B1EE8D103210A9C204608F0FB
:1005700049FD4A1C032A20921C9901D10020209099
:10058000022C239C00D2A9E00A922098C043401874
:100590001C90002301240AE00846400051A90D5296
:1005A000239CE41CDB1C1C98834200D193E0600078
:1005B00051A90D5A224623942746500051A90818E4
:1005C000811E0C88AC42114620D90480791E00207F
:1005D0000A061AD0C9B24A0051ACA218941E248847
:1005E000AC4213D91480B91E0A060ED0C9B24A0013
:1005F00051ACA218941E2488AC4207D91480FF1E67
:10060000FAB2002A0146D8D100E00146480051A9BB
:100610000D522398471C78000D5A3A46780051A98C
:100620000918881E0488AC42384620D90C80501E18
:10063000002104061AD0C0B2440051AE3419A61EDF
:100640003788AF4213D92780901E04060ED0C0B25F
:10065000440051AE3419A61E3788AF4207D927800F
:10066000D21ED7B2002F0846D8D100E0084640007D
:1006700051A90D522398821C50000D5A1746500064
:1006800051A90918881E0488AC42104685D90C80EF
:10069000781E0021020600D17EE7C0B2420051ACB4
:1006A000A218941E2488AC4200D876E71480B81EA5
:1006B000020600D170E7C0B2420051ACA218941EED
:1006C0002488AC4200D868E71480FF1EFAB2002AE2
:1006D0000846D4D161E70A98032870D0002109E0C8
:1006E0002846400051AB1A52239CA41C891C209818
:1006F000814264D0600051AA125A274623942346AF
:10070000780051AC2418A01E05889542384620D99F
:100710002580581E002504061AD0C0B2440051AEF0
:100720003419A61E3788974213D92780981E0406CD
:100730000ED0C0B2440051AE3419A61E378897427D
:1007400007D92780DB1EDFB2002F2846D8D100E072
:100750002846400051AB1A5201200843209A90428B
:1007600023982CD0471C780051AA125A3B46780097
:1007700051AC2418A01E058895423846B1D9258071
:10078000581E00250406ABD0C0B2440051AE341947
:10079000A61E37889742A4D92780981E04069FD0AA
:1007A000C0B2440051AE3419A61E3788974298D97A
:1007B0002780DB1EDFB2002F2846D8D191E751A851
:1007C000089940180999002905D1811E09880088D7
:1007D0004018470800E007880F9B199D0C9E1F9842
:1007E00047802198C0B2002811D00A971C90012898
:1007F0002AD11C984008400045A9085A1F9A9080A9
:10080000012151730F9B199D0C9E0A9F00E000204F
:1008100013991B9A229C8C54E1B25200129CA7524D
:10082000119CA0521598865203290BD316991E9A33
:100830008A42104600D3084617998A4200D993E4A9
:100840000A4691E41B9C98E41C98841E03212046D0
:1008500008F0D8FB491C0329209101D100202090E9
:10086000022C01D20126A2E009912098C0431C99D4
:1008700040182190002401260AE03846400045A98E
:100880000D52239EF61CE41C2198844200D18AE07C
:10089000700045A90D5E33462396580045A90818F7
:1008A0000121CA43815EA9421F461EDD0180711EDF
:1008B00000200B0618D0CFB2790045AB59188B5EDB
:1008C000AB4212DD0B80B11E0B060DD0CFB279000A
:1008D00045AB59188B5EAB4207DD0B80F61EF3B2B9
:1008E000002B0746D9D100E00746780045A90D52F4
:1008F0002398461C70000D5E3346700045A9091808
:100900008F5EAF4230461EDD0F80581E0027010665
:1009100018D0C0B2410045AE71188E5EAE4212DDF5
:100920000E80981E01060DD0C0B2410045AE711870
:100930008E5EAE4207DD0E80DB1EDEB2002E384634
:10094000DBD100E03846400045A90D522398831CB6
:1009500058000D5E1E46580045A909188F5EAF422B
:1009600018468BDD0F80701E0027010685D0C0B2AF
:10097000410045AB59188B5EAB4200DC7EE70B8033
:10098000B01E010600D178E7C0B2410045AB59184E
:100990008B5EAB4200DC71E70B80F61EF3B2002BDE
:1009A0003846D8D16AE70998032800D121E700200A
:1009B00021900CE03046400045A90C52239EB61C05
:1009C0002199891C20982191814200D111E7700062
:1009D00045A90C5E31462396480045AA1718012503
:1009E000EB43FA5EA24208461EDD3A80701E0027E5
:1009F000010618D0C0B2410045AA5118CA5EA242F1
:100A000012DD0A80B01E01060DD0C0B2410045AA19
:100A10005118CA5EA24207DD0A80F61EF1B2002913
:100A20003846D9D100E03846400045A90C522198FB
:100A3000054320988542239800D1DAE6471C7800C8
:100A400045A90C5E3D46780045A90918CA5EA24238
:100A50003846B0DD0A80681E00260106AAD0C0B262
:100A6000410045AA5118CA5EA242A4DD0A80A81E10
:100A700001069FD0C0B2410045AA5118CA5EA242E9
:100A800099DD0A80ED1EEFB2002F3046DBD192E7F0
:100A900024A81899C1730B98C007059A00D1D4E116
:100AA00017981699401A0E9B998A884204D9339850
:100AB000042101433391C8E135A801881391018ACB
:100AC0001491018C1591008E16900D985D905DAA81
:100AD000002494805F909481619011469482DA881A
:100AE000D86D17901C92002A1D4673D00846083016
:100AF0001B9010311A91179F224608E0239A086034
:100B00008A80521C0C371C9890420E9D62D0239212
:100B100038881399091AEA692046234608F022FD0D
:100B200002460B4608F058FC2190229178881499CF
:100B3000091A2A6A2046234608F014FD02460B468D
:100B400008F04AFC20900E46B8881599091A6A6A7E
:100B50002046234608F006FD02460B4608F03CFC02
:100B60001E901F91F8881699091AAA6A20462346F2
:100B700008F0F8FC02460B4608F02EFC219A209B58
:100B8000D218229B5E411E9BD2181F9B5E411218F9
:100B90004E4180326641300A0D9802D13006110A6A
:100BA00008185D9A5DA9904203D35F9988421B990A
:100BB0000AD25F9B609D6295619390429ED25D9A3E
:100BC0005E9B60935F9299E7619988421A99239A94
:100BD00095D396E7E86A18900020FB4906462090D6
:100BE0000246034623902290219003E0761C032EB8
:100BF00020467AD01B901C931E921F91F1005DAA93
:100C00005058189B984200D8189851188B88012189
:100C10008C07844207D9A208904205D22209A40970
:100C20009042F6D300E0224619960C245C43179BB1
:100C30001B191A93002A26D0002101E092091FD027
:100C40008B184908984200D38918940818D0C31A01
:100C500000D318460B194908984200D30919140902
:100C60000ED0C31A00D318460E194908851B0B195C
:100C7000B04202D32846E1D300E0DFD31946DDE7D6
:100C8000012900D80121D14808F0BCF90646002509
:100C90002398801923902298684122901A9C2789D2
:100CA0003846294632462B4608F096FB209A821891
:100CB00020922198484121900A20205E3C46C1178D
:100CC00032462B4608F088FB1E9A82181C9B4B412B
:100CD0001F9880B28742394600D301461B9880B2E4
:100CE0008442199E82D8044680E7239F3846229E7C
:100CF000304300D1A8E01C931E921F917808F107A1
:100D00004018720820990818219951413A463346F3
:100D100008F032FC24A9C88081B20E9A938E9942C1
:100D200002D3D38E994202D924A9CB801846192226
:100D30001B9080B24B218900401A1C9B00D2284690
:100D400019921101219124AF38811E981946239AD6
:100D5000334608F007FC22972090B88123950E9D1A
:100D60002E6C6A6CF0171E9054202F5A1A97288FF9
:100D70001399081AD317C11708F02EFB3A46239B84
:100D800008F0F0FB0F4680191C901E984741688FB1
:100D90001499081AAA6CD317C11708F01DFB1A9EE4
:100DA0003246239B08F0DEFB1C9A10181E907941F6
:100DB0001C91A88F1599081AEA6CD317C11708F06F
:100DC0000BFB37463246239B08F0CCFB0E461E9A9F
:100DD00010181E901C984641E88F1699081A2A6D23
:100DE000239DD317C11708F0F7FA3A462B4608F0AF
:100DF000B9FB0F461E9908187741EB43CC4A111AEC
:100E00001946B941394600DB194600DB10462D2250
:100E100012040125831A0B46239EB3410EDB1046B4
:100E20002A460DDA002A00D111460A22239B08F037
:100E3000D3FA002F1E952CDABE492BE02A46F1DBAF
:100E4000239A002AF0D0F0E7059A907C012807D178
:100E5000019800681D990E1A0E98008B864205D9DC
:100E60003398402101433391002549E1B548039966
:100E7000091824AC4422204608F014FC01256580A2
:100E800000206070207133986902014333912686F7
:100E900036E1E9034018C117090C4018060C229DE1
:100EA0006E811F98201A1F90E8855D9C7D20C200EE
:100EB0002046239F39463B4608F08EFA1E9AD205FB
:100EC000801879410902000E4018A8852098301A30
:100ED00001B2C9134840411A08B2219AC732209082
:100EE000904205DC89B2944A4A43910C6422571A15
:100EF00022988773059BD9794A001B989852491C00
:100F00008E4A4A43120C109D5543491BD9719A7958
:100F1000022A239905D8511C059B9971911E4A1EDE
:100F2000914135AE337B77880122972F154600D348
:100F3000239D032B00D8239A062B239803460ED318
:100F4000BBB2642B03460AD8337F062B034606D375
:100F500035AB5B8A652B01D3002300E001232A40D7
:100F60003C9DEDB2032D02D82398054601E00125F2
:100F700023982A40012A054606D135AA528A972A83
:100F800001D3002500E00125002B239802460CD058
:100F9000009A1278062A024607D335AA528C652A8F
:100FA00001D3002200E001222398002D0346009D7A
:100FB00010D02B78042B03460CD335AB5B8C972BCE
:100FC00006D3002305E0C046FFFF000000CA9A3B9D
:100FD00001232398002A02460BD02A7C062A0246C7
:100FE00007D335AA528E652A01D3002200E00122E0
:100FF0002398002B03460BD02B7C042B034607D3EE
:1010000035AB5B8E972B01D3002300E0012323989F
:10101000002A02462BD00E9A156B1F9886B200222A
:101020002198864201D8164600E00126AC42049D74
:1010300000D835460D43239819D105990D88498864
:10104000A9420A4600D32A4600D82946059DAD8804
:1010500095422E4600D316468D4200D80D46A91B58
:1010600089B2972901D3002200E001222398344954
:101070008C4200D201200340012B10D1002A10D154
:101080001F9881B219984301994213D824A90123CA
:101090004B710B70339920230B43339307E0002AE5
:1010A00008D024A902234B71FF2302330B800021B7
:1010B000049108E024A900234B7101230B7033999C
:1010C00010230B433393002101252098FB28284649
:1010D00000DB0846104024AAD07010711D9C349487
:1010E0001186049800280BD116480399081824A9E2
:1010F000442208F0D7FA0198046001250598857408
:10110000C520C000039C201824A9442208F0CAFA74
:10111000059E7574029AC520C0002118442310460C
:101120001A4608F0BFFA717C0120084069B0F0BD92
:101130000000D3FF0080FFFFABAA0000565500005F
:10114000CECCCC006C060000F0B5A1B00246002069
:10115000002A01D100F0BDFE546A002C01D100F03C
:10116000B8FE957A2B0604D0916A002901D100F0CF
:10117000B0FE209403491C921468002620070A46FA
:1011800003D501E03288DB0E32460595014F60073A
:1011900003D501E019C46D0737461A93014DE006E7
:1011A00003D501E06410B71D35461E951B961C98AB
:1011B000C1681F91064610364ACEC0697A40024D7A
:1011C000A7062F4603D501E0C8206E3B1B9F04975E
:1011D000050C1895050A1795350C1495350A1395C5
:1011E0001D0C10951D0A0F950D0C0C950D0A0B95F5
:1011F0001F9F3D0C08953D0A0795270C0297270A6B
:1012000001971E9D6A40034FE5430395E50704D00F
:1012100002E0C0462083B8ED1B9F00971C9FFD880D
:101220001E953D6A1D95050E1995189DEDB21895F0
:10123000179DEDB21795C0B21690300E1590149808
:10124000C0B214901398C0B21390F0B21290180E5E
:1012500011901098C0B210900F98C0B20F90D8B2F1
:101260000E90080E0D900C98C0B20C900B98C0B266
:101270000B90C8B20A901F99080E09900898C0B246
:1012800008900798C0B20790C8B20690200E029945
:10129000C9B2019BDBB2049D6A40FF25ED43039E6A
:1012A0002E437608009D6E407508A407014C04D5B6
:1012B00002E0C0462083B8ED1B9C6540AC0962404B
:1012C000B406E417FC4E34405440AA06D217FB4F34
:1012D0003A40624053401A07D217F94C22405C074B
:1012E000E417F84E34405440DA06D517F64A154054
:1012F00065409A06D217F54C22406A4001261C46EA
:10130000344064423C405D0865406C089B07DB1735
:101310003B4063409C095440AA06D217E64D2A4040
:1013200062409B06DB173B40534059400A07D217E7
:10133000E34B1A404B07DB17E24C23405340CA06ED
:10134000D417E14A14405C408A06D217DF4B1A409A
:1013500062400B4633405B423B404C085C406308B4
:101360008907C917394059408B095340A206D21743
:101370002A405A408906C917394051404840010760
:10138000C917CF4A11404207D217CE4B1A404A40E4
:10139000C106CB17CC4C234053408106C917CB4A1A
:1013A000114059400246324052423A4043085340AD
:1013B0005A088007C0173840504082094A409906B1
:1013C000C917294051408006C017384048401C9D2D
:1013D000A98806F021F81E9906F01EF8297A4140E6
:1013E0004807C017B74A10406A7A42400807C0173A
:1013F000B34F38405040CA06D217224042408806B8
:10140000C317B24803405340084630404042AB4CFB
:1014100020404A08424050088907C91721404140EE
:10142000880958404307DC17A64B1C40059BDBB2DC
:1014300005935C400307DB173B4063409206D217DD
:101440009D4C22408906C9179C4F3940514041406C
:10145000CA06D2179C4C22405A408B06DB179B4C85
:101460002340534082071F9630404042384049088D
:1014700041404808D2173A4042409009584043073B
:10148000DB17904C2340EC7A5C400307DB178C4F52
:101490003B4063408906CC1787490C409106C91729
:1014A000864D294061404140CA06D417864A1440FF
:1014B0005C408A06D217854B1A4062408307304051
:1014C00040422840490841404808DB172B402E463F
:1014D0004340980950400207D4173C404207D217B6
:1014E000784D2A4062408906CC17734D2C409906EE
:1014F000C9173140374661404140CB06DB17724C7B
:10150000234053408A06D217704C22405A4083072A
:101510001F9E304040423840490841404808DB1790
:101520003B404340980950408906C9172940414033
:101530009806C01738403C464840069B4340180771
:10154000C0175F4D28405907C9175E4A11404140F6
:10155000D806C2175C4802404A409806C0175B494B
:101560000840504019463140494239405A084A40E3
:1015700051089B07DB173B404B40990941409006BF
:10158000C0174D4A104048409906C917394041409C
:10159000079B4B401807C01728405907C917494FE8
:1015A00039404140D806C217474802404A40980691
:1015B000C017464D2840504019463140494221400D
:1015C0005A084A4051089B07DB1723404B409909B2
:1015D00041409006C017384A104048409906C91744
:1015E00021404140089B4B401807C0173449084030
:1015F0005907C91739404140D806C217324802403E
:101600004A409806C0172840504019463140494288
:1016100021405A084A4051089B07DB1723404B40A2
:10162000990941409006C017234A10404840990646
:10163000C91721404140099B4B401807C01720495A
:1016400008405907C91739404140D806C2171E48FB
:1016500002404A409806C017284050401946314081
:10166000494221405A084A4051089B07DB17234052
:101670004B40990941409006C0170F4A104048401E
:101680009906C917214041400A9B4B401807C017D3
:101690000B4908405907C91739404140D806C217BD
:1016A000094802404A409806C01728405040194651
:1016B000314049420CE0C0469041DC762083B8EDD1
:1016C0003288DB0E19C46D076410B71DC8206E3B4D
:1016D00021405A084A4051089B07DB1723404B40E2
:1016E000990941409006C017FC4A104048409906AD
:1016F000C917214041400B9B4B401807C017F849C0
:1017000008405907C91739404140D806C217F54863
:1017100002404A409806C0172840504019463140C0
:10172000494221405A084A4051089B07DB17234091
:101730004B40990941409006C017E84A1040484084
:101740009906C917214041400C9B4B401807C01710
:10175000E34908405907C91739404140D806C21724
:10176000E04802404A409806C017284050401946B9
:101770003140494221405A084A4051089B07DB1733
:1017800023404B40990941409006C017D34A10406E
:1017900048409906C917214041400D9B4B4018070E
:1017A000C017CF4908405907C91739404140D806EA
:1017B000C217CC4802404A409806C0172840504003
:1017C00019463140494221405A084A4051089B0776
:1017D000DB1723404B40990941409006C017BF4A90
:1017E000104048409906C917214041400E9B4B408C
:1017F0001807C017BA4908405907C917394041406E
:10180000D806C217B74802404A409806C017284079
:10181000504019463140494221405A084A40510837
:101820009B07DB1723404B40990941409006C017A6
:10183000AA4A104048409906C917214041400F9BD1
:101840004B401807C017A64908405907C917394027
:101850004140D806C217A34802404A409806C01724
:101860002840504019463140494221405A084A40D8
:1018700051089B07DB1723404B40990941409006D4
:10188000C017964A104048409906C9172140414068
:10189000109B4B401807C017914908405907C917BA
:1018A00039404140D806C2178E4802404A40980647
:1018B000C0172840504019463140494221405A083B
:1018C0004A4051089B07DB1723404B409909414090
:1018D0009006C017814A104048409906C917214018
:1018E0004140119B4B401807C0177D4908405907DC
:1018F000C91739404140D806C2177A4802404A40C9
:101900009806C017284050401946314049422140AE
:101910005A084A4051089B07DB1723404B4099095E
:1019200041409006C0176D4A104048409906C917BB
:1019300021404140129B4B401807C017684908409E
:101940005907C91739404140D806C21765480240B7
:101950004A409806C0172840504019463140494235
:1019600021405A084A4051089B07DB1723404B404F
:10197000990941409006C017584A104048409906BE
:10198000C91721404140139B4B401807C0175449C9
:1019900008405907C91739404140D806C217514D70
:1019A0002A404A409806C0174F49084050401946FF
:1019B0003140494221405A084A4051089B07DB17F1
:1019C00023404B40990941409006C017434A1040BC
:1019D00048409906C91721404140149B4B401807C5
:1019E000C0173F4908405907C91739404140D80638
:1019F000C2172A404A409806C0173B490840504049
:101A000019463140494221405A084A4051089B0733
:101A1000DB1723404B40990941409006C0172F4ADD
:101A2000104048409906C91721404140159B4B4042
:101A30001807C0172A4908405907C91739404140BB
:101A4000D806C2172A404A409806C01726490840BF
:101A5000504019463140494221405A084A405108F5
:101A60009B07DB1723404B40990941409006C01764
:101A70001A4A104048409906C91721404140169B18
:101A80004B401807C017164D28405907C917394051
:101A90004140D806C217134802404A409806C01772
:101AA00011490840504019463140494221405A08E6
:101AB0004A4051089B07DB1723404B40990941409E
:101AC0009006C017054A104048409906C9172140A2
:101AD0004140179B4B40180708E0C0469041DC7618
:101AE0003288DB0E6410B71DC8206E3BC01728403B
:101AF0005907C91739404140D806C217F948024072
:101B00004A409806C017F6490840504019463140EF
:101B1000494221405A084A4051089B07DB1723409D
:101B20004B40990941409006C017EC4A104048408C
:101B30009906C91721404140189B4B401807C01710
:101B400028405907C91739404140D806C217E5480F
:101B500002404A409806C017E149084050401946E3
:101B60003140494221405A084A4051089B07DB173F
:101B700023404B40990941409006C017D74A104076
:101B800048409906C91721404140199B4B4018070E
:101B9000C01728405907C91739403D464140D8066B
:101BA000C217D04802404A409806C017CC490840A6
:101BB000504019463140494221405A084A40510894
:101BC0009B07DB1723404B40990941409006C01703
:101BD000C24A104048409906C917214041401D980B
:101BE000C2B24A405008114631404B42274623407A
:101BF000434058089107CE1726404640B0091B9035
:101C00005007C4172C401007C017B7490840D50625
:101C1000ED17B4490D409206D217B1490A409B0610
:101C2000DB17AE490B40B606F6173E4060406840F1
:101C300050401B994840584070401D99090ACAB24B
:101C40004240500811461F9B19404B423B404340C5
:101C500058089107CE173E404640B0091B905007E8
:101C6000C417A24804401007C0179F490840D50672
:101C7000ED179C490D409206D21799490A409B06E0
:101C8000DB1796490B40B606F6173E4060406840A9
:101C900050401B994840584070401D99090CCAB2E9
:101CA0004240500811461F9B19404B423B40434065
:101CB00058089107CE173E404640B0091B90500788
:101CC000C4178A4F3C401007C01787490840D50603
:101CD000ED1784490D409206D21781490A409B06B0
:101CE000DB177E490B40B606F6177B4F3E4060403F
:101CF000684050401B994840584070401D990A0E5A
:101D00004240500811461F9B19404B423B40434004
:101D100058089107CE173E404640B7095007C417F0
:101D2000724804401007C0176F490840D506ED17E8
:101D30006C490D409206D21769490A409B06DB1791
:101D400066490B40B606F61763490E40604068408E
:101D500050401E9A784058407040002A72D0209C13
:101D60001E922094218805F057FB618805F054FBF2
:101D7000A18805F051FBE18805F04EFB217A414036
:101D800048080A461F9B1A405242534C2240424088
:101D900050088B07DB172340434098091D904807E4
:101DA000C417524804400807C5174F480540C806E5
:101DB000C6174C4806408806C71749480740900692
:101DC000C017464908409906C917434A1140209A4E
:101DD000527A62406A4072407A401D9B5A404140AC
:101DE0005140480813461F9C23405E423A4D2E4006
:101DF000464070089307DC172C404440A709500761
:101E0000C5173A4805401007C017374A1040CA06A0
:101E1000D217344B1A408906C917314B1940B60600
:101E2000F6172E4B1E40A406E4172B4B1C406840AF
:101E300050401E9A4840784070406040209C0A34D0
:101E4000521E8DD11A99002942D005461C98806AED
:101E50002090059F781E032107F0D4F8491C002626
:101E600003290C4600D13446032F28461CD31F916A
:101E70003D1B0026209F398805F0CEFA798805F0B1
:101E8000CBFAB98805F0C8FAF98805F0C5FA39899E
:101E900005F0C2FA798905F0BFFAF61C0C37B54295
:101EA000E9D11F99032913D0B100209A5518298828
:101EB00005F0B2FA698805F0AFFA012C08D0A988BC
:101EC00005F0AAFAE98805F0A7FA0835A41EEED1B4
:101ED000C04321B0F0BDC0462083B8ED9041DC7610
:101EE000C8206E3B6410B71D3288DB0E19C46D0725
:101EF000F0B5A9B015460291064600200B9010A936
:101F0000325C0A54002A6FD00B1831184C7810AA92
:101F10005C70002C6ED013188C7810AA9C70002C6A
:101F20006ED01318CC7810AADC70002C6ED0131869
:101F30000C7910AA1C71002C6ED013184C7910AAC1
:101F40005C71002C6ED013188C7910AA9C71002C37
:101F50006ED01318CC7910AADC71002C6ED0131837
:101F60000C7A10AA1C72002C6ED013184C7A10AA8E
:101F70005C72002C6ED013188C7A10AA9C72002C04
:101F80006ED01318CC7A10AADC72002C6ED0131805
:101F90000C7B10AA1C73002C6ED013184C7B10AA5B
:101FA0005C73002C6ED013188C7B10AA9C73002CD1
:101FB0006ED01318CC7B10AADC73002C6ED01318D3
:101FC0000C7C10AA1C74002C6ED013184C7C10AA28
:101FD0005C74002C6ED01218897C917400296FD02B
:101FE00013305F288BD175E05F21091A10AA1018F1
:101FF000401C6AE05E21091A10AA1018801C64E0D7
:102000005D21091A10AA1018C01C5EE05C21091A93
:1020100010AA1018001D58E05B21091A10AA101808
:10202000401D52E05A21091A10AA1018801D4CE0D8
:102030005921091A10AA1018C01D46E05821091A82
:1020400010AA1018083040E05721091A10AA1018D9
:1020500009303AE05621091A10AA10180A3034E063
:102060005521091A10AA10180B302EE05421091A14
:1020700010AA10180C3028E05321091A10AA1018C1
:102080000D3022E05221091A10AA10180E301CE05F
:102090005121091A10AA10180F3016E05021091A00
:1020A00010AA1018103010E04F21091A10AA1018A9
:1020B00011300AE04E21091A10AA1018123004E05B
:1020C0004D21091A10AA10181330022902D3491EF3
:1020D00007F007FA03965F2110A8002201910992E8
:1020E0004254BA4F02E02C218170C01C01780929AA
:1020F00007D03B2905D000291ED079184978C90698
:1021000001D52C2101704178092907D03B2905D040
:10211000002911D079184978C90601D52C214170C0
:1021200081780929DFD03B29DDD0002904D0791836
:102130004978C906D7D4D8E70495F04910A806F025
:10214000D7FE002800D181E20546012609980790B4
:1021500005900690089609E0099000242046E7497A
:1021600006F0C6FE0546002800D1C9E128780028FF
:1021700019D06D1C38184078C00611D52878002871
:1021800011D038184078C0060DD56878002809D0DD
:1021900038184078C00605D5A878ED1C0028E9D18C
:1021A0006D1E00E06D1C284607F028F92818A8428B
:1021B00017D9411E0A78BA185278D20611D5A94209
:1021C00012D9821E1378FB185B78DB060CD5AA4265
:1021D00009D9C01E017879184978C9061146E6D494
:1021E00002E0014600E0114600200A9008702878BD
:1021F0000028B2D03D282C463FD0691C01220C4655
:10220000002A0FD02278002A0CD03D2A35D06278DF
:10221000002A07D03D2A1BD0A278E41C3D2AEFD12A
:10222000641E2AE03A282C4627D00122002A11D029
:102230000A78002A0ED03A2A1CD04A78002A09D0FF
:102240003A2A19D08A78C91C3A2AEFD14C1E14E0D8
:10225000641C12E00599032900D97EE738184078FC
:10226000800700D479E70599481C89000CAA5550CD
:10227000059072E70C4600E04C1C0A982070287804
:10228000002819D06D1C38184078C00611D5287860
:10229000002811D038184078C0060DD5687800287D
:1022A00009D038184078C00605D5A878ED1C00285C
:1022B000E9D16D1E00E06D1C284607F09FF8281834
:1022C000A84217D9411E0A78BA185278D20611D5F9
:1022D000A94212D9821E1378FB185B78DB060CD555
:1022E000AA4209D9C01E017879184978C906114651
:1022F000E6D402E0014600E011460A9808706078D2
:10230000002818D0A41C38184078C00611D52078B1
:10231000002811D038184078C0060DD56078002804
:1023200009D038184078C00605D5A078E41C0028EC
:10233000E9D1641E00E0641C204607F05FF8201815
:10234000A04217D9411E0A78BA185278D20611D580
:10235000A14212D9821E1378FB185B78DB060CD5DC
:10236000A24209D9C01E017879184978C9061146D8
:10237000E6D402E0014600E011460A980870297888
:1023800000292ED0284605E08170C21CC1780029A2
:1023900010461DD00A46613AD2B21A2A00D220391C
:1023A00001704178002913D00A46613AD2B21A2A44
:1023B00000D2203941708178002909D00A46613A5B
:1023C000D2B21A2AE0D22039DEE7C04660A100006E
:1023D0002878492805D16878442802D1A8780028AF
:1023E00017D02846DD4906F003F9002811D0284609
:1023F000DB4906F0FDF800280BD02846D94906F045
:10240000F7F8002805D02846D74906F0F1F800284B
:102410003BD1601C411E0A78B9184978401CCB0694
:10242000F8D4861E302A09D1421E12782023134385
:10243000782B03D10178791849780646880723D587
:1024400028A91022304604F001FD289AB2421BD080
:1024500011787B185B78DB060AD551787B185B789E
:10246000DB0605D591787B185B78D21CDB06EFD4B0
:10247000B94A904201D901220A92089A00291146CC
:1024800000D10A99012934D1089E2846B74906F09F
:10249000AFF8002823D02846B54906F0A9F800284F
:1024A0001DD02846B34906F0A3F8002817D02846C7
:1024B000B14906F09DF8002811D02846AF4906F032
:1024C00097F800280BD028784D2800D045E668788A
:1024D0004D2800D041E6A878002800D03DE60BA9A1
:1024E000204605F055F90028304600D034E609981A
:1024F00032E60690089E07962FE6C04628A5000003
:102500000598022800D20124079D28460999084011
:10251000C007304600D12046002815D10398017825
:102520007A185278401CD206F9D40A46613A1A2A1F
:1025300000D22039502907D100782C2800D189E019
:102540003038092800D885E0069CE8077ED0099835
:10255000C0077BD07421049D284606F0C2FF0120ED
:1025600028706C800F20204028710B98A86002987A
:10257000E860122003990B181A46123A1278002AC2
:1025800000D1B4E01A46113A1278002A00D1B0E026
:102590001A46103A1278002A00D1ACE01A460F3AD7
:1025A0001278002A00D1A8E01A460E3A1278002AC2
:1025B00000D1A4E01A460D3A1278002A00D1A0E01A
:1025C0001A460C3A1278002A00D19CE01A460B3ABF
:1025D0001278002A00D198E01A460A3A1278002AA6
:1025E00000D194E01A46093A1278002A00D190E00E
:1025F0001A46083A1278002A00D18CE0DA1F1278C5
:10260000002A00D189E09A1F1278002A00D186E0C2
:102610005A1F1278002A00D183E01A1F1278002A6C
:1026200000D180E0DA1E1278002A7ED09A1E12783D
:10263000002A7CD05A1E1278002A7AD00A5C002A1E
:1026400078D01330712896D1019873E00026049851
:10265000067078E0E80702D0069C35463CE00C980E
:10266000401C411E0A78B9184978401CCB06F8D4A2
:10267000851E302A09D1421E127820231343782B5D
:1026800003D101787918497805460020079088071A
:1026900020D528A91022284604F0D8FB0446289803
:1026A000A84217D001787A185278D2060AD5417814
:1026B0007A185278D20605D581787A185278C01CDB
:1026C000D206EFD44D424D412348401C84423DD3B5
:1026D00000203CE0069C079D0998C00701D00996A0
:1026E00033E70D980BA905F053F809902DE7123840
:1026F00020E011381EE010381CE00F381AE00E38C8
:1027000018E00D3816E00C3814E00B3812E00A38E7
:1027100010E009380EE008380CE0C01F0AE0801F06
:1027200008E0401F06E0001F04E0C01E02E0801E1B
:1027300000E0401E28741135C4B22846224606F037
:10274000B1FF00202855304629B0F0BD01200540DA
:10275000C2D1069CC0E7C046FFFF0000F6A40000FF
:1027600096A400000EA50000D7A40000E7A4000076
:102770006BA40000AEA40000D1A400007DA4000062
:10278000F0B5FFB0A4B01E4602911090A8980A9030
:102790008000E9490D585C1E1192D01E182101914C
:1027A00006F07AFAC1178843011B15910D952D1972
:1027B0000E9081001496B0000F91081ADF4940185E
:1027C000061D002766ACAF420DDC1598C01903D476
:1027D000306806F09DFD01E00020014603C47F1C27
:1027E0000034361DEFE71498C00066A94018083879
:1027F00000230D9FBB4224DC129300251390074653
:10280000109C2E461595149886420FDA03CC0CCFF7
:10281000083F083C05F0E8FE159A2B4603F03DFE04
:1028200015900D46761C0834083FECE7129BD80043
:1028300016A90A18159C0C5055605B1C139808309B
:10284000D7E71720C0430E9948431199411808460D
:10285000183809903020401A04902F200591401A12
:1028600003900F98B54908180F9016A808380890DB
:102870008FA8011FB800079108180690F80016A944
:102880000A180B58526808990E188FA815900E97C1
:10289000384601282ADB3746002613901846114691
:1028A000129232461193A64B05F09EFE06F046FAB0
:1028B00006F02EFD04460D4632463E46A14B05F07D
:1028C00093FE119A129B03F0E8FD06F037FA159972
:1028D00001C1159103CF22462B46083F03F0DDFDD1
:1028E000034613980A46401E083ED2E71846114692
:1028F000099F3A4604F0BAFF05460E46FF208305BD
:1029000000242846224605F06FFE04F063F90C947B
:1029100022468D4B05F068FE2A46334603F0BDFD86
:1029200004460D4606F00AFA064606F0F1FC024699
:102930000B462046294603F0ABFD0446012F1591B6
:102940005FDB0E9880008FA90818001F01680A46F7
:10295000049B1A4196190B969A40891A01600398B4
:1029600001410D9E794D0C9101295ADB13940024ED
:102970008FA821460E9A91420EDA0268002C2B464F
:1029800002D1002A06D06B1C9A1A02600124491C4D
:10299000001DEFE70024FAE7099801280B996C4F16
:1029A00010DB059819286B4803D005981A2809D11F
:1029B00069480E9989008FAA5118091F0A680240B8
:1029C0000A600B99491C0B910C98022828D1002011
:1029D0003946139A159B03F05BFD054602200C90C7
:1029E000002C00D184E000200C463946099A04F0FE
:1029F0003DFF02460B462846214603F049FD0446AA
:102A000010E00B96002FF54D69D020460C9AF44B40
:102A100006F0ABF800280D9E03D002200C90A5E72D
:102A2000139C15990025204627460C462A462B461E
:102A300006F080F800285DD00E9CA00007990918C8
:102A40002246B24204DD521E0B681D43091FF8E7FF
:102A5000002D0699224663D10868521C091F0028E0
:102A6000FAD014980019C00066A90D181192601CC4
:102A7000944232DA129080000F99085806F048FC10
:102A8000149AA218D20066AB9C189850616000237B
:102A900013952C46109F19461D461498814212DA50
:102AA00038681591796822681E46636805F09CFDB8
:102AB00032462B4603F0F1FC03460D461599491C9E
:102AC0000837083CE9E7129CE00016A90A180B50E9
:102AD0005560139D0835119AC9E71746CEE60E9842
:102AE00080008FA90818001F0068C1150D9E3AE7E5
:102AF0002C4697E70198059E821B3846214604F034
:102B0000B5FE05460C460022B74B06F02EF800280D
:102B100024D12846214606F011F906460E9C3AE0DB
:102B20008FA90818001F099A183A641E0168001F2F
:102B30000029F9D033E0C046F0A300004CA000000B
:102B40000000703E000070C1000020C0FFFFFF00C9
:102B50000000F03FFFFF7F00FFFF3F000027A34B77
:102B6000284621463A4605F03FFD06F0E7F80646BE
:102B700006F0CEFB9E4B3A460E9F05F035FD2A46E9
:102B8000234603F08AFC06F0D9F8B9008FAA50500A
:102B90007C1C05980990A0008FA90E50099A00206E
:102BA00090490F9004F062FE0646A0008FAA12180A
:102BB000E50016A8109547190E94002C19D4159409
:102BC00010680C46154606F0A3FB02460B4630463D
:102BD000214605F009FD03C7002230462146834BFC
:102BE000083F05F001FD0646159C641E2A1F083F9C
:102BF000E3E716A8109942180E9F3B46002B0A994E
:102C00000D982ED41293F91A8842149000DB149177
:102C10001191002313921746764C19461D461498BD
:102C2000814212DC2068159161683A681E467B6813
:102C300005F0DAFC32462B4603F02FFC03460D4626
:102C40001599491C08340837E9E71198C0003EA9D6
:102C50000A180B505560129B5B1E139A083A0E9F80
:102C6000CCE7481E02281FD3002955D0032900D0E5
:102C7000AEE03EA810990C18083C3846002859DDF3
:102C800006F040FC02460F462846314615463B46B4
:102C900003F0FEFB06F0EBFCA0C40E9F206015982D
:102CA0006160401E103CE9E7FE0000242546002F2D
:102CB0000CD43EA8811982594B682046294603F05E
:102CC000ECFB04460D467F1E083EF0E701260C98FB
:102CD0000028284601D0F007684002990C6048603F
:102CE0003E983F9922462B4603F0D2FB3EAC083477
:102CF0000E9DAE4206DC0CCC083C03F0CEFB761CED
:102D00000834F6E70C9A002A02D00122D20751407B
:102D1000029A9060D1605BE0F8003EA90C18002098
:102D20000146002F22D40CCC083C03F0B6FB7F1EDA
:102D3000083CF6E73EA810990C18083C38460128D4
:102D40001DDD06F0DFFB07460B46284631463A46B6
:102D50001D4603F09DFB06F08AFC27600E9F656010
:102D6000A0601598E160401E083CE8E70C9A002A34
:102D700002D00122D2075140029A03C228E00F98E4
:102D80000146022F0ADB3EAA109C131912595B68F8
:102D900003F083FB7F1E083C1094F2E706463F9841
:102DA0003E9A0C9B002B0CD00123DB075840409C23
:102DB000419D5D405940029B1A601A1D71C25961C4
:102DC00006E0409B419C029D2A602A1D59C2696110
:102DD00007210B9808407FB024B0F0BDFFFFFF0033
:102DE0000000E03F0000F03F000070410000703E36
:102DF000000070C120A30000F0B591B005469920F5
:102E0000C143084699301090002D00D113E304917E
:102E10006D20C000281802906920C0002818019079
:102E200021200001281809901F200001281808906F
:102E30007D4E7E4F296810AC0E94204603F0B0F80A
:102E4000A988204604F092F9E988204604F08EF91A
:102E5000287A1099414001220F92084610404342BF
:102E600048083340434058088A07D4173440444048
:102E7000A0090D904807C6173E400807C0176C4AC6
:102E80001040CF06FF176B4A17408906C9176A4AD8
:102E900011409B06DB17694A1340A406E417624AF7
:102EA00014407040784048400D9948405840604078
:102EB0006A7A424010460F990840434250085A4EE1
:102EC0003340434058089107CC1734404440A00990
:102ED0000D905007C617554806401007C0175449B3
:102EE0000840D706FF1753490F409206D2175249A0
:102EF0000A409B06DB1751490B40A406E4174A49D8
:102F00000C407040784050400D9948405840604017
:102F1000AA7A424010460F99084043425008424E58
:102F20003340434058089107CC1734404440A0092F
:102F30000D905007C6173D4806401007C0173C4982
:102F40000840D706FF173B490F409206D2173A496F
:102F50000A409B06DB1739490B40A406E4173249A7
:102F60000C407040784050400D99484058406040B7
:102F7000E97A414008460F9A1040434248082A4ED9
:102F80003340434058088A07D41734404440A009CE
:102F90000D904A07D617254806400A07D21724483D
:102FA0000240CF06FF17234807408906C917224869
:102FB00001409B06DB1721480340A406E4171A488A
:102FC000044072407A404A400D9842405A40624064
:102FD0001092E9680E9C204602F0E2FF2969204623
:102FE00002F0DEFF6969204602F0DAFFA969204697
:102FF00002F0D6FFE969204602F0D2FF296A204696
:1030000002F0CEFF696A204602F0CAFFA96A204694
:1030100002F0C6FFE96A204602F0C2FF04200395D1
:103020002F462C460CE0C0462083B8ED19C46D072E
:103030003288DB0E6410B71DC8206E3B9041DC76F1
:103040000D940E90384680300C90384630300B90FE
:103050003020385C109B434018460F990840454289
:103060005808F64A1540454068089907CC1714409F
:103070004440A0090A905807C217F54802401807B3
:10308000C117F2480140D806C017EF4E30409B06EA
:10309000DB17EC4E3340AD06ED17E94E3540A40684
:1030A000E417E64E34405140414059400A984140AF
:1030B000694061400B9842784A4010460F99084099
:1030C000434250083340434058089107CC173440DE
:1030D0004440A0090B905107CD17DD48054011076A
:1030E000C917DA480140D606F617D74806409206B7
:1030F000D217D44802409B06DB17D1480340A406F0
:10310000E417CE4804406940714051400B9841405B
:10311000594061400D9C1091798E10AD284604F005
:1031200025F8796B284602F03BFFB96B284602F080
:1031300037FFF96B284602F033FF396C284602F05E
:103140002FFF796C284602F02BFFB96C284602F05D
:1031500027FFF96C284602F023FF396D284602F05C
:103160001FFF796D284602F01BFFB96D284602F05B
:1031700017FFF96D284602F013FF396E284602F05A
:103180000FFF796E284602F00BFFB96E284602F059
:1031900007FFF96E284602F003FF7034396F2846A6
:1031A00002F0FEFE796F284602F0FAFEB96F28465B
:1031B00002F0F6FEF96F284602F0F2FE8020395840
:1031C000284602F0EDFE0C9E7168284602F0E8FEEB
:1031D000B168284602F0E4FEF168284602F0E0FEFD
:1031E0003169284602F0DCFE7169284602F0D8FEFB
:1031F000B169284602F0D4FEF169284602F0D0FEFB
:103200000E98401E274600D01AE7089C218810AD72
:10321000284603F0ABFF6188284603F0A7FFA1888A
:10322000284603F0A3FFE188284603F09FFF218989
:10323000284603F09BFF6189284603F097FFA18988
:10324000284603F093FFE189284603F08FFF218A87
:10325000284603F08BFF618A284603F087FFA18A86
:10326000284603F083FFE18A284603F07FFF218B85
:10327000284603F07BFF618B284603F077FFA18B84
:10328000284603F073FFE18B284603F06FFF099C8B
:103290002188284603F06AFF6188284603F066FF0C
:1032A00085208000039908180590049C059807194B
:1032B0009A200F90395A10AD284603F057FF9C20F2
:1032C0000E90395A284603F051FF9E200D90395A2E
:1032D000284603F04BFFA0200C90395A284603F0F3
:1032E00045FFA2200B90395A284603F03FFFA42047
:1032F0000A90395A284603F039FFA6200990395A16
:10330000284603F033FFA8200890395A284603F0D6
:103310002DFFAA200790395A284603F027FFAC203A
:103320000690395A284603F021FFAE26B95B28469D
:1033300003F01CFF1634B9D14648039908180590CC
:10334000049D059847190F98395A10AC204603F090
:103350000DFF0E98395A204603F008FF0D98395A90
:10336000204603F003FF0C98395A204603F0FEFE76
:103370000B98395A204603F0F9FE0A98395A20462C
:1033800003F0F4FE0998395A204603F0EFFE08983E
:10339000395A204603F0EAFE0798395A204603F0CE
:1033A000E5FE0698395A204603F0E0FEB95B204658
:1033B00003F0DCFE1635C4D1019D296810AC20460F
:1033C00002F0EEFD6968204602F0EAFDA968204699
:1033D00002F0E6FDE968204602F0E2FD2969204698
:1033E00002F0DEFD6969204602F0DAFDA969204697
:1033F00002F0D6FDE969204602F0D2FD029D29685F
:10340000204602F0CDFD6968204602F0C9FDA9689A
:10341000204602F0C5FDE968204602F0C1FD296999
:10342000204602F0BDFD6969204602F0B9FD109802
:10343000C04311B0F0BD002011B0F0BD2083B8ED45
:103440009041DC76C8206E3B6410B71D3288DB0EDD
:1034500019C46D07AE020000F0B5A3B0002800D17A
:10346000AEE20D46002900D1AAE204460668002E0D
:1034700000D1A5E26079012806D1E869A168401A67
:1034800080087D2800D29BE201201090207900283E
:103490000F940E957ED1A0200090EF48019000245B
:1034A00080273046214622463B4602F0D3F90E20C3
:1034B00011900090E94D01953046214622463B4649
:1034C00002F0C8F9E64800900195109F0297E54B7D
:1034D000162104220D92304605F0B3FBDE48433836
:1034E00085B20095DD4801900297DF4B6821304698
:1034F0000D9A05F0A6FB119A009201957F233046A4
:10350000214601F0F9FCD6480090D34D0195029771
:10351000D64B072413223046214605F092FBD048B3
:1035200000A9A1C1D24B1E223046214605F089FBDD
:10353000CB4800A9A1C1CF4B29223046214605F036
:1035400080FBC74800A9A1C1CB4B71223046214660
:1035500005F077FBC24800A9A1C1C84B7D223046C7
:10356000214605F06EFB33220092C54801900524E8
:103570007A25304621462B4601F0BEFC6C22009293
:10358000BF480190304621460F9C2B460E9D01F00E
:10359000B3FC2771287918A90C9105F05CFE16A9D7
:1035A0000D91284605F080FC12A9284604F0D8FFAA
:1035B0002068079009250095A74F01973E2111919A
:1035C00012223D230B9302F045F938464338264634
:1035D0000A9080B2089000900197109C02944127B5
:1035E0001322079839460C9B05F02BFB30680C958D
:1035F0000095F74901911D22054611990B9B02F098
:1036000029F908980090F248019002941E22284659
:10361000089739460D9B05F014FB36680E9D284629
:1036200005F04AFE0690284605F046FE0078E5497A
:103630000F461F3F4628079700D1E64F2A46203203
:103640000D9250280991E24C01D12746623F0C9916
:10365000009101942822304611990B9B02F0FAF850
:10366000B8B200900194109802902922304608992F
:10367000069B05F0E6FA0D98807A0028079E00D197
:103680000A960F980468287AC04380070AD1E86830
:10369000002807D02869002802D0CD4E433E01E023
:1036A000C84E1F3E382007900090C8480190062160
:1036B00034227423204602F0CDF811942F461DAD1C
:1036C0003846294605F0D4F902211AAC384608914B
:1036D000224605F08BF8B0B20090BC480190109ED5
:1036E000029607273522119839462B4605F0A9FA8C
:1036F000B4480090B548019002963F22119839468F
:10370000234605F09EFA532500950595AE4E019689
:1037100024215B220692282711983B4601F0ECFBFE
:103720004D2400940B9401963026119839462A4670
:10373000334601F0E1FB4A270097A3480190119816
:1037400031462246079D2B4601F0D6FB49260096BE
:103750009D4801904024119829463A46234601F09D
:10376000CBFB009798480190482511980794214673
:1037700032462B4601F0C0FB0B9800909248019016
:103780005026119829463A46119F334601F0B4FB62
:10379000059C00948C4801905825384631460B9A78
:1037A0002B4601F0A9FB06980090874801905C2306
:1037B00038462946224601F09FFB0D98807A002862
:1037C00003D10D98C07A01285CD10E98456D8249CD
:1037D000284605F0E6F90446804F2846394605F0AC
:1037E000FBF900280A9E00D12F467D49384604F097
:1037F00071FE002C01D1074600E07A4F384602F0F6
:1038000005FA794D294604F065FE8521C90504F0C5
:10381000A0F805F0CFFC0446384602F00BF9294623
:1038200004F058FE0146714804F08EF805F0C2FC21
:10383000B5B20090019540215B22119F3846234686
:1038400001F05AFB0523009301953E215922384689
:1038500002F000F822E0C04642080000A510000077
:10386000FFFF000054A1000015A500008EA4000079
:10387000B6A4000005A5000000A50000ECA400000F
:10388000692A00004F481F38592280B200920190E7
:103890003A214623384601F02FFB0A9E544D20ACB6
:1038A0000E98214603F028FE204605F0BAFEA91D19
:1038B000414380314808B1B2009144490191109DC3
:1038C000029501B263223846234605F0BAF90F98F3
:1038D00007680C9800903E4E01963E2170223D23D1
:1038E000384611910B9301F0B5FF3446433CA0B22A
:1038F0000090019602954126712212AB384631465E
:1039000005F09FF90F9807680D9D287805F0C6FD12
:103910000A902878002801D12A4C1F3C0C9800906E
:103920002B4D01957C22384611990B9B01F092FF9B
:10393000A0B200900195109802907D223846314641
:103940000A9B05F07EF90F9805680E9C204605F04D
:10395000C9FC0646E0791F2400280CD10D98407858
:10396000401EC1B2032906D80006C00D21490C5AD9
:103970002149085A099014200090019400218C22BA
:103980008023284601F066FF002E079906D03046B6
:1039900005F047FE164941438031490809980090D7
:1039A0000194109C02940898039009B28F22284633
:1039B000334600F0E3FA0E98C0690F9988604C71A5
:1039C00023B0F0BDFFFF0000692A0000A510000031
:1039D0004208000000F8FFFF000070C200007042C3
:1039E00035FA8E3C920A86BF000090410000B64234
:1039F000F4FF010000A4000008A40000F0B583B0AB
:103A00000024002800D198E2002900D195E24A68FC
:103A1000002A00D191E28A68002A00D18DE2CA68AA
:103A2000002A00D189E20A69002A00D185E24A69A8
:103A3000002A00D181E201240027076047608760E7
:103A4000C760076147618761024668C968C268C983
:103A500068C2FC49816106C8083805460846214607
:103A60009047AA68286821469047EA682868214656
:103A700090476A69286805219047EA6828683E46A9
:103A8000394690476A69286814219047EA6828688F
:103A9000214690476A69286896210191904702AFB4
:103AA0003C7005CD00963146083D9047AA682868CD
:103AB000314690472B69286839462246984705CDFC
:103AC0002146083D90476A6928680199904702AEEF
:103AD0001120307005CD009F3946083D9047AA68F7
:103AE0002868394690472B6928683146224698470E
:103AF00005CD2146083D90476A692868782190479E
:103B000002AEB120307005CD3946083D9047AA6815
:103B10002868394690472B692868314622469847DD
:103B2000AA682868214690472B692868C64903225D
:103B30000192984705CD2146083D904702AEB2203C
:103B4000307005CD3946083D9047AA682868394647
:103B500090472B692868314622469847AA6828680A
:103B6000214690472B692868F549019A984705CD69
:103B70002146083D904702AEB320307005CD39464E
:103B8000083D9047AA682868394690472B692868FD
:103B9000314622469847AA682868214690472B69F3
:103BA0002868E8490622984705CD2146083D9047F8
:103BB00002AEB420307005CD3946083D9047AA6862
:103BC0002868394690472B6928683146224698472D
:103BD000AA682868214690472B692868DA49224656
:103BE000984705CD2146083D904702AEC020307071
:103BF00005CD3946083D9047AA6828683946904760
:103C00002B692868314622469847AA6828682146C9
:103C100090472B692868CD49019A984705CD2146E0
:103C2000083D904702AEC120307005CD3946083DB1
:103C30009047AA682868394690472B69286831461A
:103C400022469847AA682868214690472B69286829
:103C5000BF492246984705CD2146083D904702AE10
:103C6000C220307005CD3946083D9047AA682868C3
:103C7000394690472B692868314622469847AA68FA
:103C80002868214690472B692868B2490222019290
:103C9000984705CD2146083D904702AEC3203070BD
:103CA00005CD3946083D9047AA68286839469047AF
:103CB0002B692868314622469847AA682868214619
:103CC00090472B692868A449019A984705CD214659
:103CD000083D904702AEC420307005CD3946083DFE
:103CE0009047AA682868394690472B69286831466A
:103CF00022469847AA682868214690472B69286879
:103D00009649019A984705CD2146083D904702AE55
:103D1000C520307005CD3946083D9047AA6828680F
:103D2000394690472B692868314622469847AA6849
:103D30002868214690472B69286889492246984778
:103D400005CD2146083D904702AE2020307005CDBC
:103D50003946083D9047AA682868394690472B693C
:103D6000286831462246984705CD2146083D9047B0
:103D700002AE3A20307005CD3946083D9047AA681A
:103D80002868394690472B6928683146224698476B
:103D9000AA682868214690472B69286871492246FD
:103DA000984705CD2146083D904702AE3620307039
:103DB00005CD3946083D9047AA682868394690479E
:103DC0002B692868314622469847AA682868214608
:103DD00090472B69286864492246984705CD2146BB
:103DE000083D904702AE2A20307005CD3946083D87
:103DF0009047AA682868394690472B692868314659
:103E000022469847AA682868214690472B69286867
:103E1000564904220192984705CD2146083D904716
:103E200002AE2B20307005CD3946083D9047AA6878
:103E30002868394690472B692868314622469847BA
:103E4000AA6803E08000A00061A200002868214663
:103E500090472B6928684649019A984705CD214625
:103E6000083D904702AEE020307005CD3946083D50
:103E70009047AA682868394690472B6928683146D8
:103E800022469847AA682868214690472B692868E7
:103E9000384910220192984705CD2146083D9047A8
:103EA00002AEE120307005CD3946083D9047AA6842
:103EB0002868394690472B6928683146224698473A
:103EC000AA682868214690472B6928682A49019AE0
:103ED000984705CD2146083D904702AE132030702B
:103EE00005CD3946083D9047AA682868394690476D
:103EF0002B69286831462246984705CD2146083D62
:103F000090476A6928680A21904702AE29203070DC
:103F100005CD3946083D9047AA682868394690473C
:103F20002B69286831462246984705CD2146083D31
:103F300090476A69286864219047204603B0F0BD25
:103F400061A20000CBA400002AA5000012A5000079
:103F50002CA5000022A5000024A5000026A5000035
:103F60002BA500002DA50000079F00001CA300004A
:103F70000AA5000020A4000010A40000F0B5F9B0CC
:103F80000D911990002800D172E21C46002B00D13F
:103F90006EE281981B90C01EC0B240087F2800D2FC
:103FA00066E215467F9824901B98C106062242437C
:103FB0000692072242430592401EC3B2AB222393CE
:103FC0005A43530A03225343C01A401CC3B21F93DF
:103FD000032B00D10020809B1C937E9B1E9301230A
:103FE0001693090E0C91069B591E04910599491EC2
:103FF00003912499090A1D91D9B20E911B9E311A81
:1040000073061B0E0A937243D2B20992B206120EC5
:10401000089205220B927243D2B20792C0B220904E
:10402000CEB20D9817900AE0199905C916999047D4
:10403000149D0E981799091817910F9C641C2078ED
:104040000A2800D1E3E00D28F8D0002800D10FE2C3
:1040500001467F395E22D243914200D23F200B9924
:104060004843EB490818A038229028B218901C98B1
:1040700000280F9400D1D0E028461799084300B2D9
:10408000002800D5C9E0179801B206984018199A7F
:10409000128B904200DDC0E00598189A8018199A9A
:1040A000528B904200DDB8E00498179A8018039A6A
:1040B000521912B2009203B21998189A02F05CFFDA
:1040C000002800D1A9E0149500273846189704E08D
:1040D0001598401C072800D18BE116991590814056
:1040E0002191189A05E01A9A521CD0B21B99884265
:1040F000EED21A92189807E025AAD418D1543F1D81
:104100006570C01C0628EED02299095C219A0A42EB
:10411000249900D01E990D0A239A022A10D3002355
:1041200025ACE219E55551709570D1701571BF1D20
:104130005171DB1CDAB2B242F2D11F9A032A0ED0BF
:1041400025AAD419D555BB1C6170209A012A01D12A
:104150001F4604E025AAD418D5543F1D617022994A
:1041600009184978219A0A42249900D01E990D0A0B
:10417000239A022A10D3002325AAD419D555617099
:10418000A570E1702571BF1D6171DB1CDAB2B2420E
:10419000F2D11F9A032A0ED025AAD419D555BB1CDB
:1041A0006170209A012A01D11F4604E025AAD41883
:1041B000D5543F1D6170831C052B249D1D9907D08C
:1041C0002299C95C219A0A42249D00D01E9D290A89
:1041D000239A022A10D3002325AAD419D155657039
:1041E000A170E5702171BF1D6571DB1CDAB2B242AE
:1041F000F2D11F9A032A84D025AAD419D155BB1C09
:104200006570209A012A00D076E71F4679E70C985E
:104210002D180D981790641C11E71B98281800B2F0
:1042200015900A98281800B214900998281800B21E
:1042300013900898281800B212900798281800B216
:1042400011900E98281800B2109000271A973C463B
:104250000FE01B9B0093019019982199109A01F08F
:10426000F9FA7F1C1B981A9909181A91062F00D188
:10427000DFE6052F204603D02298C05D169908403E
:1042800017991A9A891809B221911C99002905D108
:10429000002803D1052F0FD1002012E000281E981E
:1042A00000D124981B9B0093019019982199189A8A
:1042B00001F0D0FA052FEFD02298C05D0221014015
:1042C00048081C99002905D1002803D1052F0FD1DA
:1042D000002012E000281E9800D124981B9B009318
:1042E000019019982199159A01F0B4FA052FEFD091
:1042F0002298C05D0421014088081C99002905D13D
:10430000002803D1052F0FD1002012E000281E98AD
:1043100000D124981B9B0093019019982199149A1D
:1043200001F098FA052FEFD02298C05D08210140D6
:10433000C8081C99002905D1002803D1052F0FD1E9
:10434000002012E000281E9800D124981B9B0093A7
:10435000019019982199139A01F07CFA052FEFD05A
:104360002298C05D1021014008091C99002905D13F
:10437000002803D1052F0FD1002012E000281E983D
:1043800000D124981B9B0093019019982199129AAF
:1043900001F060FA052FEFD02298C05D2021014086
:1043A00048091C99002905D1002803D1052F0FD1F8
:1043B000002012E000281E9800D124981B9B009337
:1043C000019019982199119A01F044FA052FEFD024
:1043D0002298C05D4021014088091C99002902D122
:1043E000002800D13DE700281E9800D031E724982E
:1043F0002FE7199C05CC0021083C9047A268206853
:1044000016999047002F00D10EE625AC0DE0C0466E
:104410002C9D0000E419199803690068214617468D
:104420009847E419EF1B00D1FEE5802F3D4600D3ED
:10443000802519980369006821462A469847812FEC
:1044400000D2F1E528467D1B802D2F4600D3802722
:10445000241819980369006821463A469847812D27
:1044600000D2E1E5ED1B802D2A46D3D38022D1E78F
:1044700079B0F0BDF0B591B0002800D12BE1016812
:104480009B4A914200D028E1818801252A0291426D
:1044900000D024E1C188E1229200914200D020E1C5
:1044A000017A4A1FD2B20527FD2A00D21AE1467AC4
:1044B0000022002E0DD0344623062C40A2185C0E9C
:1044C00007D02C40A2189C0E03D02C40A218DC0E62
:1044D000F2D1D2B28A4200D004E1072269210292CD
:1044E000D201C9008218009241180191034610338D
:1044F00001463031079101464031099100220B906D
:1045000006950397049305963146D140C90710D00C
:104510001646D2001C469B58E9078B43EC4FBB4222
:1045200000DDE2E0A21852688A43BA42324600DD5A
:10453000DBE0702108925143079B5A18595C06270B
:1045400003294DD002292DD0012900D0CAE050689E
:10455000E9078843DE4B984200DDC3E090680346DC
:104560008B4359425941421E0024DB4EB2422A4637
:1045700000D32246002800DA2546D84E9B191B0E90
:104580007F2B069B00D3234611432B400B43012B6B
:1045900000D0A7E0D24904F00DFB01460B9800299A
:1045A00013D19FE053680121C9078B43C84CA34234
:1045B00000DD97E093688B43A342C54B00DD91E09B
:1045C000D2688A439A4200DD8CE0089A521C09990D
:1045D00070310991042A069D059E049B94D189E0BF
:1045E000507801460D390A23DB4399427AD3146986
:1045F0000121CB079C43B64DAC4273DC146C2646BC
:104600009E43B44AB3185A425A4100231093002CD7
:104610000B4600D4109B741EAF4DAC420D4600D328
:10462000109D0C97FF24E4050A94A6420C4600DC7A
:10463000109CAA4FF619360E7F2E00D310991D40FC
:1046400015432543194029430C9F4BD1451E099E14
:1046500070680123D90702468A439D4CA24241DC7F
:104660000E95756B2C468C439A4961184A424A4113
:10467000002110910D95002D1D4600D4109D611E46
:10468000954FB942194600D310990A9FBC421F4664
:1046900000DC109F0F97914FE419240E7F2C00D35C
:1046A000109B294011430F9A11432B400B430C9F41
:1046B00018D1316804F07EFA002813D1316B0D98BF
:1046C00004F06FFA00280E9D0CD16D1E361D002DD2
:1046D0000B98BDD179E7012704E0022702E0032708
:1046E00000E00427F8B211B0F0BD039FFAE7C0461E
:1046F0005542573103F0F2F9002800D1E6E0019865
:1047000000680121CA07034693435A425A41451E95
:104710000024714EB5420E4600D3264600280D46B1
:1047200000DA254632436D4E9B191B0E7F2B00D3BA
:10473000214629400A43012A00D0C7E0694904F014
:1047400039FA002800D1C1E0019840680121CA0768
:10475000034693435A425A41451E00245E4EB542D9
:104760000E4600D3264600280D4600DA2546324381
:104770005A4E9B191B0E7F2B00D3214629400A431A
:10478000012A00D0A2E0574904F014FA002800D111
:104790009CE0019884680125E80721468143FF20B9
:1047A000C605B14200DB00254E49204604F002FA5E
:1047B000002800D18AE04C49204604F004FA002881
:1047C00000D183E0002D00D180E00198C46801256C
:1047D000E80721468143B14200DB002541492046DC
:1047E00004F0E8F9002871D03F49204604F0EBF9C5
:1047F00000286BD0002D69D0019804690125E807D5
:1048000021468143B14200DB00253649204604F0B1
:10481000D1F900285AD03449204604F0D4F90028B0
:1048200054D0002D52D0019844690125E807214653
:104830008143B14200DB00252949204604F0BAF942
:10484000002843D02849204604F0BDF900283DD077
:10485000002D3BD0019885690127F807294681433F
:10486000B14200DB00272149284604F0A3F90028C3
:104870002CD07F20C4052846214604F0A4F9002846
:1048800024D0002F22D00198C5690127F8072946B6
:104890008143B14200DB00271449284604F08AF91D
:1048A000002813D02846214604F08DF900280DD0A9
:1048B000002F029F0B9800D114E700990C68FEF7B7
:1048C0009BFA271A00D10DE708270BE7029F09E79B
:1048D000FFFF7F7F00008080FFFF7F00000080FFE0
:1048E00000002041286B6E4E6F12833A00409C45B9
:1048F000F0B5E3B008920A910C90002800D1A3E132
:1049000018467F385E21C943884200D23F236A9807
:104910000E90699C68980D9005205843CB490D185E
:104920002846A038099008980A99084300D5C9E09C
:104930000E98002800D1C5E00A98401D0C99098BFB
:10494000884200DBBEE00899891D0C9A528B914287
:1049500000DBB7E009B2009103B20C980A99089AFB
:1049600002F00AFB002800D1ACE0200A0790099869
:1049700000780E9028469F3800780B9028469E3885
:1049800000780A9028469D38007809909C3D287848
:104990000890002637460AE00A0A2023C254212242
:1049A000815422214554243723214454F61C0120EC
:1049B000B0400E9908422546224600D00D9A130AAF
:1049C0000FACE119E3554A700B9A10422C462A4667
:1049D00000D00D9A130A8B70CA700A9A10422246B0
:1049E000079D00D00D9A130A0B714A71099A104263
:1049F000224600D00D9A130A8B71CA71089A104290
:104A0000204600D00D98020A0A7248728D72CC724C
:104A1000482F00D106E10221B1400E980142224602
:104A200000D00D9A130A0FA8C019037342730B9A92
:104A30001142224600D00D9A130A8373C2730A9A58
:104A40001142224600D00D9A130A03744274099A47
:104A50001142224600D00D9A130A8374C274089A38
:104A60001142214600D00D990A0A027541758575DB
:104A7000C4750421B1400E9A1142224600D00D9A0D
:104A8000130A037642760B9A1142224600D00D9A01
:104A9000130A8376C2760A9A1142224600D00D9AF2
:104AA000130A03774277099A1142224600D00D9AE1
:104AB000130A8377C277089A1142214600D16BE727
:104AC0000D9969E70B940899481C00B20790881C5F
:104AD00000B20690C81C00B20590081D00B20490F8
:104AE000481D00B20390881D00B2029000260AE023
:104AF000009701900C982946029A3B4600F0AAFEC6
:104B0000761C052E7DD00998845D0A98801905B21F
:104B100001272046384002D10E9900290BD00028E9
:104B20000D9800D10B98009701900C982946089A8F
:104B30003B4600F08FFE0220204002D10E99002952
:104B40000BD000280D9800D10B98009701900C987D
:104B50002946079A3B4600F07DFE0420204002D102
:104B60000E9900290BD000280D9800D10B980097C2
:104B700001900C982946069A3B4600F06BFE0820EF
:104B8000204002D10E9900290BD000280D9800D1A9
:104B90000B98009701900C982946059A3B4600F027
:104BA00059FE1020204002D10E9900290BD0002878
:104BB0000D9800D10B98009701900C982946049A03
:104BC0003B4600F047FE2020204002D10E990029EC
:104BD0000BD000280D9800D10B98009701900C98ED
:104BE0002946039A3B4600F035FE4020044002D19E
:104BF0000E98002884D0002C0D9800D078E70B98F0
:104C000076E70E9800281FD00A98401D07210091D2
:104C10000B99019101B201230C98089A00F01AFE39
:104C200063B0F0BD0C9C05CC0021083C9047A26805
:104C30002068012529469047236920680FA954223E
:104C4000984705CC2946904763B0F0BD2C9D0000E5
:104C5000F0B585B0A34EA44C012257061305A44D10
:104C600020681F21090688432060049292040020D6
:104C70000393194604F004FC99489C4901604224BE
:104C80003068384200D083E0284604F0EBFC3068FE
:104C900038427DD1284604F0E5FC3068384277D1AF
:104CA000284604F0DFFC3068384271D1284604F011
:104CB000D9FC306838426BD1284604F0D3FC306808
:104CC000384265D1284604F0CDFC306838425FD1C7
:104CD000284604F0C7FC3068384259D1284604F011
:104CE000C1FC3068384253D1284604F0BBFC306820
:104CF00038424DD1284604F0B5FC3068384247D1DF
:104D0000284604F0AFFC3068384241D1284604F010
:104D1000A9FC306838423BD1284604F0A3FC306837
:104D2000384235D1284604F09DFC306838422FD1F6
:104D3000284604F097FC3068384229D1284604F010
:104D400091FC3068384223D1284604F08BFC30684F
:104D500038421DD1284604F085FC3068384217D10E
:104D6000284604F07FFC3068384211D1284604F010
:104D700079FC306838420BD1284604F073FC306867
:104D8000384205D1284604F06DFC163C00D077E788
:104D900055488069029004984204002001900399CC
:104DA00004F06EFB4E48514901604224306838429D
:104DB00000D083E0284604F055FC306838427DD1AD
:104DC000284604F04FFC3068384277D1284604F07A
:104DD00049FC3068384271D1284604F043FC306801
:104DE00038426BD1284604F03DFC3068384265D12A
:104DF000284604F037FC306838425FD1284604F07A
:104E000031FC3068384259D1284604F02BFC306818
:104E1000384253D1284604F025FC306838424DD141
:104E2000284604F01FFC3068384247D1284604F079
:104E300019FC3068384241D1284604F013FC306830
:104E400038423BD1284604F00DFC3068384235D159
:104E5000284604F007FC306838422FD1284604F079
:104E600001FC3068384229D1284604F0FBFB306849
:104E7000384223D1284604F0F5FB306838421DD172
:104E8000284604F0EFFB3068384217D1284604F07A
:104E9000E9FB3068384211D1284604F0E3FB306862
:104EA00038420BD1284604F0DDFB3068384205D18A
:104EB000284604F0D7FB163C00D077E70A48816902
:104EC000173502984543284604F09CF809494018D4
:104ED0000B2801D301980490049805B0F0BDC0469A
:104EE0002C030B4004020B4038010B400100000E64
:104EF000D103000035F8FFFFF0B58BB00A910490A4
:104F0000002800D13DE11546002202210A987F28A1
:104F10000C4600D8144601200A9E002E064600D4F6
:104F200026462C469F2D03D83546002C04D404E099
:104F300035460835002C00D5351D7F2B00D811468D
:104F4000109E002B00D4084602469F2E00D908323E
:104F5000002E00D5021D11462943484248412A42ED
:104F6000099600D092E0002900D18FE02806104673
:104F700000D02846C6B240070893059407920696CB
:104F800017D4300726D40998001B0A995F1AB10775
:104F900034D4FE17C1170A9A5242D31704F01CFAF0
:104FA0003A46334604F0DEFA241800267F2E23D931
:104FB00034E00A9FD81BC1176242D31704F00CFAE1
:104FC000099A121BD31704F0CDFA3E1800247F2E45
:104FD00012D923E00A98181AC11727469F24E21B0A
:104FE000D31704F0F9F9099AD21BD31704F0BAFACF
:104FF0000A990E187F2E11D8002110E0F91703919D
:10500000C1177F260A9AB21AD31704F0E5F93A4677
:10501000039B04F0A7FA24187F2EEDD90221079AEA
:10502000002E00D5012108469F2C00D90830002C05
:1050300000D5081DE9B2069B8B4237461DD121469B
:105040001ED11FD1099E00D0264609960E46014664
:1050500000D0294600D00246CBB21546D4B2224633
:105060001A43504250411C42089B11D1002A0A9712
:1050700034462A460D460BD078E70A9F2146E0D0F9
:105080000599DFD00896099EDED1DEE70A9F264605
:105090000A960893002874D03B4611980790099A05
:1050A0000A9F974211D1089AD11A981A934200DBAD
:1050B00013461A4600DC0846401C0121009107995E
:1050C000019103B211B23AB211E0089C9C4213D193
:1050D000D11BB81A974200DB174600DC0846401C7B
:1050E00000B20090079801903AB219B201230498D7
:1050F00000F0B0FB0BB0F0BDE11ACA175140002020
:10510000C0431D4601230395AC42069300DC069084
:105110008E1A099A3C46BF1A111BA24200DC0F46A8
:10512000059300DC0590BC19009307980190039D3E
:1051300029B20A9802B2049800F08CFB600006992C
:105140006A18E119874200DC154600DC0C460A9912
:10515000059A8A18A119864200DB0A9200DB0C46E8
:10516000012300930799019129B20A9802B2049889
:1051700000F070FB08988542E0D109980A998142B5
:10518000DCD10BB0F0BDFEE7F0B58BB00B460746A7
:10519000CB2000010490C5243E46603698483D1857
:1051A0002846114607931A4601F03BFA284604F0B8
:1051B00071FA0690B86DFFF75DF960217854F96DCA
:1051C000002905D0084600F007FE0146307800E0CF
:1051D000002122010292824ABA180592824ABC1822
:1051E000824ABA180392049ABD1804967170084353
:1051F0003DD1384600F00EF9002838D07B208000E1
:1052000038182E4608363946079A334601F07CFB9B
:1052100000970798019008A829463246069B01F09E
:10522000BBFA0898704978500A9820810998606004
:10523000287A01282BD103980078012827D06C48C0
:10524000381803680125E9078B436F4A93421EDC37
:105250008068884390421ADC6A4839180D200002A1
:105260003818482204F01EFA059805700FE06548CA
:105270003818482104F035F900205B497850208126
:1052800060600420287060700120E07160725548F1
:105290003D1802983E1820460C30702104F021F988
:1052A000398C0F2002918143069A1143A181227407
:1052B000059A117801291FD1039908580799081AEE
:1052C0005249884202D3E078012815D10D2000020E
:1052D00039184F483818482204F0E4F90720039998
:1052E000085AE081487A60740121A1740699401A35
:1052F00041424141A97301E0002010700020207557
:105300003178012911D11520C00139180A780020FF
:10531000012A0AD1C868079A121A00203B4B9A4208
:1053200003D2012020758968A1617178012910D10B
:1053300032497A18117801290BD1D168079B591A83
:10534000324B994205D20121801C20759268E2619E
:1053500000E00146B278012A12D1274ABA18137820
:10536000012B0DD10591D3680799CB1A27498B42A0
:1053700005D20121001D207592682A6000E0059980
:10538000F278012A11D11B4ABA181378012B0CD1DB
:10539000D3680E460799CB1A1C498B42314604D27A
:1053A000083020759068686001E000290AD00298F2
:1053B000E08101206074A0740699491E4A424A4166
:1053C000AA7360710798A860207828736078687362
:1053D00004990878E873487828740BB0F0BDC0468B
:1053E000C40D0000680D0000480D0000FD0C000019
:1053F000DC0C0000DC0B0000680B0000F40A00006D
:105400009C0C0000B80C0000FFFF7F7FB90B000070
:105410007C0D0000F0B587B001460020002900D1C6
:1054200006E10D4622352C78621F0223DB439A42A7
:1054300000D2FDE005940695AA78002A00D1F7E095
:105440008D6A0122D0072B4683437B4818184742B8
:1054500047410020002D154600D405465E1E774CBE
:10546000A642164600D306462E403E43FF24E405DE
:10547000A342174600DC07463E43714FDB191B0E63
:105480007F2B00D302462A40164300D0D0E04D6B5C
:105490000126F2072B4693436A4CA34200DDC7E086
:1054A0008B6B04939343A34200DDC1E0CB6A02936C
:1054B0009343A34200DDBBE00191096B009191434E
:1054C0000020A14200DC064603902846039903F021
:1054D00068FB04460498294603F063FB0546254310
:1054E000029C2046049903F05CFB28430546009883
:1054F000214603F056FB0146039829434A1E914179
:105500003143019900D093E0CA6B00200123002AA7
:105510001D4600D40546DC071646A643F419240EA2
:105520007E2C1E4600D806462E43541E464A944200
:1055300000D8034633427BD10D6C00200123002D9F
:105540001E4600D40646DC072F46A7433C4C3C19B8
:10555000240E7E2C1F4600D8074637436C1E94420B
:1055600000D803463B4263D14D6C00200123002D3F
:105570001E4600D40646DC072F46A743304C3C1994
:10558000240E7E2C1F4600D8074637436C1E9442DB
:1055900000D803463B424BD18A6C002A294E47D0A3
:1055A00006984378D8070CD10022980715D45807DD
:1055B00021D418072DD40598111A4842484107B044
:1055C000F0BD0D680122D407A5430020B5422FDCB1
:1055D0004D68A543B542E8DD2AE08D680120C40787
:1055E000A5430020B54223DCCD68A543B5421FDCAE
:1055F000521C5807DDD50D690120C407A5430020C2
:10560000B54215DC4969A143B14211DC521C1807AF
:10561000D1D5019883690120C1078B430020094C33
:10562000A34205DC019BDB698B4306498B4201DD0C
:1056300007B0F0BD521CBEE700008080FFFF7F0076
:10564000000080FFFFFF7F7FFEFF7F0070B5804E70
:10565000B544012403F036FD01F00CFD04A80294CA
:10566000214602F0FBFB11E003F00EFE024604AC03
:1056700020462946FFF788FD204603F0E7FF03F0A8
:1056800029F9204603F0DCFF03F0CAFE03F0E4FF33
:105690000546002003A900F02FFE0646002829D069
:1056A00003AF3A7804A8002421462B4603F09EFD60
:1056B0002046394600F020FE00281BD003AC22789B
:1056C00004A8002739462B4603F090FD38462146B2
:1056D00000F012FE00280DD003AC227804A80027A9
:1056E00039462B4603F082FD3846214600F004FE81
:1056F0000028D5D1012003A900F0FEFD00282AD002
:1057000003AC227804A8012631462B4603F06EFD37
:105710003046214600F0F0FD00281BD003AC227873
:1057200004A8012631462B4603F060FD3046214691
:1057300000F0E2FD00280DD003AC227804A8012679
:1057400031462B4603F052FD3046214600F0D4FD91
:105750000028D5D1029E022003A900F0CDFD00282B
:105760002AD003AC227804A8022631462B4603F047
:105770003DFD3046214600F0BFFD00281BD003ACA4
:10578000227804A8022631462B4603F02FFD30462E
:10579000214600F0B1FD00280DD003AC227804A80A
:1057A000022631462B4603F021FD3046214600F00B
:1057B000A3FD0028D5D1029E032003A900F09CFD83
:1057C00000282CD003AC227804A8032631462B46AF
:1057D00003F00CFD3046214600F08EFD002800D17C
:1057E00042E703AC227804A8032631462B4603F097
:1057F000FDFC3046214600F07FFD002800D133E754
:1058000003AC227804A8032631462B4603F0EEFCB5
:105810003046214600F070FD0028D3D124E703F084
:1058200033FD024604AC20462946FFF7ADFC204676
:1058300003F00CFF03F04EF8204603F001FF03F0E5
:10584000EFFD002E00D021E703F052FF1EE7C04617
:1058500028F2FFFFF0B5A5B0044605A80490002C7F
:1058600000D1D8E0012B00DAD5E02A98012800DA2F
:10587000D1E001255F18861800230397012F2846E1
:1058800000DB1846012E029500DB1D46284300D0A0
:10589000C1E0238B994200DBBDE0608B824200DBDC
:1058A000B9E0CF17D5170195039D9D4200D303930F
:1058B000B943019B9A43864200D306460398401E93
:1058C0000196731E1BB2009303B220460D46174685
:1058D00001F052FB002800D19DE02B98049E314638
:1058E0006031334640332036020A049505AD2A70F4
:1058F0006870AA70E8702A716871AA71E8712A72DA
:105900006872AA72E8722A736873AA73E8732A74B9
:105910006874AA74E8742A756875AA75E8752A7699
:105920006876AA76E8762A776877AA77E877327079
:105930007070B270F07032717071B271F071327259
:105940007072B272F07232737073B273F073327439
:105950007074B274F07432757075B275F075327619
:105960007076B276F07632777077B277F0771A7019
:1059700058709A70D8701A7158719A71D8711A72D9
:1059800058729A72D8721A7358739A73D8731A74B9
:1059900058749A74D8741A7558759A75D8751A7699
:1059A00058769A76D8761A7758779A77D8770A7091
:1059B00048708A70C8700A7148718A71C8710A7219
:1059C00048728A72C8720A7348738A73C8730A74F9
:1059D00048748A74C8740A7548758A75C8750A76D9
:1059E00048768A76C8760A7748778A77C8770398A0
:1059F0000499401A0199CD1B454305CC0021083C70
:105A00009047A2682068029F39469047002D0BD12D
:105A100005CC3946904725B0F0BD23692068720057
:105A200005A99847AD1BF3D0402D2E46F5D340264F
:105A3000F3E77047F0B589B004460120C607274652
:105A4000B7435D4887420AD8204603F0B3FBF90DFF
:105A5000722912D8002810D17F20C005A9E057482C
:105A600087420DD86548874218D303F039FE0246B5
:105A70000B46002C23DC644922E003F031FE8BE06E
:105A80004F48874213D8574887421DD303F028FE5A
:105A900002460B46002C55DC564954E003F020FE2C
:105AA00005460E46012C46DB534855497BE0FD0D6B
:105AB000FF2D12D32046214601F046FF79E05149DF
:105AC0004D4800F0EAFC63E003F00AFE05460E468E
:105AD000012C66DB444A454B2FE03A48874236D8D2
