:100000000080202011AB0000137A0000137A00005A
:1000100000000000000000000000000000000000E0
:10002000000000000000000000000000137A000043
:100030000000000000000000137A0000BDA90000CD
:10004000137A0000137A0000137A000079A00000F0
:10005000137A0000137A0000137A0000137A00006C
:1000600000000000137A0000137A00000000000076
:100070000000000021A10000C99E0000137A0000CA
:10008000137A0000137A0000137A0000137A00003C
:10009000137A0000137A0000000000000000000046
:1000A000137A0000137A0000000000000000000036
:1000B000137A000000000000137A0000137A000099
:1000C000F0B59DB007460020002F01D100F094FE4E
:1000D0007B6A002B01D100F08FFEBC7A220604D08F
:1000E000B96A002901D100F087FE1C931892FB4DDC
:1000F000FB4EF8881A90386A1990F869010E17912A
:10010000010CC9B21691010AC9B21591C0B214907E
:10011000B869010E1391010CC9B21291010AC9B25A
:100120001191C0B210907869010E0F91010CC9B203
:100130000E91010AC9B20D91C0B20C903869010E3E
:100140000B91010CC9B20A91010AC9B20991C0B25E
:100150000890F868010E0791010CC9B20691010AD6
:10016000C9B20591C0B204903868C343010E029130
:10017000010CC9B20191000AC2B2FF20C04318436A
:1001800003941C07E4172C405D07ED1735406540CC
:10019000DC06E617D3490E406E409C06E417D249B0
:1001A0000C4074400121450808404042CF4E304089
:1001B000684045089B07DB1733406B409D0965404D
:1001C0008006C017CA4C204068409B06DB173340AE
:1001D000434053401807C017C04A10405A07D2176F
:1001E000BF4C22404240D806C417BE480440544089
:1001F0009806C017BC4D284060401A460A400D467C
:10020000524232405C08544062089B07DB1733407F
:1002100053409A094240A006C017B54908405040D3
:100220009A06D21732404240019842401007C01748
:10023000AA4C20405107C917A94B19404140D0068C
:10024000C317A84803404B409006C017A649084072
:100250005840114629404942314053084B40590803
:100260009207D21732404A40910941409806C01780
:100270009F4B184048409106C917314041400298B1
:1002800041400807C01720404A07D217944B1A4034
:100290004240C806C3179348034053408806C0171E
:1002A000914C204058400A462A40524232404B0866
:1002B00053405A088907C917314051408A094240C2
:1002C0009806C3178A48034053408806C017304039
:1002D0005840B98808F030FA1A9908F02DFA397A9E
:1002E00041404807C0177E4A10407A7A42400807CA
:1002F000C0177A4B18405040CA06D217794B1A40A3
:1003000042408806C31723405340084628404042D5
:1003100030404A08424050088907C91731404140DF
:10032000880958404307DC176D4B1C40039BDBB228
:1003300002935C400307DB17684E3340634092062C
:10034000D2176B4C22408906C917684E3140514084
:100350004140CA06D217634C22405A408B06DB1735
:10036000614C2340534082072840404230404908B6
:1003700041404808D2173240424090095840430754
:10038000DB17574C23400397FC7A37465C40030742
:10039000DB17524E334063408906CC1754490C405A
:1003A0009106C917394061404140CA06D4174D4AE9
:1003B00014405C408A06D2174B4B1A4062408307B8
:1003C000284040423840490841404808DB173B403C
:1003D0004340980950400207D41734404207D217CF
:1003E0003F4E324062408906CC17414E3440990658
:1003F000C917394061404140CB06DB17394C2340D7
:1004000053408A06D217384C22405A40830728406E
:1004100040423840490841404808DB173B404340D0
:10042000980950408906C917314041409806C017C5
:1004300038404840049948400107C917274E3140C9
:100440004207D217264B1A404A40C106CB1725490E
:100450000B4053408106C9172140594002462A40AB
:1004600052423A40430853405A088007C017384068
:10047000504082094A409906C9171D4B1940514006
:100480008006C01738404840059948400107C91701
:10049000314034464207D217114B1A404A40C10638
:1004A000CB1710490B4053408106C9170E4A114023
:1004B000594002462A4052423A40430853405A08A3
:1004C0008007C0173840504082094A409906C91732
:1004D000074E314051408006C0170BE03288DB0EDA
:1004E00019C46D076410B71DC8206E3B2083B8ED9A
:1004F0009041DC7638404840069948400107C917CA
:1005000021404207D217FC4B1A404A40C106CB1784
:10051000FA490B4053408106C917F94A1140594026
:1005200002462A4052423A40430853405A08800744
:10053000C0173840504082094A409906C9173140D7
:1005400051408006C017384048400799484001078D
:10055000C917214026464207D217E74B1A404A40A6
:10056000C106CB17E5490B4053408106C917E44A41
:100570001140594002462A4052423A4043085340F3
:100580005A088007C0173840504082094A409906EF
:10059000C917DC4C214051408006C0173840484004
:1005A000089948400107C91731404207D217D24E77
:1005B00032404A40C106CB17D0490B405340810618
:1005C000C917CF4A1140594002462A4052423A4088
:1005D000430853405A088007C017384050408209EA
:1005E0004A409906C917214051408006C01738403B
:1005F0004840099948400107C917C34A11404207BA
:10060000D21732404A40C106CB17BC4E334053404C
:100610008106C917BA4C2140594002462A4052422D
:100620003A40430853405A088007C01738405040AA
:1006300082094A409906C917B24B194051408006B9
:10064000C017384048400A9948400107C917AE4AC8
:1006500011404207D217A84B1A404A40C106CB1797
:10066000334053408106C9172140594002462A4071
:1006700052423A40430853405A088007C017384056
:10068000504082094A409906C9179E4B1940514073
:100690008006C017384048400B9948400107C917E9
:1006A000994A11404207D217934B1A401C464A40C0
:1006B000C106CB17334053408106C917904A1140F9
:1006C000594002462A4052423A40430853405A0891
:1006D0008007C0173840504082094A409906C91720
:1006E000884B194051408006C017384048400C994B
:1006F00048400107C917844E31404207D2172240B3
:100700004A40C106CB177D490B4053408106C917AB
:100710007B4A1140594002462A402C4652423A40F8
:10072000430853405A088007C01738405040820998
:100730004A409906C917734B194051408006C017AB
:10074000384048400D9948400107C91731404207D9
:10075000D217694B1A404A40C106CB17674D2B4050
:1007600053408106C917664A11405940024622404B
:1007700052423A40430853405A088007C017384055
:10078000504082094A409906C9175E4B19405140B2
:100790008006C017384048400E9948400107C917E5
:1007A00031404207D217544B1A404A40C106CB177A
:1007B0002B4053408106C917514E314059400246E3
:1007C000224052423A40430853405A088007C0171B
:1007D0003840504082094A409906C917494B194090
:1007E00051408006C017384048400F9948400107E3
:1007F000C917454A11404207D2173F4B1A404A4099
:10080000C106CB172B4053408106C91731405940D0
:100810000246224052423A40430853405A08800759
:10082000C0173840504082094A409906C917354BD5
:10083000194051408006C017384048401099484040
:100840000107C917304A11404207D2172A4B1A40F4
:100850004A40C106CB172B4053408106C91731408F
:1008600059400246224052423A40430853405A08F7
:100870008007C0173840504082094A409906C9177E
:10088000204B194051408006C0173840484011990C
:1008900048400107C9171C4A11404207D217164B9E
:1008A0001A404A40C106CB172B4053408106C91756
:1008B000314059400246224052423A404308534098
:1008C0005A088007C0173840504082094A409906AC
:1008D000C9170C4B194051408006C017384048409A
:1008E000129948400107C917074A11404207D21719
:1008F000014B1A404A4009E019C46D076410B71D46
:10090000C8206E3B9041DC763288DB0EC106CB17E7
:100910002B4053408106C9173140594002462240BE
:1009200052423A40430853405A088007C0173840A3
:10093000504082094A409906C917CC4B1940514092
:100940008006C01738404840139948400107C9172E
:10095000C74A11404207D217C64D2A404A40C10635
:10096000CB17C5490B4053408106C9173140594048
:100970000246224052423A40430853405A088007F8
:10098000C0173840504082094A409906C917B74BF2
:10099000194051408006C0173840484014994840DB
:1009A0000107C917B24A11404207D2172A404A40EC
:1009B000C106CB17B0490B4053408106C9173140DF
:1009C00059400246224052423A40430853405A0896
:1009D0008007C0173840504082094A409906C9171D
:1009E000A24D294051408006C01738404840159913
:1009F00048400107C9179E4A11404207D2179D4B34
:100A00001A404A40C106CB179B490B405340810610
:100A1000C917314059400246224052423A404308E9
:100A200053405A088007C0173840504082094A4056
:100A30009906C917294051408006C01738404840E0
:100A4000169948400107C917F04E31404207D217A6
:100A5000EF4B1A404A40C106CB17EB4D2B40534099
:100A60008106C917E74A11405940024622405242C6
:100A70003A40430853405A088007C0173840504056
:100A800082094A409906C917DD4B1940514080063A
:100A9000C01738404840179948400107C9173140EE
:100AA0004207D217DA4B1A404A40C106CB172B40F7
:100AB00053408106C917D34A11405940024622408B
:100AC0001B9452423A40430853405A088007C017CB
:100AD0003840504082094A409906C917C84B19400E
:100AE00051408006C017384048401999CAB2424068
:100AF0005008114621404B423B4043405808910763
:100B0000CC173C404440A00917905007C617C04876
:100B100006401007C017BD490840D506ED17BA4971
:100B20000D409206D217B7490A409B06DB17B4491D
:100B30000B40A406E4173C407040684050401799B1
:100B40004840584060401999090ACAB242405008CA
:100B500011461B9B19404B423B40434058089107AC
:100B6000CC173C404440A00917905007C617A8482E
:100B700006401007C017A5490840D506ED17A24941
:100B80000D409206D2179F490A409B06DB179C49ED
:100B90000B40A406E4173C40704068405040179951
:100BA0004840584060401999090CCAB24240500868
:100BB00011461B9B19404B423B404340580891074C
:100BC000CC173C404440A00917905007C6179048E6
:100BD00006401007C0178D490840D506ED178A4911
:100BE0000D409206D21787490A409B06DB178449BD
:100BF0000B40A406E4173C407040684050401799F1
:100C000048405840604019990A0E42405008114629
:100C10001B9B19404B423B40434058089107CC175F
:100C20003C404440A00919905007C6177848064038
:100C30001007C01775490840D506ED1772490D40D9
:100C40009206D2176F490A409B06DB176C490B408E
:100C5000A406E4173C407040684050401999484051
:100C600058401A9B6040002B08D17EE09041DC7612
:100C70003288DB0E19C46D076410B71D1C991A93D6
:100C80001C91098807F058FD1C99498807F054FD0C
:100C90001C99898807F050FD1C99C98807F04CFD04
:100CA0001C99097A414048080A461B9B1A40524247
:100CB000524F3A40424050088B07DB173B404340BD
:100CC000980919904807C417514804400807C517E8
:100CD0004E480540C806C6174B4806408806C71749
:100CE000484807409006C017454908409906C9176B
:100CF000424A11401C9A527A62406A4072407A40DD
:100D00003E4F199B5A4041405140480813461B9C96
:100D100023405C423C40444060089307DE173E405D
:100D20004640B3095007C517394805401007C0179A
:100D3000364A1040CA06D217334F3A408906C917BF
:100D4000304F3940A406E4172D4F3C40B606F61745
:100D50002A4F3E4068405040484058401A9B1C99DA
:100D6000604070400A315B1E89D11899002942D039
:100D700005460398806A1C90029F781E032109F0A3
:100D8000F3FA481C00260328344600D004461B9082
:100D9000032F284618D33D1B00261C9F398807F0D7
:100DA000CBFC798807F0C8FCB98807F0C5FCF98846
:100DB00007F0C2FC398907F0BFFC798907F0BCFC59
:100DC000F61C0C37B542E9D11B99032913D0B100A9
:100DD0001C9A5518298807F0AFFC698807F0ACFC0D
:100DE000012C08D0A98807F0A7FCE98807F0A4FC2B
:100DF0000835A41EEED1C0431DB0F0BD2083B8ED70
:100E00009041DC76C8206E3B6410B71D3288DB0E43
:100E100019C46D07F0B5B5B01E4615920C460746CD
:100E200048251846294609F0FFFD002F01D100F0A2
:100E30006FFC119614950920129080013E181394AE
:100E4000204606F01AFD002807D02F2000013D188B
:100E5000286804F031FD00280AD000203070149971
:100E6000705417204001381809F0B8FD35B0F0BDB6
:100E70006868002803D006F07DFA0028EDD10E97AF
:100E80000A9523201399095C0020CA0703D1149DF9
:100E90000E9B374616E00E9B1A78002A374610D074
:100EA0001A79002A149D0DD0DA68002A0AD0139806
:100EB000C06C1A691F46159B9A1A82424CD8381D7D
:100EC0004BE0149D8A0701D4119E16E01A46903219
:100ED0001378002B119E0FD01379002B0CD0D36800
:100EE000002B09D00797139BDB6C1569159F7D1BA1
:100EF0009D4234D9079F149D0E9B4A0715D5129A1F
:100F000052019A181378002B0ED01379002B0BD0B6
:100F1000D368002B08D0139BDB6C12931469159BCC
:100F20001C1B129B9C4221D90E9B090727D51B2114
:100F3000090159180A78002A21D00A79002A1ED0FE
:100F4000CA68002A1BD0139AD26C0B69159CE31A4D
:100F5000934210D90E9B12E000203B4699E70028EF
:100F6000079F149D0E9BC8D1101DC6E700280E9B3D
:100F7000DBD1101DD9E700280E9B00D1081D344697
:100F80004434397800280DD03D460027012200293D
:100F900016D0A8881399098C8842384611D1E86A7E
:100FA00000220EE0002907D0F8681599081A139955
:100FB000096D884200D84BE2002038707855B6E1C0
:100FC00038460392049006940795139A23323E46BE
:100FD0000C970B9205E00E9B0B9A7F1C042F00D1FF
:100FE00090E1107801252C46BC400442F5D09020B9
:100FF0007843191808780028EFD008790028ECD039
:101000000D94CC68002CE8D01398C06C0A69159B2D
:101010009A1A8242DFD809968C20085C02061FD0FB
:101020007831C4B2A20030A809F02EFD0894012C3A
:1010300011D00898841E0321204609F095F9481C18
:101040000328059000D100201090022C33D205987F
:10105000032800D0DCE008984008800030A90C5834
:101060000A980668204609F063FB0246F9B216ABFF
:10107000304609F0CFFB002800D1F5E10C98C0B252
:101080001290C10028AA5318FD00139846197668DB
:10109000455955505E601298810020AA5450169A06
:1010A00024AB5A501FA90F54099E0D9806430C9863
:1010B000401C0C908FE71098C043089940180F907F
:1010C0000021012509E00846800030A90C50ED1CE4
:1010D0001299C91C0F988142B9D01291A80030A969
:1010E0000C582A462E46900030A94118091F0B685B
:1010F000A342114623D930A90B50701EC1B2002063
:1011000000291BD08A0030ABD3181B1F1B68A342D9
:1011100015D930A98B50B11EC9B200290ED08A0052
:1011200030ABD3181B1F1B68A34208D930A98B50C2
:10113000F61EF2B2002A0146D5D100E00146880031
:1011400030A90C506E1CB0000C583246B10030A8CB
:101150000818001F0368A342304623D930A8435023
:10116000501EC0B2002100281BD0860030ABF318FF
:101170001B1F1B68A34215D930A88351901EC0B213
:1011800000280ED0860030ABF3181B1F1B68A3424B
:1011900008D930A88351D21ED6B2002E0846D5D128
:1011A00000E00846800030A90C50AA1C90000C58A2
:1011B0001646910030A80818001F0368A342104685
:1011C00082D930A84350701EC0B20021002800D13F
:1011D00079E7820030ABD3181B1F1B68A34200D8ED
:1011E00072E730A88350B01EC0B2002800D16AE771
:1011F000820030ABD3181B1F1B68A34200D863E7E3
:1012000030A88350F61EF2B2002A0846D1D15BE71F
:10121000002012900BE02046800030A90A50AD1C3F
:101220001299891C10981291814200D113E7A800ED
:1012300030A90A582E462B46B40030A82018001FAB
:1012400001689142304623D930A80151581EC0B2DE
:10125000002400281BD0860030A97118091F0968D6
:10126000914215D930A88151981EC0B200280ED0E5
:10127000860030A97118091F0968914208D930A861
:101280008151DB1EDEB2002E2046D5D100E0204683
:10129000800030A90A500120129908431099884211
:1012A00000D1D8E66E1CB00030A90A583346B4000D
:1012B00030A82018001F016891423046ACD930A8F0
:1012C0000151581EC0B200240028A4D0860030A9C5
:1012D0007118091F096891429ED930A88151981E42
:1012E000C0B2002897D0860030A97118091F09687C
:1012F000914291D930A88151DB1EDEB2002E2046EA
:10130000D5D189E70C98C0B2079D297812900128A1
:1013100011D80029119C139A09D0108CA9888842F1
:1013200005D1E8681599081A116D884216D9172059
:101330004001181898E50029119C139F1DD0A8881A
:101340003A8C904219D10A98007A002815D00A9850
:10135000C068159A101ABA6C90420ED248222046E4
:10136000294609F091FBE671002020720C9860720A
:1013700001200699487035B0F0BD01240A9B1C720B
:101380001598D8601FA8129A022A7AD10278002AEA
:1013900077D14078012874D15868002871D0109412
:1013A0000996209A01263404A24269D2219BA342C5
:1013B000109C66D291B29AB216AB00F0F7FD0028ED
:1013C0005CD0172040010E990818398C0F230A466B
:1013D00012931A40179B06F06BFFB96A07F049FC9D
:1013E000044616A840780028049802D0189807F000
:1013F000C5FDC94908F008FA054605F0D7FE0146C3
:10140000204608F001FA07461B901095284605F083
:10141000FFFC01461494204608F0F6F903461C90A0
:1014200016A8817807984830002900D138E10A9938
:1014300009686922D20089181BAA159D009501929E
:101440003A4601F085F91B980F901C980E902CE1FC
:1014500048223046394609F017FB0020F0713081F0
:101460000120607035B0F0BD002007990870149A13
:101470008854172040010E990818F5E4297800E0F7
:10148000109C002907D0A888398C884203D129698B
:1014900068691D9105E000201D90B86AF96A07F09F
:1014A000E8FB1E90386C30A90090019128A824A96F
:1014B0001DAB129A03F04CFB002800D128E130A8A4
:1014C000417C1091807C0F9000263046314606E02A
:1014D00010433943761C129AB2421C4611D01FAAFF
:1014E000925D2746974023462546B5402C46109AE4
:1014F00014403A4600D122460F9C2540E8D12F46A1
:10150000E6E7119F3C7030AA137C0025022B00D81F
:101510002C467C70BD701295139E348CBC800F25B8
:101520002540BD71F87139727B72319D329C1598DE
:10153000F8603D617C6133983864D17C069A117003
:10154000316C08F073FA7F21CE05314607F091FB2C
:1015500001463046129E08F069FA386378632046E7
:10156000214608F051F904462846294608F04CF96E
:10157000214607F07EFB07F0ADFE1399896A07F05C
:1015800073FB0446314608F01BFC002800D12646B8
:101590003299319806F008FD5E4908F035F90546A4
:1015A0000A9800683B46383339463C310091314651
:1015B0002A4605F02FF900284CD0B96B304607F0C9
:1015C00058FB07460024214608F0FAFB002800D10A
:1015D0003C46119FF96B284607F04BFB07F0CEFC09
:1015E00006461398816A204607F043FB0546787843
:1015F000411E88410399014302D10120B870049E25
:101600004549304608F000F9064605F0CFFD014691
:10161000284608F0F9F804461B90304605F0F8FB20
:101620000146284608F0F0F803461C9079780798A0
:101630004830002919D00A9909686922D20089180E
:101640001BAA159E00960192224601F081F81B9C70
:101650001C9B0CE03846149C214609F0E5F900205B
:1016600007990870085535B0F0BD00210170139935
:10167000BC61FB61384608F0F9FB787A042801D395
:10168000042002E0032803D10320069948703AE0C1
:10169000022006994870002078700120B87032E06E
:1016A00000210170159D0F970E93119F3E80BE7013
:1016B0001398008CB88012990140B9710998F8719B
:1016C00002267E72FD60109C204605F06FFD0146EB
:1016D000149D284608F098F83861204605F098FBDC
:1016E0000146284608F090F878610F98B8610E9886
:1016F000F86119981A9938637963069846703846E4
:10170000139908F0B3FB48220798394609F0BCF951
:1017100035B0F0BDE02E654235FA8E3CF0B5A9B08B
:1017200015460291064600200B9010A9325C0A541F
:10173000002A6FD00B1831184C7810AA5C70002C5E
:101740006ED013188C7810AA9C70002C6ED01318D1
:10175000CC7810AADC70002C6ED013180C7910AA6B
:101760001C71002C6ED013184C7910AA5C71002CDF
:101770006ED013188C7910AA9C71002C6ED013189F
:10178000CC7910AADC71002C6ED013180C7A10AA38
:101790001C72002C6ED013184C7A10AA5C72002CAC
:1017A0006ED013188C7A10AA9C72002C6ED013186D
:1017B000CC7A10AADC72002C6ED013180C7B10AA05
:1017C0001C73002C6ED013184C7B10AA5C73002C79
:1017D0006ED013188C7B10AA9C73002C6ED013183B
:1017E000CC7B10AADC73002C6ED013180C7C10AAD2
:1017F0001C74002C6ED013184C7C10AA5C74002C46
:101800006ED01218897C917400296FD013305F2834
:101810008BD175E05F21091A10AA1018401C6AE0EC
:101820005E21091A10AA1018801C64E05D21091AB3
:1018300010AA1018C01C5EE05C21091A10AA10182A
:10184000001D58E05B21091A10AA1018401D52E033
:101850005A21091A10AA1018801D4CE05921091AA2
:1018600010AA1018C01D46E05821091A10AA101815
:10187000083040E05721091A10AA101809303AE040
:101880005621091A10AA10180A3034E05521091AF5
:1018900010AA10180B302EE05421091A10AA1018A3
:1018A0000C3028E05321091A10AA10180D3022E03C
:1018B0005221091A10AA10180E301CE05121091AE1
:1018C00010AA10180F3016E05021091A10AA10188B
:1018D000103010E04F21091A10AA101811300AE038
:1018E0004E21091A10AA1018123004E04D21091ACD
:1018F00010AA10181330022902D3491E09F094F8D7
:10190000039604955F2110A8002201910A92425487
:10191000F34F02E02C218170C01C0178092907D007
:101920003B2905D000291ED079184978C90601D570
:101930002C2101704178092907D03B2905D00029C5
:1019400011D079184978C90601D52C2141708178C8
:101950000929DFD03B29DDD0002904D07918497846
:10196000C906D7D4D8E7DF4910A808F071FC0028D1
:1019700000D1CDE2054601260A9806900790059011
:10198000099609E00A9000242046D64908F060FC38
:101990000546002800D1E7E12878002819D06D1C01
:1019A00038184078C00611D52878002811D038188A
:1019B0004078C0060DD56878002809D038184078DE
:1019C000C00605D5A878ED1C0028E9D16D1E00E001
:1019D0006D1C0020295C00290AD029184A78002AA9
:1019E00005D08978C01C0029F4D1401E00E0401CBD
:1019F0002818A84217D9421E117879184978C906C3
:101A000011D5AA4212D9811E0B78FB185B78DB0630
:101A10000CD5A94209D9C01E0278BA185278D2064C
:101A20000A46E6D402E0024600E00A4600211170B0
:101A30002A78002AA7D03D2A284623D1002804D19D
:101A40003A2A284633D1002846D001702A78002A45
:101A500053D06D1CBA185278D20611D52A78002AB4
:101A60004BD0BA185278D20647D56A78002A43D0AC
:101A7000BA185278D2063FD5AA78ED1C002AE9D1CF
:101A80006D1E3AE0681C1346002BD9D00378002B5A
:101A9000D6D03D2BD2D04378002BD1D03D2B00D1D6
:101AA0005EE18378C01C3D2BEED1401EC6E7681C6A
:101AB0001346002B10D00378002B0DD03A2BC2D048
:101AC0004378002B08D03A2B00D14BE18378C01C1F
:101AD0003A2BEED1401EB6E70798032800D952E70B
:101AE000B8184078800700D44DE70799481C890052
:101AF0000CAA5550079046E76D1C6A5C002A0AD074
:101B00006A185378002B05D09278C91C002AF4D1AA
:101B1000491E00E0491C6918A94217D94A1E1378CA
:101B2000FB185B78DB0611D5AA4212D98B1E1C78F4
:101B30003C196478E4060CD5AB4209D9C91E0A7871
:101B4000BA185278D2061A46E6D402E00A4600E0F5
:101B50001A46002111704278002A18D0841CB81847
:101B60004078C00611D52078002813D03818407866
:101B7000C0060FD5607800280BD038184078C00612
:101B800007D5A278E41C002AE9D1641E02E0441CB7
:101B900000E0641C605C00280AD060184278002ACB
:101BA00005D08078C91C0028F4D1491E00E0491CEA
:101BB0006018A04217D9411E0A78BA185278D20686
:101BC00011D5A14212D9821E1378FB185B78DB066F
:101BD0000CD5A24209D9C01E017879184978C906E6
:101BE0001146E6D402E0014600E0114600230B70E6
:101BF000297800291FD0284605E08170C21CC178D1
:101C00000029104617D0CAB2613A1A2A00D22039E8
:101C10000170417800290ED00A46613A1A2A00D292
:101C2000203941708178002905D00A46613A1A2A84
:101C3000E3D22039E1E708932846D14907F070FE46
:101C4000002817D02846CF4907F06AFE002811D097
:101C50002846CD4907F064FE00280BD02846CB4922
:101C600007F05EFE002805D02846C94907F058FE57
:101C7000002842D1601C411E0A78B9184978401CDE
:101C8000CB06F8D4861E302A09D1421E12782023B2
:101C90001343782B03D101787918497806468807D1
:101CA0002AD528A91022304606F0E8F8289AB24230
:101CB00022D011787B185B78DB060AD551787B1827
:101CC0005B78DB0605D591787B185B78D21CDB0648
:101CD000EFD4AA4A904207D8099A089B06E0C0466A
:101CE00030B40000ABB700000123099A0029114667
:101CF00000D1194601292FD1099E2846A54907F090
:101D00000FFE00281ED02846A34907F009FE002830
:101D100018D02846A14907F003FE002812D0284613
:101D20009F4907F0FDFD00280CD028469D4907F08B
:101D3000F7FD002806D028469B4907F0F1FD002852
:101D400000D020E60BA9204606F0B4FE002830465D
:101D500000D017E60A9815E60590099E069612E649
:101D6000401C6BE6401C6EE60698C00704D007983E
:101D700002283ED300203DE00798022800D2C7E0A9
:101D80000C98401C411E0A78B9184978401CCB06B3
:101D9000F8D4861E302A09D1421E1278202313431C
:101DA000782B03D10178791849780646880733D50E
:101DB00028A91022304606F061F805462898B0425E
:101DC0002AD001787A185278D2060AD541787A1842
:101DD0005278D20605D581787A185278C01CD2067E
:101DE000EFD44C424C416548401C854211D3002041
:101DF00010E001200A99C907324600D10246002AA4
:101E000002D0059D0A9C0BE000293446059D12D1A5
:101E100009E00120044000D1059D0A98C00702D0C6
:101E2000E00708D174E00D980BA906F043FE002CE2
:101E30006ED000286CD07421049E304608F0F4FD6A
:101E40000120307075800F20284030710B98B060F1
:101E50000298F060122003990B181A46123A127871
:101E6000002A5BD01A46113A1278002A58D01A4636
:101E7000103A1278002A55D01A460F3A1278002AE2
:101E800052D01A460E3A1278002A4FD01A460D3A0E
:101E90001278002A4CD01A460C3A1278002A49D0FF
:101EA0001A460B3A1278002A46D01A460A3A127895
:101EB000002A43D01A46093A1278002A40D01A461E
:101EC000083A1278002A3DD0DA1F1278002A3BD057
:101ED0009A1F1278002A39D05A1F1278002A37D058
:101EE0001A1F1278002A35D0DA1E1278002A33D051
:101EF0009A1E1278002A31D05A1E1278002A2FD04A
:101F00000A5C002A2DD013307128A5D1019828E051
:101F1000002104980170084629B0F0BD123820E075
:101F200011381EE010381CE00F381AE00E3818E0A7
:101F30000D3816E00C3814E00B3812E00A3810E0C7
:101F400009380EE008380CE0C01F0AE0801F08E0E6
:101F5000401F06E0001F04E0C01E02E0801E00E0FB
:101F6000401E30741136C4B23046224608F08CFD53
:101F700000203055099829B0F0BDC046FFFF000091
:101F80009AB7000078B7000010B7000090B70000C3
:101F900059B700006EB70000EDB6000030B7000082
:101FA00053B70000FFB6000097B70000F0B5B9B016
:101FB000002B00D1E1E11446059100271F605F600E
:101FC0009F60DF601F6106461D4605F0D3F90028BB
:101FD00000D0D3E10295F0881390002800D1CDE124
:101FE0000025E8431290706A1090059808F0A0FB55
:101FF0000F90F0680E90204608F09AFB0D90306923
:102000000C900896307A0B9029A8014614310A9159
:102010000146103903911838049019A8014614316B
:1020200006910146103900911838019029462A4638
:10203000119515950DE0C00019A90A18149B0B50B5
:10204000189850602A461799491C1398814200D16C
:1020500064E116920A201791484310990C18085A07
:1020600008F066FB01460F9806F0FEFD0E9907F09A
:10207000DDFC06461494608808F05AFB01460D9872
:1020800006F0F2FD0C9907F0D1FC014607F0BCFB0D
:1020900007463046314607F0B7FB394606F0E9FD02
:1020A0001890159B1806119F2DD0D8B2129C44434E
:1020B00001210D1A02270A9E30461038006818992F
:1020C00007F09CFE00281AD1E819022814D03046E7
:1020D00008380068189907F091FE002811D1E0191E
:1020E0000AD03068189907F089FE00280AD1FF1C31
:1020F000E01918360228DFD1159B1F4603E0BF1EEA
:1021000000E07F1E159BF8B2D9B20B9A914204D31E
:10211000904202D3169A149B61E0914204D30024AA
:10212000914204D25D1C03E001249142FAD31D4682
:102130006A1ED3B2834249D9099515990C19E41B3B
:10214000A41EE1B2AB2507914D436D0A03266E43F1
:10215000A41B611C1591CCB2032C01D10021159157
:10216000032C1BD0DC0003990E190027B468F1681A
:102170003461716101213943C9B2159CE4B2A142B5
:102180000AD022CE31607560921E9B1EBF1CF9B230
:10219000183EA142EAD101E0521E5B1E07990229B6
:1021A000099D13D3D900049B5B1819695C69DC6134
:1021B0009961D9689C681C61596159681C689C6068
:1021C000D960D21ED1B2183B8142EED8C00029A9F5
:1021D0000A18149B0B50189850601595169A187A87
:1021E000C007179900D12FE70898437A10062BD023
:1021F0000993D0B2129D454301210C1A0227069E75
:10220000304610380068189907F0F8FD00281DD1F5
:10221000E019022814D0304608380068189907F0F1
:10222000EDFD002814D1E8190AD03068189907F09C
:10223000E5FD00280DD1FF1CE81918360228DFD172
:10224000169A1746099B06E0002704E0BF1E00E02F
:102250007F1E099B169AF8B2D1B2994202D39842D6
:1022600000D3F0E6994204D30024994204D2551CCD
:1022700003E001249942FAD315466A1ED3B2834281
:1022800000D8D8E6099516990C19E41BA41EE1B2F2
:10229000AB2507914D436D0A03266E43A41B611CB9
:1022A0001691CCB2032C01D100211691032C1BD026
:1022B000DC0000990E190027B468F168346171617F
:1022C00001213943C9B2169CE4B2A1420AD022CE00
:1022D00031607560921E9B1EBF1CF9B2183EA14270
:1022E000EAD101E0521E5B1E07990229099D00D226
:1022F000A1E6D900019B5B1819695C69DC619961F1
:10230000D9689C681C61596159681C689C60D960D7
:10231000D21ED1B2183B8142EED88CE61598000649
:1023200002982AD016920121109101702A98FD4935
:10233000149007F045FD1599CDB2002821D0002753
:1023400029AE3C467068FB4907F03AFD00280ED0E4
:102350003068808808F0ECF90146204606F089FCD8
:1023600004467F1C6D1E0836002DEBD1159FF8B278
:1023700008F0DEF9014620462FE00027384639B044
:10238000F0BD002129AC0E461AE07F20C005314681
:1023900007F04CFB07462068808808F0C9F9014621
:1023A000384607F031FA179906F063FC064618988C
:1023B000394606F05EFC01466D1E0834002D0BD038
:1023C0001796189167683846DB4E314607F0F8FCDF
:1023D0000028DAD13E46D8E7304607F027FB06460C
:1023E000089F7C697F20C5052046294607F0FCFC34
:1023F000002806D11894BC7A022C029804D2109FAF
:10240000C4E00298109FC1E01796BE6A002E31D03A
:102410001195B8690025294607F0F0FC00282CD05A
:10242000149806F057FFB96907F000FB0146119FA9
:10243000384606F019FC04460026314607F0C0FC79
:10244000002807D12046394607F0D8FC0028264648
:1024500000D03E463846189C214606F005FC314621
:1024600007F0D2F9214606F004FC01460898866A76
:10247000847A04E0109F179E88E0119F18993846CF
:10248000189106F0F1FB1590A00030180146071FC7
:102490003888059A90421ED9301D022C18D33188F5
:1024A000914215D2611E7719BA88059B9A4215D2BE
:1024B00001290DD03A89059B9A4211D2022907D0F1
:1024C000BA89059B9A420DD2C91E0C350029EAD162
:1024D0000746354608E00D46083D05E03F1D02E091
:1024E000083700E00C373D1F388808F021F9064610
:1024F0002C46288808F01CF905463046294606F087
:10250000B3FB06460120C107304688438B4907F0DC
:1025100057FC00280FD0608808F00AF90546788833
:1025200008F006F90146284606F0A3FB3F210906FC
:1025300007F06AF91AE0059808F0FAF8294606F05B
:1025400093FB314607F072FA0646608808F0F0F80F
:102550000546788808F0ECF8294606F085FB014628
:10256000304607F051F9294606F083FB01461598DD
:1025700007F04AF905461898179907F045F92946D2
:1025800006F077FB06460298109F119D466014984E
:1025900006F0A0FE294606F06CFB0146284607F02F
:1025A00045FA0299C8601698000600D1E6E6119532
:1025B00001244C701A9D284606F08CFE0899C969C2
:1025C00007F008FC414241410E915A490F952846B7
:1025D00007F0F6FB00282DD01698C0B2129941439F
:1025E000129119AE1436271A0225524C3046103873
:1025F0000068214607F0E4FB00281DD07819022866
:1026000016D0304608380068214607F0D9FB00286C
:1026100014D0129840190BD03068214607F0D0FB37
:1026200000280CD0ED1C1298401918360228DDD174
:10263000169D04E0169D05E0AD1E00E06D1E109F86
:10264000280671D0EEB200273F4818903D4C19ADD6
:10265000394617E01198214607F0E8F90446394653
:1026600007F0D2F8149906F004FB074613982146A8
:1026700006F0FFFA0146761E0835002E179C1698C4
:10268000189029D013911497159628680621405E5A
:1026900007F008FF2D4907F0C9F907466E68214683
:1026A00007F08EFB0028384600D1204617903846A8
:1026B000189C214607F0A2FB0028384600D120468E
:1026C000169030461C4C214607F07AFB0028304615
:1026D000159EBFD10446BDE7384607F0A7F9109F05
:1026E000029A90600E980028119D01D000200AE007
:1026F0001698179906F0B8FA0899096A07F06AFB64
:10270000029A411E884190700F98144606F0E2FD2F
:10271000294606F0AEFA0146284607F087F92061FF
:102720002CE6C046CCBC8C2B0548064917910649BF
:102730001691D5E7CCBC8C2B17B7D139BD37863570
:102740000000C07F00007A4400007AC40000C84244
:10275000F0B5A1B01F460E460446279D2699007885
:1027600000281792209100D1FFE006971595606828
:10277000081A07F0DDFF864907F058F90546189654
:102780007769394607F03AFB002800D12F46209898
:1027900060602069A568394607F036F8294606F0DA
:1027A00068FA1090A0606069E568394607F02CF877
:1027B000294606F05EFA0590E060A569A16B1C91C0
:1027C000384607F021F8294606F053FA2090A56A0A
:1027D000A16C1B91384607F017F8294606F049FA14
:1027E0001F90E569E16B1491384607F00DF8294612
:1027F00006F03FFA1190E56AE16C0E91384607F059
:1028000003F8294606F035FA1390256A216C0F91DA
:10281000384606F0F9FF1290294606F02AFA1E9073
:10282000256B216D3846089106F0EEFF0C90294685
:1028300006F01FFA1D90666A616C3846079106F033
:10284000E3FF0A90314606F014FA0646656B1694CB
:10285000616D0D91384606F0D7FF0446294606F013
:1028600008FA054638461E9906F0CEFF209906F074
:1028700000FA0B9038461A96314606F0C5FF1199BA
:1028800006F0F7F9209038461D9906F0BDFF1F9914
:1028900006F0EFF91F9038461995294606F0B4FF67
:1028A000139906F0E6F9099012981C9906F0E1F9DF
:1028B00011900A98149906F0DCF912900C981B9963
:1028C00006F0D7F9139020460E9906F0D2F914902D
:1028D000189C26682F49384606F0CBF90546304645
:1028E000294606F091FF06460B9906F0C2F9074605
:1028F0003046099906F0BDF906466068294606F09B
:1029000083FF05460F9906F0B4F90C9028460D99FF
:1029100006F0AFF90D90A5681B973846294606F0DA
:10292000A8F907461C963046294606F0A2F9044647
:102930000120C507209969401F9806F065FF0646EB
:1029400038461894214606F05FFF314606F091F9AB
:102950000446A843104907F033FA00281ED0159DFD
:10296000109828601698C76847E25821204608F05A
:102970005BF801202070209860601799A160E760E3
:10298000F068A061E062306920646065296034E22B
:1029900000007A446F12833ABD3786351B9D284666
:1029A000189906F031FF314606F063F9029421468A
:1029B00007F03CF804903846209C214606F024FF9E
:1029C0000646284621460E9706F01EFF0146304671
:1029D00006F04AF9029F394607F028F803901F9C39
:1029E00020461C9D294606F00FFF064620461899F2
:1029F00006F00AFF314606F037F9394607F016F8B7
:102A00000F900E98294606F0FFFE064620462099B4
:102A100006F0FAFE0146304606F026F9394607F080
:102A200005F809902046129C214606F0EDFE064668
:102A3000119D2846189906F0E7FE314606F014F974
:102A4000394606F0F3FF0B900E98214606F0DCFEA7
:102A500006462846209906F0D7FE0146304606F085
:102A600003F93D46394606F0E1FF0A901F98149C91
:102A7000214606F0C9FE0646139F3846189906F00F
:102A8000C3FE314606F0F0F82E46294606F0CEFF8A
:102A900018900E98214606F0B7FE05463846209954
:102AA00006F0B2FE0146284606F0DEF8314606F092
:102AB000BDFF0E901798109906F0D6F805460698B7
:102AC000059906F0D1F80646039906F09DFE0746E3
:102AD0000498294606F098FE394606F0CAF80146E1
:102AE000169CA06806F0C5F81790A06030460999BA
:102AF00006F08AFE07460F98294606F085FE3946FD
:102B000006F0B7F80146E06806F0B3F8E06030463A
:102B10000A9906F079FE07460B98294606F074FEDE
:102B2000394606F0A6F80146206906F0A2F82061B1
:102B300030460E9906F068FE06461898294606F0BB
:102B400063FE314606F095F80146606906F091F89B
:102B50006061049C20461B9D294606F055FE0146F7
:102B6000284606F081F80546039E30461F9906F078
:102B70004BFE0146284606F077F810902046209D2F
:102B8000294606F041FE0146284606F06DF8054646
:102B900030461C9906F038FE0146284606F064F8D7
:102BA000069020461E9D294606F02EFE0146284628
:102BB00006F05AF8054630461D9906F025FE0146F6
:102BC000284606F051F8059020461A9C214606F04A
:102BD0001BFE0146204606F047F805463046199987
:102BE00006F012FE0146284606F03EF804900F9FBC
:102BF00038461B9906F008FE01461F9E304606F037
:102C000033F80546099C2046314606F0FDFD014695
:102C1000284606F029F803903846209906F0F4FD7E
:102C200001461C9E304606F01FF8054620463146F8
:102C300006F0EAFD0146284606F016F802903846EE
:102C40001E9906F0E1FD01461D9F384606F00CF87E
:102C5000054626462046394606F0D6FD014628465A
:102C600006F002F801900F981A9906F0CDFD014682
:102C7000199C204605F0F8FF05463046214606F02F
:102C8000C3FD0146284605F0EFFF0F900B9E30462E
:102C90001B9906F0B9FD0146119805F0E5FF0546C0
:102CA0000A9F38461F9906F0AFFD0146284605F0F9
:102CB000DBFF11903046209C214606F0A5FD014621
:102CC000129805F0D1FF054638461C9906F09CFD88
:102CD0000146284605F0C8FF129030461E9906F0BE
:102CE00093FD01460C9805F0BFFF054638461D9937
:102CF00006F08AFD0146284605F0B6FF0C903046E6
:102D00001A9906F081FD0146079805F0ADFF0546CA
:102D10003846199906F078FD0146284605F0A4FFCB
:102D20000B90189F38461B9906F06EFD01461398CC
:102D300005F09AFF05460E9E30461F9906F064FD89
:102D40000146284605F090FF1F903846214606F0C0
:102D50005BFD0146149805F087FF05463046344672
:102D60001C9906F051FD0146284605F07DFF0546F9
:102D700038461E9906F048FD0146089805F074FF94
:102D8000064620461D9906F03FFD0146304605F0F7
:102D90006BFF064638461A9906F036FD01460D9837
:102DA00005F062FF07462046199906F02DFD014601
:102DB000384605F059FF1699109A8A61069ACA6139
:102DC000059A0A62049A4A62039A8A62029ACA625D
:102DD000019A0A630F9A4A63119A8A63129ACA6324
:102DE0000C9A0A640B9A4A641F9A0B46483364C3D0
:102DF0004865159D17982860CF686F6021B0F0BDB9
:102E0000F0B58FB005469920C143084699300E9021
:102E1000002D00D10AE302916920C000281800901B
:102E20001F200001281807907D4E7E4F29680EACA8
:102E30000C94204604F07CFBA988204605F0B2FAE9
:102E4000E988204605F0AEFA287A0E994140012221
:102E50000D9208461040434248083340434058080A
:102E60008A07D41734404440A0090B904807C6177E
:102E70003E400807C0176C4A1040CF06FF176B4A48
:102E800017408906C9176A4A11409B06DB17694A31
:102E90001340A406E417624A14407040784048404A
:102EA0000B994840584060406A7A424010460D995C
:102EB0000840434250085A4E334043405808910757
:102EC000CC1734404440A0090B905007C617554812
:102ED00006401007C01754490840D706FF1753494A
:102EE0000F409206D21752490A409B06DB17514900
:102EF0000B40A406E4174A490C407040784050400B
:102F00000B99484058406040AA7A424010460D99BB
:102F1000084043425008424E33404340580891070E
:102F2000CC1734404440A0090B905007C6173D48C9
:102F300006401007C0173C490840D706FF173B4919
:102F40000F409206D2173A490A409B06DB173949CF
:102F50000B40A406E41732490C40704078405040C2
:102F60000B99484058406040E97A414008460D9A24
:102F70001040434248082A4E3340434058088A07CD
:102F8000D41734404440A0090B904A07D61725486F
:102F900006400A07D21724480240CF06FF172348ED
:102FA00007408906C917224801409B06DB172148C4
:102FB0000340A406E4171A48044072407A404A408D
:102FC0000B9842405A4062400E92E9680C9C2046A1
:102FD00004F0AEFA2969204604F0AAFA696920468D
:102FE00004F0A6FAA969204604F0A2FAE96920468D
:102FF00004F09EFA296A204604F09AFA696A20468B
:1030000004F096FAA96A204604F092FAE96A20468A
:1030100004F08EFA042001952E462C460CE0C046A2
:103020002083B8ED19C46D073288DB0E6410B71D1C
:10303000C8206E3B9041DC760B940C90304680307B
:103040000A903046303009903020305C0E9B43406F
:1030500018460D99084045425808F64A1540454023
:1030600068089907CC1714404440A00908905807F5
:10307000C217F54802401807C117F2480140D806A8
:10308000C017EF4F38409B06DB17EC4F3B40AD06B7
:10309000ED17E94F3D40A406E417E64F3C40514090
:1030A0004140594008984140694061400998427840
:1030B0004A4010460D990840434250083D463B4067
:1030C000434058089107CC173C404440A009099060
:1030D0005107CD17DC4805401107C917D9480140F1
:1030E000D706FF17D64807409206D217D3480240AA
:1030F0009B06DB17D0480340A406E417CD480440E4
:1031000069407940514009984140594061400B9CC9
:103110000E91718E0EAD284605F044F9716B28466C
:1031200004F006FAB16B284604F002FAF16B284667
:1031300004F0FEF9316C284604F0FAF9716C284667
:1031400004F0F6F9B16C284604F0F2F9F16C284667
:1031500004F0EEF9316D284604F0EAF9716D284665
:1031600004F0E6F9B16D284604F0E2F9F16D284665
:1031700004F0DEF9316E284604F0DAF9716E284663
:1031800004F0D6F9B16E284604F0D2F9F16E284663
:1031900004F0CEF97034316F284604F0C9F9716F2C
:1031A000284604F0C5F9B16F284604F0C1F9F16F63
:1031B000284604F0BDF980203158284604F0B8F9BB
:1031C0000A9E7168284604F0B3F9B168284604F0F5
:1031D000AFF9F168284604F0ABF93169284604F0EC
:1031E000A7F97169284604F0A3F9B169284604F0EB
:1031F0009FF9F169284604F09BF90C98401E264679
:1032000000D019E7079C21880EAD284605F0CAF8C2
:103210006188284605F0C6F8A188284605F0C2F85E
:10322000E188284605F0BEF82189284605F0BAF85D
:103230006189284605F0B6F8A189284605F0B2F85C
:10324000E189284605F0AEF8218A284605F0AAF85B
:10325000618A284605F0A6F8A18A284605F0A2F85A
:10326000E18A284605F09EF8218B284605F09AF859
:10327000618B284605F096F8A18B284605F092F858
:10328000E18B284605F08EF8218C284605F08AF857
:10329000618C284605F086F8852080000199081881
:1032A0000390029C039807199A200D90395A0EAD8D
:1032B000284605F077F89C200C90395A284605F0EE
:1032C00071F89E200B90395A284605F06BF8A02023
:1032D0000A90395A284605F065F8A2200990395A13
:1032E000284605F05FF8A4200890395A284605F0D2
:1032F00059F8A6200790395A284605F053F8A82017
:103300000690395A284605F04DF8AA200590395AFA
:10331000284605F047F8AC200490395A284605F0B5
:1033200041F8AE26B95B284605F03CF81634B9D111
:103330004648019908180390029D039847190D9873
:10334000395A0EAC204605F02DF80C98395A204613
:1033500005F028F80B98395A204605F023F80A980A
:10336000395A204605F01EF80998395A204605F0CA
:1033700019F80898395A204605F014F80798395A70
:10338000204605F00FF80698395A204605F00AF84D
:103390000598395A204605F005F80498395A204610
:1033A00005F000F8B95B204604F0FCFF1635C4D1E7
:1033B000009D29680EAC204604F0BAF869682046E2
:1033C00004F0B6F8A968204604F0B2F8E96820468F
:1033D00004F0AEF82969204604F0AAF8696920468D
:1033E00004F0A6F8A969204604F0A2F8E96920468D
:1033F00004F09EF8296A204604F09AF8696A20468B
:1034000004F096F8A96A204604F092F8E96A20468A
:1034100004F08EF8296B204604F08AF8696B204688
:1034200004F086F80E98C0430FB0F0BD00200FB036
:10343000F0BDC0462083B8ED9041DC76C8206E3BDD
:103440006410B71D3288DB0E19C46D07AE02000090
:10345000F0B5FFB0A2B01F46144601910D90A6989A
:1034600007908000DB490E585D1ED01E1821009188
:1034700006F082FDC11788431721C94341430A1949
:10348000411B13910A9675190C9080001297B90090
:10349000401AD1494018061D002764AC0992AF427A
:1034A0000EDC1398C01904D4306807F0FFF8099AAD
:1034B00001E00020014603C47F1C0034361DEEE706
:1034C0001298C00064A94418083C00230A9FBB421C
:1034D0001FDC109300250D9F119413952E46129812
:1034E00085420FDA03CF0CCC083C083F04F0CEFF36
:1034F000139A334604F093FA13900E466D1C083C61
:103500000837ECE707F052FA5B1C119C0834099A63
:10351000DCE71046183806903020801A03902F20E0
:10352000801A02908DA8011FB80005910818049018
:103530003A46D60014A8811983594968083E8DAFD0
:103540000B921392139801282ADB119710960026EC
:1035500018460C4632460E93A04B04F097FF06F037
:103560002DFE07F0A3F80F900D463246109E119FD6
:103570009B4B04F08BFF0E9A234604F050FA06F0A2
:103580001DFE01C71398401E139014A8811980597D
:1035900049680F9A2B4604F042FA0346083ED1E7E9
:1035A0001846069F3A4605F0F3FA04460D46FF20FA
:1035B000830500262046324604F068FF04F0BCFB79
:1035C0000E963246874B04F061FF22462B4604F0EC
:1035D00026FA04460D4606F0F1FD064607F066F8A9
:1035E00002460B462046294604F014FA1390012F98
:1035F00011915CDB0B9880008DA94018001F0168B9
:103600000A46039B1A41961908969A40891A016046
:10361000029801410A9D744E0E91012953DB00244A
:103620008DA821460B9A91420EDA0268002C33468F
:1036300002D1002A06D0731C9A1A02600124491C88
:10364000001DEFE70024FAE7069801280899674F64
:103650000B9B0EDB099A192A654802D01A2A08D159
:10366000644899008DAA8918091F0A6802400A60F7
:103670000899491C08910E98022824D10020394647
:10368000139A119B04F0C6F9064602200E90002CF6
:103690007CD000200C463946069A05F079FA02469D
:1036A0000B463046214604F0B5F907460DE0089672
:1036B000002F0A9D5FD013980E9AF04B06F062FB24
:1036C0000028ED4E5FD1139F1199002438460E4615
:1036D0002246234606F038FB002859D00B9EB00046
:1036E000059909183246AA4204DD521E0B681C4394
:1036F000091FF8E7002C0499324660D10868521C73
:10370000091F0028FAD012988019C00064A90F1868
:103710000F92711C964200DB0BE70C981091081871
:103720008000D449085806F0C1FF129AB218D2009E
:1037300064AB9C1898506160002511970D9C1395FF
:103740002E46129885420FDA03CC0CCF083F083C76
:1037500004F09CFE139A334604F061F913900E4670
:103760006D1C0834083FECE707F020F9119F08377B
:103770001E460F9ACDE70B9880008DA94018001FB8
:103780000068C11547E702200E9048E737469CE7DE
:103790003946099F0098C21B0846314605F0F8F9E2
:1037A00005460C460022B74B06F0ECFA002823D160
:1037B0002846214606F002FD06460B9F39E08DA9FA
:1037C0000818001F069A183A761E0168001F002983
:1037D000F9D033E080B6000028B300000000703E4E
:1037E000000070C1000020C0FFFFFF000000F03F9C
:1037F000FFFF7F00FFFF3F000027A34B2846214625
:103800003A4604F043FE06F0D9FC064606F04EFFA9
:103810009E4B3A460B9F04F039FE2A46234604F09D
:10382000FEF806F0CBFCB9008DAA50507F1C099819
:103830000690B8008DA90E50069A3E460020904989
:103840000C9005F0A5F93446B600E5000B9422462D
:10385000002A1DD407468DA8805913960C4616469B
:1038600006F024FF02460B463846214604F00EFEC1
:1038700014AA531950515960002238462146824BF0
:1038800004F004FE3246139E521E361F083DDFE749
:103890000B9FF90014A80D9144183A46002A079985
:1038A0000A982CD41092B91A8842129000DB129117
:1038B0000F9100211194764E0F460D4612988142C9
:1038C00011DC3068139171680CCC083C04F0DEFD0B
:1038D0003A462B4604F0A3F807460D461399491CB7
:1038E00008360834EAE70F98C0003CA90A180F50C0
:1038F0005560109A521E119C083C0B9FCEE7481E43
:1039000002281ED3002954D0032900D0ACE03CA8E3
:103910000D990C18083C3846002858DD06F0C6FF03
:1039200002460F462846314615463B4604F072F8DB
:1039300007F097F8A0C40B9F206013986160103CBB
:10394000EAE7FE0000242546002F0CD43CA881198C
:1039500082594B682046294604F061F804460D461A
:103960007F1E083EF0E701260E980028284601D069
:10397000F007684001990C6048603C983D992246E8
:103980002B4604F047F83CAC08340B9DAE4206DCF5
:103990000CCC083C04F043F8761C0834F6E70E9A89
:1039A000002A02D00122D2075140019A9060D160D2
:1039B0005AE0F8003CA90C1800200146002F21D441
:1039C0000CCC083C04F02BF87F1E083CF6E73CA822
:1039D0000D990C18083C384601281CDD06F066FFDE
:1039E00007460B46284631463A461D4604F012F873
:1039F00007F037F827600B9F6560A0601398E160BF
:103A0000083CE9E70E9A002A02D00122D207514071
:103A1000019A03C228E00C980146022F0ADB3CAA57
:103A20000D9C131912595B6803F0F9FF7F1E083CC7
:103A30000D94F2E706463D983C9A0E9B002B0CD065
:103A40000123DB0758403E9C3F9D5D405940019B50
:103A50001A601A1D71C2596106E03E9B3F9C019D90
:103A60002A602A1D59C269610721089808407FB061
:103A700022B0F0BD28B30000FFFFFF000000E03FD0
:103A80000000F03F000070410000703E000070C177
:103A900090B50000F0B59FB0002800D1BBE20F4602
:103AA000002900D1B7E205460668002E00D1B2E237
:103AB0006879002806D0F869A968401A80087D282E
:103AC00000D2A8E2F9480A90012011902879002834
:103AD00010950F977FD1A0200090F5480190002409
:103AE00080273046214622463B4603F0F9FD0E254D
:103AF0000095F04801903046214622463B460F9FF4
:103B000003F0EEFDE9481F3080B20090E9480190D3
:103B100011980290E84B1C210422304606F057FA17
:103B2000E348433880B2009501907F233046214618
:103B30002A4602F0FFFA119D0295DD480190DF4808
:103B40000090DF4B072413223046214606F03FFA4F
:103B5000DA480090D64801900295DA4B1E22304692
:103B6000214606F034FAD5480090D14801900295DC
:103B7000D54B29223046214606F029FACF4800903D
:103B8000CB4801900295D14B71223046214606F078
:103B90001EFACA480090C64801900295CC4B7D227F
:103BA0003046214606F013FA33220092C9480190AC
:103BB00005247A25304621462B4602F0BBFA6C22BA
:103BC0000092C4480190304621462B46109D02F0D9
:103BD000B1FA11982871388817A90C9106F05CFB8E
:103BE00015A90D91384606F012F912A9384605F0CC
:103BF000C9FA2F68089709260096AD4C01943E211A
:103C00000E9112223D230B93384603F069FD2046A6
:103C10004338079080B2099000900194119F029759
:103C200041241322089821460C9B06F0D0F92D68F8
:103C30000C9600969E4801901D2228460E990B9BDB
:103C400003F04EFD099800900F9EFC4801900297EA
:103C50001E222846099421460D9B06F0B8F91098BB
:103C60000768304606F038FD0890304606F034FD0F
:103C70000078462802D0EE4D2C4601E0F04CEC4D89
:103C800020360D96ED4E502801D13446623C0C98FA
:103C900000900196282238460E990B9B03F020FDD8
:103CA000A0B20090019611980290292238460999F5
:103CB000089B06F08CF90D98407A0028089501D0F1
:103CC00007980890109800680B900F9A107A0321BB
:103CD000014003292F4609D1D06800282F4605D07E
:103CE000106900282F4601D0D44F433F1F20099070
:103CF00038200090D04E019606213422059274237C
:103D00000B9C204603F0ECFC19AD0F98294604F0FB
:103D100055FAB8B200900196119802900721372207
:103D2000069220462B4606F052F946200790009056
:103D3000C048019006461E215022049222272046A8
:103D40003B4602F0F7F90E9D009501962A26204683
:103D50003946079A334602F0EDF939270097B548FE
:103D60000190204631462A46059E334602F0E2F98C
:103D700006980090AF4801904025204631463A46CB
:103D80002B4602F0D7F90097AA4801904C2620460E
:103D900005952946069A334602F0CCF90E98009014
:103DA000A44801905625204631463A462B4602F05B
:103DB000C1F9079F00979F4801905E26204629463B
:103DC0000E9A334602F0B6F9049800909948019093
:103DD0006223204631463A4602F0ACF90D98407A0B
:103DE000002804D10D98807A002800D115E10F9F9A
:103DF0007C6D944D2046294605F0E2FF002808D14D
:103E0000914E2046314605F0F9FF0028254600D0A6
:103E100035468E49284605F0F7FC054603F0C6F9FD
:103E20008B4E314605F0F0FC8521C90504F021FFD9
:103E300006F0EAFB0446284602F0EAFF314605F0A8
:103E4000E3FC0146834804F00FFF06F0DDFB089910
:103E50008DB200900195402150220B9E30462346A2
:103E600002F068F90523009301953E214E22304669
:103E700003F036FC0998C4021CA9384604F0EAFB9A
:103E80000020109D119E06941CA9095C002924D0D5
:103E90001CA90918497800291ED01CA9091889787D
:103EA000C01C0029F0D1401E17E0C046E0FF000012
:103EB00042080000A5100000B0B60000718C0000A0
:103EC00018B7000038B7000069B7000087B70000D6
:103ED00082B70000692A0000401C5F4948438030D7
:103EE00040080222089989B2009153490191029633
:103EF0000E92039201B258221CAB0B9801F0B0F85D
:103F00002F680C9800904D4D01953E2170223D2365
:103F100038460B91089303F0E3FB2C46433CA0B2D8
:103F200000A961C14126712212AB3846314606F024
:103F30004EF8109807680D9D287806F0A9FC0790A8
:103F4000287800283A4D00D025460C9800903B4C2C
:103F500001947C2238460B99089B03F0C1FBA8B260
:103F6000254600900194119802907D2238463146F2
:103F7000079B06F02CF8109806680F9C204606F068
:103F8000C1FB0746E079002803D00A981F300A9049
:103F90000DE00D984078022802D00699099101E0C1
:103FA000623D09950021022800D0C9430A911420DE
:103FB00009998DB20090019500248C22802330460F
:103FC000214603F08DFB002F059911D0385D0028A4
:103FD0000AD038194178002905D08078E41C0028DF
:103FE000F4D1641E00E0641C1B486043803041082B
:103FF0000A9880B200900195119C02940E9803904B
:1040000009B28F2230463B4601F02AF80F98C0696A
:10401000109988604C711FB0F0BD4E220092044888
:1040200001903A2146230B9802F084F80F9F21E774
:10403000E0FF0000692A0000A5100000420800000F
:1040400000F8FFFF000070C20000704235FA8E3C9D
:104050000000B0410000A042F4FF0100F0B583B0C1
:104060000024002800D19AE2002900D197E24A6892
:10407000002A00D193E28A68002A00D18FE2CA6840
:10408000002A00D18BE20A69002A00D187E24A693E
:10409000002A00D183E20124002202604260826093
:1040A000C2600261426182611746024668C968C205
:1040B00068C968C2FC49816106C8083805460846D7
:1040C00021469047AA68286821469047EA682868F0
:1040D000214690476A69286805219047EA68286860
:1040E0003E46394690476A69286814219047EA6835
:1040F0002868214690476A6928689621019190476F
:1041000002AF3C7005CD00963146083D9047AA6845
:104110002868314690472B692868394622469847D7
:1041200005CD2146083D90476A6928680199904766
:1041300002AE1120307005CD009F3946083D9047F2
:10414000AA682868394690472B6928683146224674
:10415000984705CD2146083D90476A69286878212F
:10416000904702AEB120307005CD3946083D9047EA
:10417000AA682868394690472B6928683146224644
:104180009847AA682868214690472B692868C7493C
:1041900003220192984705CD2146083D904702AE83
:1041A000B220307005CD3946083D9047AA6828688E
:1041B000394690472B692868314622469847AA68B5
:1041C0002868214690472B692868F649019A984744
:1041D00005CD2146083D904702AEB320307005CD95
:1041E0003946083D9047AA682868394690472B69A8
:1041F0002868314622469847AA6828682146904791
:104200002B692868E8490622984705CD2146083DD4
:10421000904702AEB420307005CD3946083D904736
:10422000AA682868394690472B6928683146224693
:104230009847AA682868214690472B692868DB4977
:104240002246984705CD2146083D904702AEC02042
:10425000307005CD3946083D9047AA682868394630
:1042600090472B692868314622469847AA682868F3
:10427000214690472B692868CD49019A984705CD7A
:104280002146083D904702AEC120307005CD394629
:10429000083D9047AA682868394690472B692868E6
:1042A000314622469847AA682868214690472B69DC
:1042B0002868C0492246984705CD2146083D9047C9
:1042C00002AEC220307005CD3946083D9047AA683D
:1042D0002868394690472B69286831462246984716
:1042E000AA682868214690472B692868B2490222AB
:1042F0000192984705CD2146083D904702AEC32064
:10430000307005CD3946083D9047AA68286839467F
:1043100090472B692868314622469847AA68286842
:10432000214690472B692868A449019A984705CDF2
:104330002146083D904702AEC420307005CD394675
:10434000083D9047AA682868394690472B69286835
:10435000314622469847AA682868214690472B692B
:1043600028689749019A984705CD2146083D90470E
:1043700002AEC520307005CD3946083D9047AA6889
:104380002868394690472B69286831462246984765
:10439000AA682868214690472B69286889492246DF
:1043A000984705CD2146083D904702AE2020307049
:1043B00005CD3946083D9047AA6828683946904798
:1043C0002B69286831462246984705CD2146083D8D
:1043D000904702AE3A20307005CD3946083D9047EF
:1043E000AA682868394690472B69286831462246D2
:1043F0009847AA682868214690472B69286872491F
:104400002246984705CD2146083D904702AE36200A
:10441000307005CD3946083D9047AA68286839466E
:1044200090472B692868314622469847AA68286831
:10443000214690472B69286864492246984705CD54
:104440002146083D904702AE2A20307005CD3946FE
:10445000083D9047AA682868394690472B69286824
:10446000314622469847AA682868214690472B691A
:104470002868574904220192984705CD2146083DF6
:10448000904702AE2B20307005CD3946083D90474D
:10449000AA682868394690472B6928683146224621
:1044A0009847AA6804E0C0468000A00031B500002B
:1044B0002868214690472B6928684649019A984701
:1044C00005CD2146083D904702AEE020307005CD75
:1044D0003946083D9047AA682868394690472B69B5
:1044E0002868314622469847AA682868214690479E
:1044F0002B692868384910220192984705CD21463A
:10450000083D904702AEE120307005CD3946083DA8
:104510009047AA682868394690472B692868314631
:1045200022469847AA682868214690472B69286840
:104530002A49019A984705CD2146083D904702AE89
:104540001320307005CD3946083D9047AA68286889
:10455000394690472B69286831462246984705CD51
:104560002146083D90476A6928680A21904702AEB3
:104570002920307005CD3946083D9047AA68286843
:10458000394690472B69286831462246984705CD21
:104590002146083D90476A69286864219047204673
:1045A00003B0F0BD31B500004DB70000ADB700005D
:1045B00094B70000AFB70000A5B70000A7B7000090
:1045C000A9B70000AEB70000B0B7000027B30000E5
:1045D0008CB500008CB70000A0B6000090B60000BB
:1045E000F0B59BB004910390002B00D171E11E4601
:1045F00022980290219807902098002101251C06FE
:104600002B405918630E07D02B405918A30E03D026
:104610002B405918E30EF1D1C9B20023032902D26D
:1046200018461BB0F0BD0028089609920B9500D1E2
:104630003DE1076840680C901990189700231946CF
:1046400005933D460691002A13931C46D0491191CB
:104650000A9700D19CE037460024049817900398ED
:104660001690CB48014623461190204613944BE008
:1046700004460E98314605F0D9F907460D983146A3
:1046800005F0D4F905463846214605F0BDF8264622
:104690000446394605F0B8F8159904F0EAFA159081
:1046A0002046294605F0B0F8109904F0E2FA0746D2
:1046B0002846314605F0A8F80646294605F0A4F834
:1046C000119904F0D6FA119020460F9D294605F065
:1046D0009BF8129904F0CDFA04463046294605F0BD
:1046E00093F8139904F0C5FA15993B461390089F67
:1046F000099A0A9D1498401C169E08361696179E15
:10470000361D1796824243D0064638461496F0402E
:10471000C007EFD0159110931294169C216828467B
:1047200004F0A2FA054661680C9804F09DFA0D9019
:10473000014605F069F8064628460E95294605F01B
:1047400063F8314604F095FA04F0C4FD0746FD4EC7
:10475000314605F035FB002800D13E461798016828
:10476000304604F081FA07460B98C0070F9787433D
:104770003846079C214605F02DFB05462046394664
:1047800005F054F9002D00D172E77F20C40570E7D1
:1047900012940B98C007179018460E4619461C46EF
:1047A00005F032F8074615963046119E314605F061
:1047B0002BF8394604F058FA169017990F4688439B
:1047C000E14905F0FDFA002800D09CE17C401398F7
:1047D000214605F019F805463046129905F014F8FF
:1047E000294604F046FA7840169F394605F01EF92E
:1047F00006461398159905F007F8054620461299C4
:1048000005F002F8294604F034FA17994840394671
:1048100005F00CF90546014604F0F6FF0446304663
:104820001796314604F0F0FF214604F022FA04F016
:1048300051FD0746C54C214605F0E0FA06462046E4
:10484000394605F0F3F804467F20C005002E00D15C
:10485000044616901798214604F0D6FF1790284674
:10486000214604F0D1FF0546002EB84C00D13C464D
:104870000A98179904F0FDF907460C98294604F0A8
:10488000F8F90C902046169905F09AFA0028089E2F
:1048900022D10699481C04290146099A0B9D059BC3
:1048A00000D2CEE60C981990189705231AE0002A3A
:1048B000184652D0D10002270020049D1446BA1E8B
:1048C0003346D340DA074AD17F1C08302D1D814280
:1048D000F5D100201BB0F0BD0C98199018970698E0
:1048E000431C0B9DFF20C0050740874200D10AE111
:1048F0000C9901408142099A05982ED02C4600253A
:10490000029F3D603D61FD603C7019981899796087
:10491000B86018A80090039804991793334604F0E0
:10492000C5FD179BF8603146080621404D19410E20
:1049300007D021404D19810E03D021404D19C10EE1
:10494000F2D1029A157456740020C0430999884028
:104950003043C0439074D37420461BB0F0BD791E21
:10496000C9B20022A14213921192109213460592ED
:10497000129200D396E0039908180A9002460C326E
:10498000291D00200346109011901290139080E092
:104990000AD7233C101F00680D900A9E34682146F8
:1049A0000F93169204F060F9014604F062F9159035
:1049B000169800680E9071680C9104F055F9014644
:1049C00004F057F914902868014604F01DFF0646CC
:1049D00017980068014604F017FF0146304604F0BE
:1049E00043F906462046214604F00EFF01463046B4
:1049F000089E04F039F904460D98014604F004FFBE
:104A0000214604F036F904460C98014604F0FCFEF9
:104A10000146204604F028F904460E98014604F0A9
:104A2000F3FE214604F025F90E90159C2046214600
:104A300004F0EAFE129904F01CF912902046149C2E
:104A4000214604F0E1FE139904F013F91390204677
:104A5000214604F0D9FE119904F00BF91190159834
:104A60000E9C214604F0D0FE109904F002F910903B
:104A700014982146099C04F0C7FE0F9904F0F9F838
:104A80001799169A0346F8B27F1C091D0832A042F6
:104A900008D01791781E3146C140C80700D079E789
:104AA0001799F0E70F930120C407139E3046314653
:104AB00004F0AAFE05461298119F394604F0A4FEA0
:104AC000294604F0D1F81790A0431D4905F078F964
:104AD000002818D17440FF20C5050F98214604F026
:104AE00093FE04461396109E3046394604F08CFE21
:104AF000214604F0BEF8179904F098FF07462840B5
:104B00001695A84202D105981BB0F0BD1398314606
:104B100004F07AFE044612980F9904F075FE2146BF
:104B200004F0A2F8179904F081FF0C901699084040
:104B30008842089E099A059800D07FE50DE7C04697
:104B4000BD3786356F12833A77CC2B320000FA439B
:104B5000F0B59FB00F9316460D460246701FC1B2C6
:104B60000020FD2900D277E2002A00D174E2002D56
:104B700000D171E225990991002900D16CE20E92D1
:104B8000249F002138460C4605F024F9002823D143
:104B9000FF22D10538460840884220460E9C00D1AD
:104BA0005AE20B920A910D9500200C90C043B04040
:104BB000C543D5490497384605F055FC022E0ED161
:104BC0000F98009009980190EBB2022220460D99AF
:104BD00004F0B6F81FB0F0BD20461FB0F0BD074688
:104BE0001AA80F99009101970290EBB220460D9DF3
:104BF00029463246FFF7F4FC002800D12BE2042EB0
:104C00000C9800D1A9E0032E00D025E22E461B9D72
:104C10001C9F2168284604F027F8014604F0F4FDA3
:104C20002146044649680C97384604F01DF80146B1
:104C300004F0EAFD0146204604F01BF804F04AFBAC
:104C4000316804F011F80446B048044000212046C1
:104C50000B9105F0D3F8002800D104460E9FB968E7
:104C6000284604F001F8014604F0CEFD0646F96836
:104C70000C9803F0F9FF014604F0C6FD01463046EA
:104C800003F0F7FF04F026FB0D99496803F0ECFFF1
:104C90000646F24806403046214605F0AFF8411E70
:104CA00002468A410792002800D126460E9F3969A4
:104CB000284603F0D9FF014604F0A6FD04467969B1
:104CC0000C9803F0D1FF014604F09EFD01462046FA
:104CD00003F0CFFF04F0FEFA0D9DA96803F0C4FFB6
:104CE0000446DE4804402046314605F087F841423C
:104CF00041410891002800D0264601200C90304602
:104D0000049905F07BF80028099F00D166E110A8FE
:104D10000F9E00960190032206230E9C20462946F2
:104D200004F00EF8002800D1CBE0002E00D193E073
:104D30001198316803F098FF014604F065FD0446C0
:104D40001298716803F090FF014604F05DFD014682
:104D5000204603F08EFF0A90AAE0089701200C90ED
:104D6000284600250B99C9050791274604460B954F
:104D700003950F9E04E06D1C0837241D042D48D0B8
:104D800001200A90A8400F21414010A80096089ADF
:104D900001920290CBB204220E980D99FFF720FCED
:104DA0000028E8D01198396803F05EFF014604F04E
:104DB0002BFD06461298796803F056FF014604F071
:104DC00023FD014630460F9E03F053FF04F082FAA4
:104DD000059013980690079904F0F2FF4142414173
:104DE0000B9808420C980B90C5D12168059803F0E8
:104DF0003BFF0A99C9078843039010A815A90CC85E
:104E00000CC14CC84CC10F9E069807900C980B9093
:104E1000B1E70398049904F0F1FF411E88410B9912
:104E20000140012911D17F20C105079803F021FF1E
:104E300004461D98FD21890504F0E6FC0146204644
:104E400004F0BEFF15A9002800D11AA9099C05C9C4
:104E500005C40DC90DC4FEE01198216803F004FFDC
:104E6000014604F0D1FC214604461298496803F03B
:104E7000FBFE014604F0C8FC0146204603F0F9FEA3
:104E800004F028FA296803F0EFFE04460120C00769
:104E900084433F200106204604F0B6FC0799002910
:104EA000214600D101460898002800D121460A91E8
:104EB00010A815A90CC80CC11CC81CC10C980B90DB
:104EC0000E9C10A800960190032205232046294637
:104ED00003F036FF00285CD0002E19D011983168FD
:104EE00003F0C2FE014604F08FFC0446129871687C
:104EF00003F0BAFE014604F087FC0146204603F0A9
:104F0000B8FE04460A9930E000001643FFFFFF7F19
:104F10001198A16803F0A8FE014604F075FC214633
:104F200004461298C96803F09FFE014604F06CFC29
:104F30000146204603F09DFE04F0CCF9696803F0B9
:104F400093FE06460120C00786433F2001063046F7
:104F500004F05AFC04460798002800D1344608980B
:104F600000280A9900D134460F9E204604F028FFFD
:104F7000414241410B9808420C980B9009D110A86E
:104F800015A90CC80CC12CC82CC10D9D0A940C98F5
:104F90000B9010A80096019003220E9C20462946F3
:104FA000134603F0CDFE002815D0002E18D011981E
:104FB000316803F059FE014604F026FC04461298BD
:104FC000716803F051FE014604F01EFC01462046C4
:104FD00003F04FFE2CE00B98002837D11AA836E0DA
:104FE0001198216903F040FE014604F00DFC2146B2
:104FF00004461298496903F037FE014604F004FCA8
:105000000146204603F035FE04F064F9A96803F078
:105010002BFE04460120C00784433F2001062046A2
:1050200004F0F2FB01462046089A002A00D1084607
:105030000A990B9C04F0C4FE414241410C4205D147
:1050400010A815A90CC80CC11CC81CC115A806C8FD
:1050500006C70EC80EC70C981FB0F0BDFFFFFF7F3C
:10506000F0B5F7B00D911690002800D170E21D4602
:10507000002B00D16CE27F981990C01EC0B240088E
:105080007F2800D264E216467D9822900627199860
:105090004743072141430591401EC2B2AB212192F3
:1050A0005143490A03220C925143401A401CC1B299
:1050B0002091032900D100207E9918917C991C91A0
:1050C00001211391199AD1000A91791E0491059931
:1050D000491E03912299090A1A91111A5300089343
:1050E0000C9B53430C93930007930523099353435D
:1050F0000693C0B21D90CCB20D9814900B970AE0A5
:10510000169905C9139990470B9F1498C0191490CC
:105110000E9E0F9D6D1C28780A2800D1E2E00D2814
:10512000F8D0002800D113E201467F395E22D24335
:1051300091420F9500D23F2009994843EC4940180D
:10514000A0381E9035B230461499084300B20028AA
:105150000E9600D5CCE01898002800D1C8E014982D
:1051600001B27818169A128B904200DDC0E00598C3
:105170004019169A528B904200DDB9E00498149AB7
:105180008018039A921912B2009203B216982A4616
:1051900002F096FF002800D1AAE01E98401C1B9048
:1051A00000273846159704E01298401C072800D1C4
:1051B0008FE11399129081401F91159A05E0179A7B
:1051C000521CD0B219998842EED21792159A07E074
:1051D00023ABFE1819543F1DF570D21C062AEED0E1
:1051E0001E98805C1F990840229900D01C990D0AD6
:1051F000219802280DD3002023AEF319F5555970DC
:105200009D70D9701D71BF1D5971C01CC3B2A342DE
:10521000F2D1209803280ED023A8C319C555B81C75
:1052200059701D9B012B01D1074604E023ABFE18EA
:105230001D543F1DF1701B98805C1F9908402299F6
:1052400000D01C990D0A219802280DD3002023AB11
:10525000DE19DD557170B570F1703571BF1D71715A
:10526000C01CC3B2A342F2D1209803280ED023A8B9
:10527000C319C555B81C59701D9B012B01D1074698
:1052800004E023ABFE181D543F1DF170901C05284F
:10529000229D1A9907D01E99085C1F990840229DEB
:1052A00000D01C9D290A219802280DD3002023AB91
:1052B000DE19D9557570B170F5703171BF1D7571FA
:1052C000C01CC3B2A342F2D12098032885D023A8E2
:1052D000C319C155B81C5D701D9B012B00D077E729
:1052E00007467AE70A9836180D9814906D1C12E755
:1052F0001998301800B21B900898301800B2179017
:105300000C98301800B215900798301800B212901F
:105310000698301800B21190F01900B210900021D8
:105320000F462E460EE0199B0093019016981F9988
:10533000109A02F0D5F97F1C199829462918062FD2
:1053400000D1E1E614980D46401800B21F90052FD9
:105350002AD118980028229832D1052F3AD11898CE
:105360000028229842D1052F4AD118980028229867
:1053700052D1052F5AD118980028229862D1052FB2
:105380006AD118980028229872D1052F7AD11898DE
:105390000028229800D082E0052F00D08AE01898DB
:1053A00000282298BFD1C6E71E98C15D139801401E
:1053B0001C9800D12298002902D118990029CCD03C
:1053C000199B0093019016981F99324602F088F9B4
:1053D000052FC4D01E98C05D022101401C9800D149
:1053E0002298002902D118990029BCD0199B00935A
:1053F000019016981F991B9A02F072F9052FB4D0EC
:105400001E98C05D042101401C9800D122980029FB
:1054100002D118990029ACD0199B009301901698DD
:105420001F99179A02F05CF9052FA4D01E98C05D51
:10543000082101401C9800D12298002902D1189916
:1054400000299CD0199B0093019016981F99159ADA
:1054500002F046F9052F94D01E98C05D102101403E
:105460001C9800D12298002902D1189900298CD0CB
:10547000199B0093019016981F99129A02F030F927
:10548000052F84D01E98C05D202101401C9800D1BA
:105490002298002903D11899002900D17CE7199B93
:1054A0000093019016981F99119A02F019F9052F8F
:1054B00000D174E71E98C05D402101401C9800D1C6
:1054C0002298002900D02EE71899002900D132E750
:1054D00029E7169D05CD0021083D9047AA68286858
:1054E00013999047002F00D10AE623AE0DE0C04685
:1054F0004CB10000F619169803690068314617464A
:105500009847F619EF1B00D1FAE5802F3D4600D3EE
:10551000802516980369006831462A469847812FEE
:1055200000D2EDE528467D1B802D2F4600D3802735
:10553000361816980369006831463A469847812D17
:1055400000D2DDE5ED1B802D2A46D3D38022D1E7A2
:1055500077B0F0BDF0B5E3B008920A910C90002846
:1055600000D1A5E118467F385E21C943884200D2A8
:105570003F236A980E90699C68980D9005205843C7
:10558000CC494018A038099008980A9908430B9410
:1055900000D5CCE00E98002800D1C8E00A98401D44
:1055A0000C99098B884200DBC1E00899891D0C9A8F
:1055B000528B914200DBBAE009B2009103B20C9821
:1055C0000A99089A02F07CFD002800D1AFE0200A79
:1055D0000E90099801780A91417808918178079195
:1055E000C17806910579002007460BE00A0A2023BE
:1055F000F2542122B15422210E9A725424372321CD
:105600007454C01C0126864031460A9A1140224635
:1056100000D00D9A130A0FACE119E3554A703246D7
:10562000089B1A400B9C224600D00D9A130A8B70DF
:10563000CA703246079B1A40224600D00D9A130AC0
:105640000B714A713246069B1A40224600D00D9AD1
:10565000130A8B71CA712E40224600D00D9A130A8C
:105660000B724A720E9A8A72CC72482F00D10DE1E9
:10567000022181400A460A9B1A40224600D00D9A18
:10568000130A0FACE619337372730A46089B1A406B
:105690000B9C224600D00D9A130AB373F2730A468C
:1056A000079B1A40224600D00D9A130A3374727475
:1056B0000A46069B1A40224600D00D9A130AB3747C
:1056C000F2742940214600D00D990A0A327571758D
:1056D0000E99B175F475042181400A460A9B1A405F
:1056E000224600D00D9A130A337672760A46089B3A
:1056F0001A40224600D00D9A130AB376F2760A4673
:10570000079B1A40224600D00D9A130A337772770E
:105710000A46069B1A40224600D00D9A130AB37718
:10572000F2772940214600D160E70D995EE708999C
:10573000481C00B20790881C00B20690C81C00B23A
:105740000590081D00B20490481D00B20390881D0A
:1057500000B2029000260AE0009701900C982946BA
:10576000029A3B4601F0BCFF761C052E7DD00998BD
:10577000845D0A98301805B201272046384002D1CE
:105780000E9900290BD000280D9800D10B98009796
:1057900001900C982946089A3B4601F0A1FF02208F
:1057A000204002D10E9900290BD000280D9800D17D
:1057B0000B98009701900C982946079A3B4601F0F8
:1057C0008FFF0420204002D10E9900290BD0002821
:1057D0000D9800D10B98009701900C982946069AD5
:1057E0003B4601F07DFF0820204002D10E990029A0
:1057F0000BD000280D9800D10B98009701900C98C1
:105800002946059A3B4601F06BFF1020204002D14B
:105810000E9900290BD000280D9800D10B98009705
:1058200001900C982946049A3B4601F059FF20202C
:10583000204002D10E9900290BD000280D9800D1EC
:105840000B98009701900C982946039A3B4601F06B
:1058500047FF4020044002D10E98002884D0002C3D
:105860000D9800D078E70B9876E70E9800281FD0A7
:105870000A98401D072100910B99019101B2012363
:105880000C98089A01F02CFF63B0F0BD0C9C05CC7D
:105890000021083C9047A2682068012529469047CE
:1058A000236920680FA95422984705CC29469047C0
:1058B00063B0F0BD4CB10000F0B589B0002800D154
:1058C000D3E00168C94A914200D0D1E08188012229
:1058D0001302994200D0CEE0C188E1239B00994297
:1058E00000D0CBE0017A4B1FDBB20526FD2B00D2A6
:1058F000C7E0477A0023002F0DD03D462C06154007
:10590000EB18650E07D01540EB18A50E03D0154017
:10591000EB18E50EF2D1DAB28A4200D0B1E002967D
:105920006921C90041180191FF21CE05014674315A
:10593000059100240690089603973946E140C9076F
:105940000BD0E10041180A693240B24200D19EE01A
:1059500049693140B14200D199E07021614302466A
:10596000411830200B5C0620032B0790049436D09E
:10597000022B1AD0012B00D032E14A6B3240B242E6
:1059800000D12DE18D6B2846994904F023FA0028B7
:105990007AD00021284604F027FA002874D0354038
:1059A000B5420798069A0FD11AE14B6B3340B342C8
:1059B00000D115E18B6B3340B34200D110E1C96BCC
:1059C0003140B14200D10BE1049C641C0598703059
:1059D0000590042C1046089E039FAED15AE0312258
:1059E0008C5C22460D3A0A23DB439A4200D2F7E050
:1059F0000A6C3240B24200D1F2E00D6F002128461D
:105A000004F0DEF900283FD13540B542079800D1B7
:105A1000E6E0641E059F394630390E683146089A23
:105A20001140914200D1DBE03D680021284604F09E
:105A3000C7F9002828D1284608990840884223D071
:105A4000384634380168304604F0C4F900281BD1C8
:105A5000381F0168284604F0B3F9002814D13F1D0F
:105A6000641E0798069AD6D1AEE7012009B0F0BDB2
:105A7000022009B0F0BD032009B0F0BD042009B038
:105A8000F0BD304609B0F0BD079809B0F0BD0298EE
:105A900009B0F0BD03F0B6F901460720002900D196
:105AA0009EE00446019805685249284604F092F9A0
:105AB000002800D196E00021284604F095F900283E
:105AC00000D18FE03540B54200D18BE001984568A8
:105AD0004849284604F07EF9002800D182E00021E0
