:1000000000802020ED440000C7240000C724000029
:1000100000000000000000000000000000000000E0
:10002000000000000000000000000000C7240000E5
:100030000000000000000000C7240000354400005C
:10004000C7240000C7240000C7240000093D0000A9
:10005000C7240000C7240000C7240000C7240000F4
:1000600000000000C7240000C724000000000000BA
:10007000000000005D3D0000B13B0000C72400000F
:10008000C7240000C7240000C7240000C7240000C4
:10009000C7240000C724000000000000000000008A
:1000A000C7240000C724000000000000000000007A
:1000B000C724000000000000C7240000C72400007F
:1000C000F0B5FFB0A2B01F46144601910D90A6985E
:1000D00007908000DB490E585D1ED01E182100914C
:1000E00003F092FDC11788431721C94341430A1900
:1000F000411B13910A9675190C9080001297B90054
:10010000401AD1494018061D002764AC0992AF423D
:100110000EDC1398C01904D4306804F069F8099A09
:1001200001E00020014603C47F1C0034361DEEE7C9
:100130001298C00064A94418083C00230A9FBB42DF
:100140001FDC109300250D9F119413952E461298D5
:1001500085420FDA03CF0CCC083C083F02F02AFCA2
:10016000139A334602F0B5F913900E466D1C083C05
:100170000837ECE704F056F95B1C119C0834099A27
:10018000DCE71046183806903020801A03902F20A4
:10019000801A02908DA8011FB800059108180490DC
:1001A0003A46D60014A8811983594968083E8DAF94
:1001B0000B921392139801282ADB119710960026B0
:1001C00018460C4632460E93A04B02F0F3FB03F0A8
:1001D0003BFE04F00DF80F900D463246109E119F25
:1001E0009B4B02F0E7FB0E9A234602F072F903F0F4
:1001F0002BFE01C71398401E139014A88119805933
:1002000049680F9A2B4602F064F90346083ED1E78D
:100210001846069F3A4602F0FDFD04460D46FF20B3
:10022000830500262046324602F0C4FB02F016FA8F
:100230000E963246874B02F0BDFB22462B4602F05B
:1002400048F904460D4603F0FFFD064603F0D0FFD3
:1002500002460B462046294602F036F91390012F3C
:1002600011915CDB0B9880008DA94018001F01687C
:100270000A46039B1A41961908969A40891A01600A
:10028000029801410A9D744E0E91012953DB00240E
:100290008DA821460B9A91420EDA0268002C334653
:1002A00002D1002A06D0731C9A1A02600124491C4C
:1002B000001DEFE70024FAE7069801280899674F28
:1002C0000B9B0EDB099A192A654802D01A2A08D11D
:1002D000644899008DAA8918091F0A6802400A60BB
:1002E0000899491C08910E98022824D1002039460B
:1002F000139A119B02F0E8F8064602200E90002C9B
:100300007CD000200C463946069A02F083FD024656
:100310000B463046214602F0D7F807460DE0089616
:10032000002F0A9D5FD013980E9AF04B03F0FAFB52
:100330000028ED4E5FD1139F1199002438460E46D8
:100340002246234603F0D0FB002859D00B9EB00074
:10035000059909183246AA4204DD521E0B681C4357
:10036000091FF8E7002C0499324660D10868521C36
:10037000091F0028FAD012988019C00064A90F182C
:100380000F92711C964200DB0BE70C981091081835
:100390008000D449085803F02BFF129AB218D200FB
:1003A00064AB9C1898506160002511970D9C1395C3
:1003B0002E46129885420FDA03CC0CCF083F083C3A
:1003C00002F0F8FA139A334602F083F813900E46BF
:1003D0006D1C0834083FECE704F024F8119F08373F
:1003E0001E460F9ACDE70B9880008DA94018001F7C
:1003F0000068C11547E702200E9048E737469CE7A2
:100400003946099F0098C21B0846314602F002FD9A
:1004100005460C460022B74B03F084FB002823D18D
:100420002846214603F010FD06460B9F39E08DA9B2
:100430000818001F069A183A761E0168001F002946
:10044000F9D033E060480000DC4600000000703E58
:10045000000070C1000020C0FFFFFF000000F03F5F
:10046000FFFF7F00FFFF3F000027A34B28462146E8
:100470003A4602F09FFA03F0E7FC064603F0B8FEA6
:100480009E4B3A460B9F02F095FA2A46234602F00D
:1004900020F803F0D9FCB9008DAA50507F1C0998B0
:1004A0000690B8008DA90E50069A3E46002090494D
:1004B0000C9002F0AFFC3446B600E5000B942246E7
:1004C000002A1DD407468DA8805913960C4616465F
:1004D00003F08EFE02460B463846214602F06AFAC9
:1004E00014AA531950515960002238462146824BB4
:1004F00002F060FA3246139E521E361F083DDFE7B7
:100500000B9FF90014A80D9144183A46002A079948
:100510000A982CD41092B91A8842129000DB1291DA
:100520000F9100211194764E0F460D46129881428C
:1005300011DC3068139171680CCC083C02F03AFA77
:100540003A462B4601F0C5FF07460D461399491C54
:1005500008360834EAE70F98C0003CA90A180F5083
:100560005560109A521E119C083C0B9FCEE7481E06
:1005700002281ED3002954D0032900D0ACE03CA8A7
:100580000D990C18083C3846002858DD03F0CAFEC7
:1005900002460F462846314615463B4601F094FF79
:1005A00003F06FFFA0C40B9F206013986160103CA4
:1005B000EAE7FE0000242546002F0CD43CA8811950
:1005C00082594B682046294601F083FF04460D46B8
:1005D0007F1E083EF0E701260E980028284601D02D
:1005E000F007684001990C6048603C983D992246AC
:1005F0002B4601F069FF3CAC08340B9DAE4206DC93
:100600000CCC083C01F065FF761C0834F6E70E9A26
:10061000002A02D00122D2075140019A9060D16095
:100620005AE0F8003CA90C1800200146002F21D404
:100630000CCC083C01F04DFF7F1E083CF6E73CA8BF
:100640000D990C18083C384601281CDD03F06AFEA1
:1006500007460B46284631463A461D4601F034FF10
:1006600003F00FFF27600B9F6560A0601398E160A7
:10067000083CE9E70E9A002A02D00122D207514035
:10068000019A03C228E00C980146022F0ADB3CAA1B
:100690000D9C131912595B6801F01BFF7F1E083C6B
:1006A0000D94F2E706463D983C9A0E9B002B0CD029
:1006B0000123DB0758403E9C3F9D5D405940019B14
:1006C0001A601A1D71C2596106E03E9B3F9C019D54
:1006D0002A602A1D59C269610721089808407FB025
:1006E00022B0F0BDDC460000FFFFFF000000E03F4D
:1006F0000000F03F000070410000703E000070C13B
:10070000E8470000F0B583B00024002800D19AE249
:10071000002900D197E24A68002A00D193E28A6852
:10072000002A00D18FE2CA68002A00D18BE20A6950
:10073000002A00D187E24A69002A00D183E201241D
:100740000022026042608260C26002614261826196
:100750001746024668C968C268C968C2FC49816117
:1007600006C808380546084621469047AA68286802
:1007700021469047EA682868214690476A692868B8
:1007800005219047EA6828683E46394690476A69DD
:10079000286814219047EA682868214690476A69CA
:1007A000286896210191904702AF3C7005CD0096D4
:1007B0003146083D9047AA682868314690472B6922
:1007C000286839462246984705CD2146083D90477E
:1007D0006A6928680199904702AE1120307005CDF2
:1007E000009F3946083D9047AA68286839469047D7
:1007F0002B69286831462246984705CD2146083D99
:1008000090476A6928687821904702AEB12030701D
:1008100005CD3946083D9047AA6828683946904773
:100820002B692868314622469847AA6828682146DD
:1008300090472B692868C74903220192984705CD44
:100840002146083D904702AEB220307005CD3946B2
:10085000083D9047AA682868394690472B69286860
:10086000314622469847AA682868214690472B6956
:100870002868F649019A984705CD2146083D9047DA
:1008800002AEB320307005CD3946083D9047AA68C6
:100890002868394690472B69286831462246984790
:1008A000AA682868214690472B692868E8490622EB
:1008B000984705CD2146083D904702AEB4203070E0
:1008C00005CD3946083D9047AA68286839469047C3
:1008D0002B692868314622469847AA68286821462D
:1008E00090472B692868DB492246984705CD214669
:1008F000083D904702AEC020307005CD3946083D16
:100900009047AA682868394690472B69286831467D
:1009100022469847AA682868214690472B6928688C
:10092000CD49019A984705CD2146083D904702AE32
:10093000C120307005CD3946083D9047AA68286827
:10094000394690472B692868314622469847AA685D
:100950002868214690472B692868C0492246984755
:1009600005CD2146083D904702AEC220307005CD2E
:100970003946083D9047AA682868394690472B6950
:100980002868314622469847AA6828682146904739
:100990002B692868B24902220192984705CD214669
:1009A000083D904702AEC320307005CD3946083D62
:1009B0009047AA682868394690472B6928683146CD
:1009C00022469847AA682868214690472B692868DC
:1009D000A449019A984705CD2146083D904702AEAB
:1009E000C420307005CD3946083D9047AA68286874
:1009F000394690472B692868314622469847AA68AD
:100A00002868214690472B6928689749019A98479A
:100A100005CD2146083D904702AEC520307005CD7A
:100A20003946083D9047AA682868394690472B699F
:100A30002868314622469847AA6828682146904788
:100A40002B69286889492246984705CD2146083DEB
:100A5000904702AE2020307005CD3946083D9047C2
:100A6000AA682868394690472B692868314622468B
:100A7000984705CD2146083D904702AE3A20307098
:100A800005CD3946083D9047AA6828683946904701
:100A90002B692868314622469847AA68286821466B
:100AA00090472B69286872492246984705CD214610
:100AB000083D904702AE3620307005CD3946083DDE
:100AC0009047AA682868394690472B6928683146BC
:100AD00022469847AA682868214690472B692868CB
:100AE00064492246984705CD2146083D904702AE0D
:100AF0002A20307005CD3946083D9047AA682868FD
:100B0000394690472B692868314622469847AA689B
:100B10002868214690472B6928685749042201928A
:100B2000984705CD2146083D904702AE2B203070F6
:100B300005CD3946083D9047AA6828683946904750
:100B40002B692868314622469847AA6804E0C046C7
:100B50008000A000414900002868214690472B6989
:100B600028684649019A984705CD2146083D904797
:100B700002AEE020307005CD3946083D9047AA68A6
:100B80002868394690472B6928683146224698479D
:100B9000AA682868214690472B692868384910229E
:100BA0000192984705CD2146083D904702AEE120CD
:100BB000307005CD3946083D9047AA682868394607
:100BC00090472B692868314622469847AA682868CA
:100BD000214690472B6928682A49019A984705CDF4
:100BE0002146083D904702AE1320307005CD3946AE
:100BF000083D9047AA682868394690472B692868BD
:100C000031462246984705CD2146083D90476A69FE
:100C100028680A21904702AE2920307005CD394658
:100C2000083D9047AA682868394690472B6928688C
:100C300031462246984705CD2146083D90476A69CE
:100C4000286864219047204603B0F0BD4149000068
:100C5000024900005B490000444900005D49000072
:100C60004F49000051490000534900005C49000011
:100C70005E490000DB460000E44700003D490000FB
:100C80008048000070480000F0B59BB0002800D1FB
:100C900090E20C46002900D18CE207460668002E3F
:100CA00000D187E27879002806D06068B968401AD8
:100CB00080087D2800D27DE2EA480990012010904A
:100CC000387900280F970E947FD1A0200090E64835
:100CD0000190002480273046214622463B4601F001
:100CE00025FB0E250095E14801903046214622461D
:100CF0003B460F9F01F01AFBDA481F3080B200908C
:100D0000DA48019010980290D94B1C2104223046F9
:100D100002F0A5FFD448433880B2009501907F23AC
:100D2000304621462A4600F0EDFFD24D0095CE48D0
:100D30000190109D0295D04B072413223046214686
:100D400002F08DFFCB480090C74801900295CB4B35
:100D50001E223046214602F082FFC6480090C2485B
:100D600001900295C64B29223046214602F077FFBA
:100D7000C0480090BC4801900295C24B7122304699
:100D8000214602F06CFFBB480090B74801900295E5
:100D9000BD4B7D223046214602F061FF3322009296
:100DA000BA48019005247A25304621462B4600F0AA
:100DB000A9FF6C220092B5480190304621462B468F
:100DC0000E9C00F09FFF10983871207816A90C91A6
:100DD00003F0D8F914A90A91204602F0E7FF11A9FF
:100DE000204602F04FFA3C6809260096FB4F019717
:100DF0003E210D9112223D230B93204601F096FADD
:100E000038464338049080B2089000900197109FB4
:100E1000029741251322204629460C9B02F01FFF12
:100E20000F9804680C960096EC4801901D2220460D
:100E30000D990B9B01F07AFA08980090E748019011
:100E400002972F461E222046294608920A9B02F04E
:100E500006FF0F9804680E9D284603F0DFF90A90FC
:100E6000284603F0DBF90078462801D0D74E00E091
:100E7000DB4E5028D94D01D12E46623E0C98009091
:100E80000195282220460D990B9B01F04FFAB0B234
:100E900000900195109D02952922204639460A9B13
:100EA00002F0DDFE0F9806680E98407C079038200F
:100EB0000090C94C019406213422059274233046D7
:100EC00001F034FAC24800A931C1C64B07213722CC
:100ED0000A92304602F0C3FE46200B900090BD48B7
:100EE00001900446502206922227304608993B463C
:100EF00000F008FF0D9D009501942A2430463946E4
:100F00000B9A234600F0FEFE39270097B148019066
:100F1000304621462A46059C234600F0F3FE0A98F7
:100F20000090AC4801904025304621463A462B4679
:100F300000F0E8FE0097A74801904C243046089541
:100F400029460A9A234600F0DDFE0D980090A1483C
:100F500001905625304621463A462B4600F0D2FEF7
:100F60000B9F00979B4801905E24304629460D9ABE
:100F7000234600F0C7FE0698009096480190622331
:100F8000304621463A4600F0BDFE079800288F4FB4
:100F900000D0049F1F250E9C607C002803D1A07CFC
:100FA000002800D108E10B950D96E46B8E4D20468C
:100FB000294602F0D5FD002808D18C4E2046314646
:100FC00002F0ECFD0028254600D035468849284629
:100FD00002F06EFB054601F0C5F8864E314602F080
:100FE00067FB8521C90501F086FF03F0AFF80446D1
:100FF000284600F0CDFF314602F05AFB01467E48FC
:1010000001F074FF03F0A2F8BDB2009001954021F9
:1010100050220D9E3046234600F074FE05230093B7
:1010200001953E214E22304601F080F90E9C0B9D29
:10103000E8020A9018A9204601F09EFD0020109BAE
:1010400018A9095C002924D018A909184978002991
:101050001ED018A909188978C01C0029F0D1401E9B
:1010600017E0C046E0FF000042080000A5100000A5
:1010700090480000718C0000ED480000E648000038
:10108000244900003849000033490000692A000063
:10109000401C5A494843803040080222B9B20091AE
:1010A0004D49019102930B92039201B2582218AB61
:1010B000304600F0A7F80F9D2F680C980090474E1F
:1010C00001963E2170223D2338460D91079301F091
:1010D0002DF93446433CA0B200900196109802903E
:1010E0004126712211AB3846314602F0B8FD2F6817
:1010F0000E9D287A03F0FAF80690287A002800D08E
:1011000009940C980090354C01947C2238460D9936
:10111000079B01F00BF9099880B200900194109898
:1011200002907D2238463146069B02F098FD0F98CA
:1011300000680D90687A03F047F907466D7A022D32
:101140000A9901D1623C214614208EB2009001968A
:1011500000248C2280230D98214601F0E7F8002F0F
:10116000089911D0385D00280AD038194178002933
:1011700005D08078E41C0028F4D1641E00E0641CD3
:101180001E486043803041080196109E02960B98DD
:101190000390022D01D1002000E019480E9C009020
:1011A00009B28F220D983B4600F02CF860680F9929
:1011B00088604E711BB0F0BD4E2200920348019032
:1011C0003A214623304600F09DFD31E7E0FF000064
:1011D000718C0000692A0000A51000004208000080
:1011E00000F8FFFF0E490000000070C200007042CE
:1011F00035FA8E3C0000B0410000A042F4FF01002F
:10120000FFFF0000F0B5F7B00D911690002800D157
:1012100070E21D46002B00D16CE27F981990C01E31
:10122000C0B240087F2800D264E216467D98229022
:10123000062719984743072141430591401EC2B232
:10124000AB2121925143490A03220C925143401A87
:10125000401CC1B22091032900D100207E99189131
:101260007C991C9101211391199AD1000A91791E40
:1012700004910599491E03912299090A1A91111A9C
:10128000530008930C9B53430C939300079305233F
:10129000099353430693C0B21D90CCB20D9814909D
:1012A0000B970AE0169905C9139990470B9F14985C
:1012B000C01914900E9E0F9D6D1C28780A2800D12D
:1012C000E2E00D28F8D0002800D113E201467F3972
:1012D0005E22D24391420F9500D23F2009994843A4
:1012E000EC494018A0381E9035B230461499084396
:1012F00000B200280E9600D5CCE01898002800D146
:10130000C8E0149801B27818169A128B904200DD4A
:10131000C0E005984019169A528B904200DDB9E062
:101320000498149A8018039A921912B2009203B288
:1013300016982A4601F0C0FA002800D1AAE01E98AB
:10134000401C1B9000273846159704E01298401C5B
:10135000072800D18FE11399129081401F91159AAF
:1013600005E0179A521CD0B219998842EED2179212
:10137000159A07E023ABFE1819543F1DF570D21CD7
:10138000062AEED01E98805C1F990840229900D052
:101390001C990D0A219802280DD3002023AEF319C1
:1013A000F55559709D70D9701D71BF1D5971C01CC4
:1013B000C3B2A342F2D1209803280ED023A8C319A8
:1013C000C555B81C59701D9B012B01D1074604E07F
:1013D00023ABFE181D543F1DF1701B98805C1F99B4
:1013E0000840229900D01C990D0A219802280DD39B
:1013F000002023ABDE19DD557170B570F1703571C9
:10140000BF1D7171C01CC3B2A342F2D12098032842
:101410000ED023A8C319C555B81C59701D9B012BAC
:1014200001D1074604E023ABFE181D543F1DF170A7
:10143000901C0528229D1A9907D01E99085C1F99B7
:101440000840229D00D01C9D290A219802280DD316
:10145000002023ABDE19D9557570B170F57031716C
:10146000BF1D7571C01CC3B2A342F2D120980328DE
:1014700085D023A8C319C155B81C5D701D9B012BD5
:1014800000D077E707467AE70A9836180D98149047
:101490006D1C12E71998301800B21B90089830188C
:1014A00000B217900C98301800B2159007983018B9
:1014B00000B212900698301800B21190F01900B2E4
:1014C000109000210F462E460EE0199B00930190CC
:1014D00016981F99109A00F029FF7F1C1998294629
:1014E0002918062F00D1E1E614980D46401800B2E5
:1014F0001F90052F2AD118980028229832D1052F45
:101500003AD118980028229842D1052F4AD118982C
:101510000028229852D1052F5AD1189800282298D5
:1015200062D1052F6AD118980028229872D1052F10
:101530007AD118980028229800D082E0052F00D098
:101540008AE0189800282298BFD1C6E71E98C15D8E
:10155000139801401C9800D12298002902D11899B3
:101560000029CCD0199B0093019016981F99324600
:1015700000F0DCFE052FC4D01E98C05D02210140A2
:101580001C9800D12298002902D118990029BCD0BA
:10159000199B0093019016981F991B9A00F0C6FEA4
:1015A000052FB4D01E98C05D042101401C9800D1C5
:1015B0002298002902D118990029ACD0199B0093D8
:1015C000019016981F99179A00F0B0FE052FA4D02D
:1015D0001E98C05D082101401C9800D12298002966
:1015E00002D1189900299CD0199B0093019016985C
:1015F0001F99159A00F09AFE052F94D01E98C05D91
:10160000102101401C9800D12298002902D118997C
:1016100000298CD0199B0093019016981F99129A5B
:1016200000F084FE052F84D01E98C05D202101406B
:101630001C9800D12298002903D11899002900D1C3
:101640007CE7199B0093019016981F99119A00F05E
:101650006DFE052F00D174E71E98C05D402101404A
:101660001C9800D12298002900D02EE71899002953
:1016700000D132E729E7169D05CD0021083D9047AE
:10168000AA68286813999047002F00D10AE623AE74
:101690000DE0C04600450000F61916980369006881
:1016A000314617469847F619EF1B00D1FAE5802F0F
:1016B0003D4600D3802516980369006831462A46C6
:1016C0009847812F00D2EDE528467D1B802D2F46BF
:1016D00000D38027361816980369006831463A46C9
:1016E0009847812D00D2DDE5ED1B802D2A46D3D30E
:1016F0008022D1E777B0F0BDF0B5E3B008920A914F
:101700000C90002800D1A5E118467F385E21C9431E
:10171000884200D23F236A980E90699C68980D9089
:1017200005205843CC494018A038099008980A99D8
:1017300008430B9400D5CCE00E98002800D1C8E0F7
:101740000A98401D0C99098B884200DBC1E008997A
:10175000891D0C9A528B914200DBBAE009B20091CC
:1017600003B20C980A99089A01F0A6F8002800D153
:10177000AFE0200A0E90099801780A91417808910B
:1017800081780791C17806910579002007460BE022
:101790000A0A2023F2542122B15422210E9A7254B3
:1017A000243723217454C01C0126864031460A9AEE
:1017B0001140224600D00D9A130A0FACE119E355EF
:1017C0004A703246089B1A400B9C224600D00D9A64
:1017D000130A8B70CA703246079B1A40224600D00B
:1017E0000D9A130A0B714A713246069B1A40224623
:1017F00000D00D9A130A8B71CA712E40224600D078
:101800000D9A130A0B724A720E9A8A72CC72482F82
:1018100000D10DE1022181400A460A9B1A4022466E
:1018200000D00D9A130A0FACE619337372730A468F
:10183000089B1A400B9C224600D00D9A130AB373E2
:10184000F2730A46079B1A40224600D00D9A130AEB
:10185000337472740A46069B1A40224600D00D9AD1
:10186000130AB374F2742940214600D00D990A0A74
:10187000327571750E99B175F475042181400A466F
:101880000A9B1A40224600D00D9A130A33767276CC
:101890000A46089B1A40224600D00D9A130AB376D6
:1018A000F2760A46079B1A40224600D00D9A130A88
:1018B000337772770A46069B1A40224600D00D9A6B
:1018C000130AB377F2772940214600D160E70D99DA
:1018D0005EE70899481C00B20790881C00B2069089
:1018E000C81C00B20590081D00B20490481D00B24B
:1018F0000390881D00B2029000260AE00097019034
:101900000C982946029A3B4600F010FD761C052EE5
:101910007DD00998845D0A98301805B201272046C9
:10192000384002D10E9900290BD000280D9800D123
:101930000B98009701900C982946089A3B4600F0B6
:10194000F5FC0220204002D10E9900290BD000287E
:101950000D9800D10B98009701900C982946079A92
:101960003B4600F0E3FC0420204002D10E99002900
:101970000BD000280D9800D10B98009701900C987F
:101980002946069A3B4600F0D1FC0820204002D1AF
:101990000E9900290BD000280D9800D10B980097C4
:1019A00001900C982946059A3B4600F0BFFC102098
:1019B000204002D10E9900290BD000280D9800D1AB
:1019C0000B98009701900C982946049A3B4600F02A
:1019D000ADFC2020204002D10E9900290BD0002818
:1019E0000D9800D10B98009701900C982946039A06
:1019F0003B4600F09BFC4020044002D10E9800289A
:101A000084D0002C0D9800D078E70B9876E70E98DC
:101A100000281FD00A98401D072100910B990191C1
:101A200001B201230C98089A00F080FC63B0F0BD6D
:101A30000C9C05CC0021083C9047A2682068012539
:101A400029469047236920680FA95422984705CC5E
:101A50002946904763B0F0BD00450000F0B585B061
:101A6000A34EA44C012257061305A44D20681F2144
:101A700009068843206004929204002003931946CB
:101A800002F026FC99489C490160422430683842A3
:101A900000D083E0284602F0EFFC306838427DD168
:101AA000284602F0E9FC3068384277D1284602F037
:101AB000E3FC3068384271D1284602F0DDFC306822
:101AC00038426BD1284602F0D7FC3068384265D1E5
:101AD000284602F0D1FC306838425FD1284602F037
:101AE000CBFC3068384259D1284602F0C5FC30683A
:101AF000384253D1284602F0BFFC306838424DD1FD
:101B0000284602F0B9FC3068384247D1284602F036
:101B1000B3FC3068384241D1284602F0ADFC306851
:101B200038423BD1284602F0A7FC3068384235D114
:101B3000284602F0A1FC306838422FD1284602F036
:101B40009BFC3068384229D1284602F095FC306869
:101B5000384223D1284602F08FFC306838421DD12C
:101B6000284602F089FC3068384217D1284602F036
:101B700083FC3068384211D1284602F07DFC306881
:101B800038420BD1284602F077FC3068384205D144
:101B9000284602F071FC163C00D077E75548806972
:101BA00002900498420400200190039902F090FBF7
:101BB0004E485149016042243068384200D083E0E9
:101BC000284602F059FC306838427DD1284602F0A0
:101BD00053FC3068384277D1284602F04DFC30681B
:101BE000384271D1284602F047FC306838426BD148
:101BF000284602F041FC3068384265D1284602F0A0
:101C00003BFC306838425FD1284602F035FC306832
:101C1000384259D1284602F02FFC3068384253D15F
:101C2000284602F029FC306838424DD1284602F09F
:101C300023FC3068384247D1284602F01DFC30684A
:101C4000384241D1284602F017FC306838423BD177
:101C5000284602F011FC3068384235D1284602F09F
:101C60000BFC306838422FD1284602F005FC306862
:101C7000384229D1284602F0FFFB3068384223D190
:101C8000284602F0F9FB306838421DD1284602F0A0
:101C9000F3FB3068384217D1284602F0EDFB30687C
:101CA000384211D1284602F0E7FB306838420BD1A8
:101CB000284602F0E1FB3068384205D1284602F0A0
:101CC000DBFB163C00D077E70A488169173502989C
:101CD0004543284602F046F9094940180B2801D32C
:101CE00001980490049805B0F0BDC0462C030B4049
:101CF00004020B4038010B400100000ED10300002C
:101D000035F8FFFFF0B58BB00490002800D13DE11D
:101D100016460F46012000217F2F044600D80C46AE
:101D2000002F024600D4620015469F2E00D90835C8
:101D3000002E00D5151D7F2B024600D80A461099AB
:101D40000A91002B00D450000A9902469F2900D91D
:101D500008320A99002900D5021D1146294348423C
:101D600048412A4200D08AE0002900D187E02806B5
:101D7000069200D02A46D4B25007099305960797D9
:101D800015D4200721D40A98801BDA1BA1070892DA
:101D90002BD4D1170391C1177A42D31702F066FAF8
:101DA000089A039B02F0E8FA361800272BE0D81BAC
:101DB000C1177242D31702F059FA0A9A921BD3172D
:101DC00002F0DAFA3F1800261DE0D81BC11737468B
:101DD0009F26F21BD31702F049FA0A9AD21BD31797
:101DE00002F0CAFA07990F180DE0D1170391C11735
:101DF0003A467F27BA1AD31702F038FA089A039B9B
:101E000002F0BAFA361801217F2F084600D80020C8
:101E1000002F00D4410008469F2E00D90830002E24
:101E200000D5081DE9B28C42089701D0079A0892A4
:101E30008C42079601D0059A07928C4200D00997F0
:101E40002A468C420A9B00D033468C42054600D07D
:101E500015460A938C42069900D00146EBB20A4619
:101E6000CCB221461943484248411C42099B09D142
:101E7000002908990F46079C264605D077E7394682
:101E8000344601E00899079C099300287ED01198F8
:101E900006900A9FBC4212D12546099CA1420846E1
:101EA00000DB2046A14200DC2146091A491C012220
:101EB0000092069A01920BB201B22AB213E0099D78
:101EC0008D4215D1BC42204600DB38460B46BC4251
:101ED00000DC3C46211A491C09B200910699019187
:101EE00002B219B20123049800F020FA0BB0F0BD41
:101EF00007940C46691ACA170020C04301230894AE
:101F0000A542039300DC03905140079C3E1B00DD7B
:101F1000E61B3D468F1AA542029300DC0290F5199C
:101F2000009306980190089801B2079C22B2049889
:101F300000F0FCF9089922460596680086421DDDEE
:101F400086421FDD874201DB029BD218164687427C
:101F500000DBED1901230093069801900C4609B2AD
:101F600032B2049800F0E2F92146324609988442E0
:101F7000059EE2D10A988242DFD107E0039BC9188F
:101F80008642DFDCAD198742DEDADFE70BB0F0BD59
:101F9000F0B589B004460120C6072746B7435C4820
:101FA00087420AD8204602F0D1F8F90D722912D8DA
:101FB000002810D17F20C005A5E0564887420FD8E1
:101FC000644887421AD302F08DFA02460B46002C71
:101FD00025DC634924E002F085FA01F0FBF992E088
:101FE0004D48874213D85548874220D302F07AFAE9
:101FF00002460B46002C58DC544957E002F072FAB6
:1020000005460E46012C49DB5148534975E0FD0D4C
:10201000FF2D15D32046214600F068FF73E04F499D
:102020004B4800F056FA01F0D5F970406BE002F031
:1020300059FA05460E46012C5DDB414A414B2FE023
:102040003648874236D802F04DFA03900D46344A9E
:10205000344B00F0AFFC0024334B224600F039FA39
:10206000324B224600F035FA07460C4601F0ECFEF2
:102070000290052002072E4B3846214600F09AFCBC
:1020800002F004FA03900D462A4A2B4B38462146AB
:1020900000F090FC02F0FAF9029B23E02C4A2E4B50
:1020A0002846314600F015FA2BE02749284800F071
:1020B00010FA92E7963DE805381A01F073FF079190
:1020C00006900020009006A804A901272A463B4656
:1020D000FDF7F6FF034605990498002C02D5FA0790
:1020E00051405B4203221A40022A9CD0012A0CD0A4
:1020F000002A06D171E7124812492A46334600F0F9
:10210000E3F901F013F809B0F0BD7140F9E7C046FA
:10211000DA0F493FD1537B40D531E240DA0FC94D48
:1021200083C8C96D305FE43F00003843000038C306
:10213000FB21F9BF63621A61B41051BEE0EDAF40FC
:10214000D221337F7CD912C0FB2119C0FB21194059
:10215000182D4454E4CB1640FB21F93FFB2109C064
:10216000FB210940F0B589B004460120C607274687
:10217000B743584887420AD8204601F0E7FFF90DD7
:10218000722901D8002878D002F0AEF972E05248E6
:10219000874209D86148874214D802F0A5F95B4A02
:1021A000012C5BDB534B8DE04C4887420ED85448E2
:1021B000874213D802F098F9554A012C00DA80E0E2
:1021C000554B4CE0002C11DC564D10E0FD0DFF2D61
:1021D00016D32046214600F089FE4DE002F084F936
:1021E00002460B46002C41DC474940E04C4D02F0D2
:1021F0007BF902460B464548294600F065F939E06F
:10220000374887423CD802F06FF903900D46354AB3
:10221000354B00F0CFFB0024344B224600F059F937
:10222000334B224600F055F907460C4601F00CFEF0
:102230000290052002072F4B3846214600F0BAFBDA
:1022400002F029F903900D462B4A2C4B38462146C3
:1022500000F0B0FB02F01FF9029B29E0324B00F0C6
:1022600038F901F005F90446744006E0254927488D
:1022700000F02FF900F0B0FF0446204609B0F0BD91
:10228000963DE805381A01F08DFE07910690002072
:10229000009006A804A901272A463B46FDF710FF37
:1022A000034605990498002C02D5FA0751405B4279
:1022B00003221A40022A0AD0012A05D0002AD0D1CE
:1022C000D8E7144B00F005F901F0D2F8D4E77140DB
:1022D000D0E7C046DA0F493FD1537B40D531E240C9
:1022E000DA0FC94D83C8C96D305FE43F0000384341
:1022F000000038C3FB21F9BF63621A61B41051BEFC
:10230000DFEDAF40FB2119C0FB211940182D4454CB
:10231000D221337F7CD912407CD912C0E3CB164046
:10232000FB210940FB2109C0FB21F93FF0B5A5B015
:10233000002800D1B9E0012B00DAB6E004462A9863
:10234000012800DAB1E0012680B29BB25F1885183F
:1023500000230497012F304600DB1846012D039619
:1023600000DB1E46304300D09FE0238B994200DB08
:102370009BE0608B824200DB97E0CF17D617029676
:10238000049E9E4200D30493B943029B9A43854224
:1023900000D305460498401E6B1E1BB2009303B287
:1023A00020460E46174600F087FA00287DD02B996C
:1023B000E81B02900A0A0123DB4305ADEF18BA704F
:1023C000F9703A717971BA71F9713A727972BA72B7
:1023D000F9723A737973BA73F9733A747974BA7497
:1023E000F9743A757975BA75F9753A767976BA7677
:1023F000F9763A777977BA77F97720257A552125D2
:10240000795522257A552325795524257A55252570
:10241000795526257A552725795528257A55292550
:1024200079552A257A552B2579552C257A552D2530
:1024300079552E257A552F25795530257A55312510
:10244000795532257A553325795534257A553525F0
:10245000795536257A553725795538257A553925D0
:1024600079553A257A553B2579553C257A553D25B0
:1024700079553E257A553F25795540257A55412095
:10248000395440337E2B98D30498861B02984643D8
:1024900005CC0021083C9047A2682068039990472A
:1024A000002E0BD105CC0399904725B0F0BD2369D0
:1024B00020687A0005A99847F61BF3D0402E3746CE
:1024C000F5D32F46F3E7FEE7FCB40124E4076340AD
:1024D00002E0FCB40124E40708B41D03ED08D60DA6
:1024E000354356025F007F0D06D12C00344300D0E7
:1024F000AEE001B0FCBC7047A408254307242402C9
:10250000FF34A74205D10020190D090501B0FCBC1C
:102510007047002B03D50024A61BAC4125000B03FC
:10252000DB08C20D134342024800400D07D11C00D6
:10253000144300D08CE00EBC1000F0BC70470124A6
:102540006407234307242402FF34A04205D100205E
:10255000090D090501B0FCBC7047002903D5002412
:10256000A21A9C412300C11B08D51C002B0025008A
:102570001400320026000024611A3800362925D5BF
:1025800002B4393949420C00203C03D22F008F405D
:10259000374301E03700A740002F01D040210E4310
:1025A00002BC20290BD500290ED04C42203420B487
:1025B000A5402C0020BC0D41CE40361904E0002976
:1025C0002E000D4120390E4192196B411C0014431D
:1025D0003ED00024002B04D5012400218A1A994101
:1025E0000B00401E52005B41FBD501218902150002
:1025F0000D400CD0521800277B4101D3401C0BE04A
:102600000721C90115000D4001D189008A43072126
:1026100009028A4352005B41801C19DD072109022F
:10262000FF31884209D30EBC0020C90F0902FF31D7
:10263000C900C91D0905F0BC7047190B000501430D
:10264000E40721431805120B104301B0FCBC70478E
:102650000021002001B0FCBC70477047F0B585B088
:102660000E4602460B464748474C49004D0D281878
:102670000746143721461431A94214D9A54220D265
:102680001046424A1946424B05460C46FFF721FFC9
:1026900000273A463B4601F04FFA002843D0002E6F
:1026A0004AD43B4650E0214633318D4221D9601C4B
:1026B000874263D110461946FFF70BFF02460B46CF
:1026C0005CE03448F8403040104357D010462F4A61
:1026D00019462F4B04460D46FFF7FBFE00220492DD
:1026E000134601F029FA002820D0002E2ED42846C7
:1026F00030E00021C943C14011423FD00291104651
:10270000224A1946224B03900491FFF7E2FE002271
:102710000192134601F010FA00280AD0002E1ED4B0
:10272000049B039A28E023462A4627E02B462246AC
:1027300024E0049B039A21E00120C00786432A4637
:102740002E4323461AD0154B3A4617E01148401C39
:10275000F8403018104B3B410340049A0EE0142F10
:10276000049B039A01D1731C06E0601B34300121E5
:1027700081408A18019843410298824310461946C5
:1027800005B0F0BDEDFBFFFFFF0300009C75008866
:102790003CE4377EFFFF0F000000F0FF0000F0BFB9
:1027A000F0B58BB0002879D00568002D76D02027B1
:1027B0001F210A91C90207910097019100268024E8
:1027C00009902846314632462346FFF7AFFD3F20A9
:1027D0004001089000970190284631463A4623462A
:1027E000FFF7A4FD00970A98019040222846314641
:1027F0002346FFF79BFD2A48009701906022284658
:1028000031462346FFF792FD009701962846314650
:1028100022462346FFF78AFD022106910122204825
:1028200000900798019002921446059203911D4B67
:1028300034270922284639460797FEF7E3FC00961D
:10284000089801900294069C0394174B292228466D
:102850003946FEF7D7FC124800900A980190059F70
:1028600002970394114B492228460799FEF7CAFCA8
:1028700000960B48019002970D4B2B246C222846A2
:10288000214601F0ECF9064800A9C1C1094B8C2290
:102890002846214601F0E3F9099886800BB0F0BD87
:1028A000FFFF00005749000059490000554900004A
:1028B0001449000008490000F0B589B00E9D0024BD
:1028C000954273DB8B4271DB00286FD016460E43B6
:1028D0006CD41826865F9E4268DD1A26865FAE425B
:1028E00064DD012400940E0A05AF3E707970190A68
:1028F000B970FB70110A04AB039319705A70290A5E
:102900009970DD7006AE2A21317003684268002498
:1029100005461846214601949047AA682868214632
:1029200090472B6928683146009C22469847AA6840
:102930002868214690472B6928680422029239466C
:10294000984705CD2146083D904707AE2B203070B3
:1029500005CD019F3946083D9047AA682868394649
:1029600090472B692868314622469847AA6828680C
:10297000214690472B6928680399029A984705CD0C
:102980002146083D904708AE2C20307005CD3946D1
:10299000083D9047AA682868394690472B692868FF
:1029A00031462246984705CD21469047204609B03A
:1029B000F0BD7047FCB50C005C40E40FE40710B4B8
:1029C000DD02540D2543D6025F007F0D60D0012447
:1029D000E407254307242402FF34A74250D0CB024A
:1029E000440D2343C2024800400D51D00124E407A6
:1029F000234307242402FF34A04241D0C01901B46C
:102A00001800290001F068FB0F0001B41800310024
:102A100001F062FB03000C001000310001F05CFBD0
:102A200006001000290001F057FB0500761800226F
:102A300002BC01BC55415141A4195541514180246A
:102A4000A4005B195141FF18514100D564003F19A2
:102A5000514102D47F00494100E0401C032424027C
:102A6000FF34001B14DD2419A04209D80305F80A1D
:102A70004C0520434900090B194310BC2143FCBD00
:102A80000020FF21C900C91D090510BC2143FCBD60
:102A90000021002001B0FCBDF0B581B0354E002A08
:102AA00011D015460C46501E032101F05BFA4A1C5A
:102AB0000021032A084600D010460092032D0DD2B3
:102AC000009A032A34D13068C00605D53068C006A4
:102AD00002D53068C006F6D401B0F0BD2B1A651CD3
:102AE000A71C002104E07A5C3263C91C9942E7D03C
:102AF0003268920705D43268920702D4326892078E
:102B0000F6D5625C32633268920705D43268920768
:102B100002D432689207F6D56A5C32633268920753
:102B2000E1D432689207DED432689207F6D5DAE74C
:102B3000621C002305E0555C3563891C9B1C8342A5
:102B4000C1D03568AD0705D43568AD0702D4356806
:102B5000AD07F6D5655C356301251D438542B2D0CE
:102B60003568AD07E7D43568AD07E4D43568AD07FF
:102B7000F6D5E0E710B1464070B50C46002820D0ED
:102B8000417C002902D1817C00291AD0C56B3049D3
:102B9000284601F003F8002813D12846294601F001
:102BA000D5FB00280DD12B49284600F0D9FF00287D
:102BB00007D10021284600F0E7FF002806D03F207B
:102BC00005E02D2020706070A01C3EE0BF200106B3
:102BD000284600F090F901F0B9FA002801D42B2121
:102BE00000E02D212170C1174840451A642D0BD3F8
:102BF00064262846314601F0B5F94643303060700E
:102C0000AD1B0320022103E001210A2D08D302207D
:102C1000EAB2CD235343DA0A30231343635400E06E
:102C20000846E9B2CD224A43D10A0A224A43A91AE8
:102C300030220A43211822542020487064208870D2
:102C40006520C87067200871481D0021017070BDA3
:102C500000003443000034C3B0B586B023480024DC
:102C6000047023490C7044704C7084708C7021483F
:102C70000460214D2C70214801F0F8FB20482149C7
:102C8000016021482149416021490A68FF231B0650
:102C90009A4303239B07D2180A60846007210160CE
:102CA000012041031B4A1160082313608003106058
:102CB000194A116013601060009418480190184878
:102CC0000290184803901848049018480590184C32
:102CD00069462046FDF716FD2870002800D10446FD
:102CE0001448214601F0AEFB06B0B0BD0C02202016
:102CF0000F022020080220201202202000022020A3
:102D0000A0120A4001C0010010E000E07F3801007D
:102D100020ED00E080E200E000E100E08D430000F3
:102D2000A1430000B5430000992A00001D3A0000AD
:102D3000D8012020F4012020F0B584B03049314A78
:102D40000125AC0316682B0203939E4316600E68A0
:102D5000264205D10E68264202D10E682642F6D0E0
:102D60006C02467E9769AF432E40BD1995612025C0
:102D7000455DD6690327BE433D407519D561224D97
:102D80002E680727374005262E60466A336813628F
:102D9000736853622F60C3695B065B0CD5697F263D
:102DA0003602B543EB18D361E8C80097076801976E
:102DB000476802971B071B0B2D03ADB2ED183307B5
:102DC0001B0D007A009E35431D43019B1D43029B52
:102DD0001D43054390690D4B03400D482840C01822
:102DE00090611068039B184310600868204205D169
:102DF0000868204202D108682042F6D004B0F0BD35
:102E000004020B4008010B40001340408D00F0FF0E
:102E100072FF0F00F8B515462A4E0A0D771C3A408E
:102E2000294B9A4213D00C46002A18D10122D2070E
:102E30009443044344D00022244BFFF7BBFD0C46CF
:102E400023498D4208DC234A234B214636E00246C3
:102E50000B46FFF73EFBF8BD220D3A40363A5119BA
:102E6000B1420ADD01F01CFB222101600120C007F4
:102E700004401D4821180020F8BD012904DB174A31
:102E8000144009052143F8BD3522D24391420CDCA0
:102E900001F006FB2221016012488542E6DA01209A
:102EA000C007044000202146F8BD0C4A1440090523
:102EB0001B225205891821430022094BFFF77AFD96
:102EC000F8BDC046FE070000FF07000000005043A9
:102ED000AF3CFFFF59F3F8C21F6EA501FFFF0F8043
:102EE0000000903C51C300000000F07FFCB40127BB
:102EF000FF07794002E0FCB40127FF070C024D00F8
:102F00002D0E03D1002C52D1FCBC70473C43FF2D49
:102F100050D0A408002900D56442020243001B0ED1
:102F200004D1002A43D10800FCBC70473A43FF2B70
:102F300041D09208002800D552425E1B04D51700EC
:102F400022003C0076422B00192E06D5270037417F
:102F5000D2191C27F71B7F42BC40002A27D002D57C
:102F60005242012700E00027013B5200FCD515002A
:102F7000802635400FD01500202635402C43803266
:102F800008D21500402635402C4304D101263602D4
:102F9000B24300E05B1C5200023308DDFF2B0BD272
:102FA000500ADB051843FF073843FCBC704700207C
:102FB000FCBC70470800C70FFF07FF20C00538435F
:102FC000FCBC7047F0B581B0274E284F0124650244
:102FD0002748002101603A1F10680F210902884329
:102FE0004019009210603846083801680322D34324
:102FF0000B4003603868A043386038683040386060
:1030000010030A21224600F03DFD1A48FFF794FE06
:10301000FEF724FD00280FD0009A1068102101430C
:1030200020208143116010682103014311600020BA
:1030300000F076FF01B0F0BD0F4E03E0FEF70EFD8D
:103040000028E9D13868084908403860386821020A
:103050000143396030682842F0D130682842EDD110
:1030600030682842F6D0E9E7FFFEFFFF08010B4079
:1030700008030B402848000004020B4098B001F000
:1030800049F8FFF7E9FD02A855300190FF2704E059
:1030900001F03AF92F4601F02DFA01F0E1F9064668
:1030A0001D4900F05FFF054603242540BD42F2D0D4
:1030B000002DEDD002AF5821384600F03BFC0A202D
:1030C00038700396022D0BD0012D21D102A90122C7
:1030D0008A7048708A72022326461349114A08E012
:1030E00002A90120887006204870022603230C499B
:1030F0000A4A02AF7B723E720723FB70FF23023342
:103100003B82B8757C760198047011910F921092F1
:1031100002A801F0BDF8BDE7B80B0000000096441E
:10312000000090C1000048440000F041F0B587B0B5
:103130000C46054601F0CBF906460F4601F0C7F9EB
:10314000069005911C4A1D4B01F0B2F91C4A1D4B1B
:10315000FFF7BFF904900391304639462A462346CB
:10316000FFF728FC02900191174A184B01F0A0F9D3
:10317000174A184BFFF7ADF902460B46029E304640
:10318000019F3946FFF716FC2A462346FFF7A1F9AF
:1031900004460D4630463946069A059BFFF70AFC61
:1031A000049A039BFFF706FC22462B46FFF791F992
:1031B00000F0C6FB07B0F0BDA7463B8C87CDC63EEE
:1031C00074E7CAE2F9002ABFB2FB6E891011813F91
:1031D00077ACCB545555C5BFF0B587B00C46054606
:1031E00001F078F906460F4601F074F90690059152
:1031F0001C4A1D4B01F068F91C4A1D4BFFF769F989
:1032000004900391304639462A462346FFF7D2FB05
:1032100002900191174A184B01F056F9174A184BC2
:10322000FFF757F902460B46029E3046019F39468A
:10323000FFF7C0FB2A462346FFF74BF904460D462D
:1032400030463946069A059BFFF7B4FB049A039B68
:10325000FFF7B0FB22462B46FFF73BF900F070FB6F
:1032600007B0F0BDA7463B8C87CDC63E74E7CAE2E7
:10327000F9002ABFB2FB6E891011813F77ACCB54A5
:103280005555C5BFF0B581B00C46002809D0017C6A
:10329000002906D0456B0021284600F075FC002867
:1032A00012D12D20207060702E21A170E0700721B6
:1032B00006220523042560552020E0546D20A054EB
:1032C0000020605401B0F0BD164E2846314600F093
:1032D00065FC002800D12E4613493046FFF70BFE4F
:1032E000124900F06DFA00F069FF0546642100F014
:1032F00039FE303020702E2060700A262846314674
:1033000000F030FE0746314600F02CFE302211431B
:10331000A1707E43A81B1043062105220423032528
:10332000C9E7C04600181C460000A040000020412C
:10333000F0B58B4200D1824204D90B00020000217B
:10334000002040E0002B00D1002A0CD10B0002002D
:1033500000210020002B00D1002A01D0C943C04326
:10336000FFF727FB2FE01C0015000B0002000CB438
:10337000002126002F00FF19764102D2491C402966
:10338000F9D100201E001700FF19764102D2401C1F
:103390004028F9D10E1A21002800320000F088FFE1
:1033A0000C0005000CBC00200021A34200D1AA4261
:1033B00001D3521BA341404149416D08E7073D43FA
:1033C0006408761EF1D5059F002F01D03A607B601E
:1033D000F0BD0000F0B585B001F079F806460F4663
:1033E00001F075F804460D46184A194B01F060F8D3
:1033F000184A194BFFF76DF804900391174A184BC0
:1034000001F056F80022174BFFF763F80290019184
:10341000154A164B20462946FFF7CCFA029A019B23
:10342000FFF757F8029001913046394622462B4665
:10343000FFF7C0FA049A039BFFF7BCFA029A019BBC
:10344000FFF747F800F07CFA05B0F0BD6950EEE0F8
:103450004293F93E271E0FE887C056BF815E0CFDE0
:10346000FFFFDFBF0000F03F423A05E15355A53FA3
:10347000F0B585B001F02EF806460F4601F02AF8A7
:1034800004460D46184A194B01F01EF8184A194B0C
:10349000FFF71FF804900391174A184B01F014F836
:1034A0000022174BFFF715F802900191154A164BB1
:1034B00020462946FFF77EFA029A019BFFF709F89A
:1034C000029001913046394622462B46FFF772FAA8
:1034D000049A039BFFF76EFA029A019BFEF7F9FF2D
:1034E00000F02EFA05B0F0BD6950EEE04293F93ECF
:1034F000271E0FE887C056BF815E0CFDFFFFDFBFB0
:103500000000F03F423A05E15355A53F10B51C4974
:103510001C4C204600F06BFF1B49204600F0BAFC13
:103520001A4801680322D203914301600169184AD5
:103530000A401532026141692D220A4312218A4351
:103540004261426801210A4043688B439A184260F5
:10355000104A13688C021C43146002684B04134326
:103560000360C26870231343C360C268022313431D
:1035700005229343C36002680A43026010BDC0463F
:103580004949000000001040A6480000001110400A
:103590000000FFFF2810104010B51C491C4C2046AD
:1035A00000F025FF1B49204600F074FC1A48016812
:1035B0000322D203914301600169184A0A402B3269
:1035C000026141691A220A4325218A434261426805
:1035D00001210A4043688B439A184260104A1368DD
:1035E0008C021C43146002684B0413430360C268DE
:1035F00070231343C360C26802231343052293431D
:10360000C36002680A43026010BDC0464B49000017
:1036100000005040B0480000001150400000FFFF83
:103620002810504010B51C491C4C204600F0DFFE0D
:103630001B49204600F02EFC1A4801680322D203E1
:10364000914301600169184A0A40153202614169DB
:103650002D220A4312218A434261426801210A4015
:1036600043688B439A184260104A13688C021C43CB
:10367000146002684B0413430360C2687023134351
:10368000C360C2680223134305229343C3600268E8
:103690000A43026010BDC0464D49000000201040A2
:1036A000BA480000003110400000FFFF28301040F1
:1036B000FCB40127FF0706004E4001D4002600E0BD
:1036C0003E00020243001B0E30D03A43FF2B30D0A5
:1036D0000C024D002D0E29D03C43FF2D29D05B1943
:1036E0004240504042404C4061404C4000B500F0E8
:1036F000F3FC20BCAE464240504042404C4061404A
:103700004C4025001400002C01D46400013B80349F
:1037100001D3013364087E3B08DDFF2B09D2BC4393
:10372000200ADB0518433043FCBC70470020FCBC7A
:103730007047FF20C0053043FCBC704710B51948E6
:103740000146083900220A60011F0A608222C26114
:10375000154B036215498A668B6502650B608322EF
:10376000826342638122C264C2630264104B0360BD
:1037700004680460436044684460C360C468C46013
:10378000036103690361CA600A612C3802604A61FF
:103790000848094901600163132080020749086055
:1037A000086410BD308042408200040084804240A2
:1037B00081000E00A0120A4001C0010090320A40B0
:1037C000FCB40127FF0706004E40F60FF607020281
:1037D00043001B0E2DD03A43FF2B2DD00C024D0081
:1037E0002D0E26D03C43FF2D26D05B1B0020202130
:1037F00064085208A2424041A24200D3121B013980
:1038000004D0002A01D05200F4D18840384201D1BE
:103810004000013B803001D3013300E040007F33A2
:1038200007DDFF2B08D2400ADB0518433043FCBC00
:1038300070470020FCBC7047FF20C0053043FCBC33
:1038400070470000F8B5451C00780023082B32D0E3
:103850002F78C2070CD16A780F241440E41C122C74
:103860000BD102242E57F4B2002E08D4EE1C0EE029
:103870006D1C4A1C0F7011461AE0AE1C08E02E1D8C
:10388000ED7800957F252C40009DED012C19123418
:103890003D0112095219094DAA420ED0D243002C03
:1038A00005D08D5C4F1C0D70641E3946F7E7354618
:1038B00040085B1CCAE72846C5E7F8BDFF0F0000BB
:1038C000FEB502930F46194D0024E143184E0097B0
:1038D0003740019043422B46BB4101D20C4623E0C6
:1038E000084602990E405342B54101D204461BE0FE
:1038F000134601990B433E431E43029D009E13D085
:103900002B46334004D401998B1A3346AB4103E074
:103910000199531A2B46B341044605DB51406E40D2
:103920000E43701E864134462046FEBD0000F07FE7
:10393000FFFFFF7F0A46002180B500F08AFD80BDB1
:103940000CB41B4B4A00D21A1BD2000D0A031043C1
:1039500001221202801802D3400812038918400A7B
:10396000002902D50122D20710434900490D38220F
:103970001201891A0CD4FF290DD2C90508430CBCC9
:103980007047DB431A40024305D0D8430CBC704754
:1039900000200CBC7047C90FC907FF20C0050843B1
:1039A0000CBC7047C046C046C046C046C046C04674
:1039B0000000E0FFF8B50446164F174D0E462E40A6
:1039C0000120009464423C46B4411AD31D40544245
:1039D000AF4116D31046009C20433543054311D018
:1039E0000020C0431C460C400ED4009CA41A0C4678
:1039F0009C4106DB0098504059400143481E8141DC
:103A00000846F8BD0020F8BD009C141B1C468C41E4
:103A1000F0DAF6E70000F07FFFFFFF7FF0B581B03E
:103A2000002927D00C46481E032100F09BFA481CB1
:103A3000032801D0074600E00027114D0328264641
:103A40000BD02646284600F017FD012F14D028463B
:103A500000F012FDB61EBF1EF4D1032C0AD3284677
:103A600000F00AFD284600F007FD284600F004FD9E
:103A7000F61EF4D101B0F0BD761E032CEFD2F9E7AB
:103A800080380100F0B5164B1D46083D2E68012414
:103A9000A6432E601E6803273F03BE4338403018FC
:103AA00018601868FF26B043C9B24018186028682B
:103AB000204328601D68002A0ED00A4821022207F0
:103AC00015431D6002680A4205D102680A4202D10C
:103AD00002680A42F6D0F0BD200785431D60F0BDA4
:103AE00010010B4004020B4010B5FFF763FF0028E4
:103AF00001D0002010BD012010BDC04610B5FFF759
:103B000059FF002801DB002010BD012010BDC04678
:103B100010B5FFF74FFF002801DD002010BD012088
:103B200010BDC04610B5FFF7CBFE002801DA00201B
:103B300010BD012010BDC04610B5FFF7C1FE002822
:103B400001DC002010BD012010BD000010B500F008
:103B5000A5FA002801D0002010BD012010BDC046EC
:103B600010B500F09BFA002801DB002010BD0120F9
:103B700010BDC04610B500F091FA002801DD00200C
:103B800010BD012010BDC04610B500F04BFA002852
:103B900001DA002010BD012010BDC04610B500F0B4
:103BA00041FA002801DC002010BD012010BD0000FA
:103BB000F0B510480068C0B20B2819D10E48016852
:103BC000490715D40D490E4A0E4B02E004686407FC
:103BD0000ED4C4698D786E1C7F2535409678B54229
:103BE000F4D08E789E1901273F02F4558D70EDE7D1
:103BF000F0BDC04620301040083110400C0220209B
:103C00000F022020000020201CB5002922D04C08E3
:103C1000002900D5494242105440002800D54042B6
:103C200000230A00904201D95200FBE790425B4119
:103C3000904200D3801A914201D25208F6E719004F
:103C4000002C00D54042640000D549420200080023
:103C500011001CBD01000020FEF7FFFC1CBDF0B5EB
:103C600087B006910590002822D01C46002B1FD05B
:103C700015460E9804900D9803900C9E069F00E048
:103C8000641C23780A2B0FD00D2BF9D0002B0FD0FA
:103C90000096039801900498029039B22AB20598D0
:103CA000FDF72AFDBF1DEBE70835069F641CE8E71A
:103CB00007B0F0BD70B50C480C4941600C4A51602A
:103CC0000C4B59600C4C61600C4D69600C4E71607E
:103CD0000C49016011601960216029603160102079
:103CE00000F0CAFB70BDC04600080A40030000B1E6
:103CF00000280A40000810400008504000281040EA
:103D000000A8464001000026F0B50F480068C0B288
:103D10000B2818D10D480168490714D40C490D4AE5
:103D20000D4B02E0046864070DD4C4694D786E1C25
:103D30007F2535405678B542F4D04E789E198027BD
:103D4000F4554D70EEE7F0BD201050400811504082
:103D50000C0220200F0220200000202070B50E4809
:103D60000068C0B20B2816D10C480168490712D46C
:103D70000B490C4A0C4B02E0046864070BD4C4697D
:103D80000D786E1C7F2535401678B542F4D00E783C
:103D90009C550D70F0E770BD2010104008111040C8
:103DA0000C0220200F0220200000202010B5002847
:103DB0001BD08278002A18D042780F24144030207B
:103DC0003123082C044600D31C460C7054070446CB
:103DD00000D51C464C709407044600D51C468C70D8
:103DE000D20700D01846C87004E02D20C870887033
:103DF000487008700020087110BD000010B50D4912
:103E00000D4C204600F0EAFA0C49204600F066F816
:103E10000B4841680B4A0A40111D4160816812221B
:103E20000A432D218A438260016801220A4302600D
:103E300010BDC0464749000000A046409C48000015
:103E400004B1464000FCFFFF0CB54A00520D0323AD
:103E50001B02FF33D21A13D31F239A1A12D98E468C
:103E6000C9020123DB071943D1400B2A02D21532C4
:103E7000D04001437346002B00D5494208000CBDD9
:103E800000200CBD0B000120C007002B00D401381E
:103E90000CBD000070B511221302C218C4580125D0
:103EA000AC43C4500C888D7825438C882C43C5586E
:103EB000084E2E40084D25407419C4508879CB799E
:103EC0000343087A184351687E2399431840081821
:103ED000506070BDE798FDFF1867000070B51122B3
:103EE0001302C2180C894D8825438C792C43C55880
:103EF000094E2E40094D25407419C4508888CB794D
:103F000003430878184351685D239B009943184088
:103F10000818506070BDC04680CCFFFF7F330000A2
:103F200010B50E490E4A01235C05906008682042D6
:103F300005D10868204202D108682042F6D01068F6
:103F40001B04034313600868C00605D40868C00654
:103F500002D40868C006F6D510BDC04604020B4066
:103F600004010B401CB50A0017D000230124E4070C
:103F7000A04200D20400944201D95200FBE79042D3
:103F80005B41904200D3801A914201D25208F6E779
:103F900019000200080011001CBD01000020FEF7FE
:103FA0005CFB1CBD08B443001B0E0FD0FF2B11D0CF
:103FB0000721C9015B18C10FC9020B430100480763
:103FC0004902090B1B05194308BC7047002100205A
:103FD00008BC704701004002C90DC900C91D090590
:103FE00008BC7047F0B585B00A9CCD17DE17694054
:103FF0006840401BA94173407240921BB3416E4020
:1040000002AF0097FFF794F971407040801BB141F7
:10401000029A039B6B406A40521BAB410CC405B033
:10402000F0BD000040B542004B005E08164301D0D1
:1040300006004E4000D4D01A04D20120C90F06D188
:10404000404204E003D90120C90F00D04042FF26BE
:104050003606B24200D8B34201D90120404240BDE9
:1040600070B50A480A4C84420CD00A4D0A4EB5423B
:1040700008D02A686968501C12789200A2589047AC
:104080000835F4E700BF00BF70BDC0466C490000B2
:10409000604900007C4900008C49000040B54200A6
:1040A0004B005E08164301D006004E4000D4D01AE3
:1040B00004D20120C90F06D1404204E003D90120F7
:1040C000C90F00D04042FF263606B24200D8B342A4
:1040D00000D9012040BD0000FCB4020C0B0CFF24F1
:1040E0002402FF34204021400C00444315005D436E
:1040F00006005E430F005743320C3B0CA818C01853
:1041000032043B040025A1186841C9186841FCBC71
:104110007047000080B5FFF7CDFDFFF70FFBFEF7FE
:1041200051FFFFF7F3F9FFF737FAFFF77BFAFFF7D5
:1041300065FE04482C2100224254034824214254A5
:1041400080BDC04680012020B001202006B541007E
:10415000090E7F390DD41F22511A0CD98646000250
:104160000122D2071043C8407246002A00D54042BF
:1041700006BD002006BD02000120C007002A00D4B1
:10418000401E06BD10B50F24044030223123082CF8
:10419000144600D31C460C704407144600D51C4638
:1041A0004C708407144600D51C468C70C00700D0A4
:1041B0001A46CA700020087110BD000006B500281C
:1041C00003D57346FFF7C2FF06BD4100090E7F39D4
:1041D00008D31F22511A07D300020122D20710432D
:1041E000C84006BD002006BD0020401E06BD0000E0
:1041F00004B40422002802D1002104BC704701D578
:104200000832404212021F320100521E4900FCD304
:104210000805090B1205114304BC70470146064806
:10422000002906D08A78002A03D0887A002801D095
:1042300003487047014870471F49000029490000A2
:104240002E490000084880F3088800BF00BF00F036
:104250004FF9002801D0FFF703FF0020FEF70EFF03
:10426000012000F03AF9C0460080202030B514004B
:104270004C4325001C00444364190500100029002C
:10428000FFF72AFF001904000D002100280030BDAF
:1042900080B5002807D0014603480078002802D0E6
:1042A0000248FCF7F1FC80BD12022020F40120201E
:1042B00018B520239B1A04D8010000205B429940C6
:1042C00004E004009140DC402143904018BD000010
:1042D0000843104304490A683F231B049A431840CB
:1042E000101808607047C04638010B40401EC0B22D
:1042F000032803D8800003490858704700487047D6
:10430000D64800005048000080B5044800780028D6
:1043100002D00348FEF744FA80BDC04612022020B6
:10432000F4012020401E139060CC22681292636832
:10433000119328463146083C00E0000082B000940A
:10434000014C019410BD00BFD324000042004B007B
:104350000020FF2109068A4200D88B4200D90120A3
:10436000704703228058002805D0401E4A1C0023B5
:104370000B701146F7E7704740B584B002AE009667
:10438000FFF730FE029A039B04B040BD03480029AA
:1043900000D11030012189030160704790320A403A
:1043A0000348002900D110300121890201607047C3
:1043B00090320A400348002900D110300121C9027F
:1043C0000160704790320A40022801D002487047CD
:1043D000004870471A490000F448000010B5012257
:1043E000120383180C785C604978815010BD10B5B9
:1043F0000122120383180C789C604978815010BD0B
:1044000010B500239A4203D0CC5CC4545B1CF9E77E
:1044100010BD80B50B4603214258C11D184600F05F
:1044200043F880BD109BD80014A90A18139C0C50A7
:104430005660704702480168491C01607047C046D9
:1044400008022020002803D00160002181808160C3
:10445000704700239A4202D0C1545B1CFAE77047B0
:10446000014800687047C04608022020002802D09A
:104470000021016041607047811E091F00BFFCD20E
:10448000704702460B461298119957E702460B46B1
:104490000398294652E702460B46039829464DE702
:1044A000004870471402202080B5FFF7A9FF80BDA7
:1044B0003046394600E0000082B00094014C01947F
:1044C00010BD00BFB529000030463946F4E702466A
:1044D0000B46F1E702460B46EEE700F001F8FEE777
:1044E00000BF704720465DE520465BE5AAE67047C1
:1044F0000120704720BF704700000000000000004E
:10450000000000000000005F00000007000700142A
:104510007F147F14242A7F2A1223130864623649E9
:104520005522500005030000001C224100004122DA
:104530001C0014083E081408083E0808005030000B
:104540000008080808080060600000201008040245
:104550003E5149453E00427F40004261514946215B
:1045600041454B311814127F1027454545393C4AC7
:104570004949300171090503364949493606494917
:10458000291E00363600000056360000081422416D
:1045900000141414141400412214080201510906D5
:1045A000324979413E7E1111117E7F494949363E9B
:1045B000414141227F4141221C7F494949417F09B4
:1045C0000909013E4149497A7F0808087F00417F77
:1045D00041002040413F017F081422417F4040407C
:1045E000407F020C027F7F0408107F3E4141413E24
:1045F0007F090909063E4151215E7F091929464676
:104600004949493101017F01013F4040403F1F209E
:1046100040201F3F4038403F631408146307087070
:1046200008076151494543007F41410002040810D9
:10463000200041417F00040201020440404040400C
:10464000000102040020545454787F484444383810
:1046500044444420384444487F3854545418087E15
:104660000901020C5252523E7F0804047800447D36
:1046700040002040443D007F1028440000417F401E
:10468000007C041804787C080404783844444438D6
:104690007C14141408081414187C7C0804040848BA
:1046A00054545420043F4440203C4040207C1C2073
:1046B00040201C3C4030403C44281028440C5050C2
:1046C000503C4464544C44000836410000007F00D4
:1046D0000000413608000804081008C083F9A20051
:1046E000444E6E00FC291500D1572700DD34F5003B
:1046F00062DBC0003C999500419043006351FE008D
:10470000BBDEAB00B761C5003A6E2400D24D42005B
:104710004906E00009EA2E001C92D100EB1DFE00C4
:1047200029B11C00E83EA700F535820044BB2E00ED
:104730009CE98400B4267000417E5F00D691390068
:10474000538339009CF439008B5F840028F9BD0045
:10475000F81F3B00DEFF97000F980500112FEF00B8
:104760000A5A8B006D1F6D00CF7E360009CB2700E3
:10477000464FB7009E663F002DEA5F00BA277500DE
:10478000E5EBC7003D7BF100F739070092528A0044
:10479000FB6BEA001FB15F00085D8D00300356001F
:1047A0007BFC4600F0AB6B0020BCCF0036F49A00D7
:1047B000E3A91D005E619100081BE6008599650074
:1047C000A0145F008D40680080D8FF0027734D0063
:1047D00006063100CA561500C9A873007BE26000C6
:1047E0006B8CC0000000007F00000040FB21F93FFF
:1047F000000000002D44743E000000809846F83C04
:104800000000006051CC783B00000080831BF03931
:104810000000004020257A38000000802282E33624
:10482000000000001DF369350100000000000000D9
:104830000000000000000000000000001000000068
:104840000001000003000000000000003400C4412B
:10485000DE480000CD480000FB480000C4480000CE
:104860000300000004000000040000000600000037
:10487000031D07062E2C292D2E2E373F0000021077
:10488000021C07123732292D29252B39000103106C
:104890004449474954414C204B455900040000000D
:1048A00000000710000000001800000000300000A9
:1048B0000000180000000030000000001800000098
:1048C000003000004241434B5349444500415050A1
:1048D000524F41434800494E56414C4944004F55C0
:1048E0005453494445004B455920494400534554CD
:1048F000204944004C4F434B454400554E4C4F43D8
:104900004B00012C2D012C2D424C41434B00414EBC
:10491000474C45005748495445004F50454E0057B5
:104920004149540041555448004641494C005041CA
:104930005353005A4F4E4500444953540000000061
:104940009F012C2DA2028408000800080008000A1C
:10495000008A2A8AEE420052004700070EC5050071
:1049600045380000134400006343000002000000CB
:10497000130200000001000000FFF0006C4900007D
:1049800000002020744900001402202000000000D4
:040000030000424572
:00000001FF
