:100000000080202075AA0000C3790000C379000099
:1000100000000000000000000000000000000000E0
:10002000000000000000000000000000C379000094
:100030000000000000000000C379000021A90000BA
:10004000C3790000C3790000C3790000BD9F0000A0
:10005000C3790000C3790000C3790000C3790000B0
:1000600000000000C3790000C37900000000000018
:100070000000000065A000000D9E0000C379000094
:10008000C3790000C3790000C3790000C379000080
:10009000C3790000C37900000000000000000000E8
:1000A000C3790000C37900000000000000000000D8
:1000B000C379000000000000C3790000C37900008C
:1000C000F0B59DB007460020002F01D100F094FE4E
:1000D0007B6A002B01D100F08FFEBC7A220604D08F
:1000E000B96A002901D100F087FE1C931892FB4DDC
:1000F000FB4EF8881A90386A1990F869010E17912A
:10010000010CC9B21691010AC9B21591C0B214907E
:10011000B869010E1391010CC9B21291010AC9B25A
:100120001191C0B210907869010E0F91010CC9B203
:100130000E91010AC9B20D91C0B20C903869010E3E
:100140000B91010CC9B20A91010AC9B20991C0B25E
:100150000890F868010E0791010CC9B20691010AD6
:10016000C9B20591C0B204903868C343010E029130
:10017000010CC9B20191000AC2B2FF20C04318436A
:1001800003941C07E4172C405D07ED1735406540CC
:10019000DC06E617D3490E406E409C06E417D249B0
:1001A0000C4074400121450808404042CF4E304089
:1001B000684045089B07DB1733406B409D0965404D
:1001C0008006C017CA4C204068409B06DB173340AE
:1001D000434053401807C017C04A10405A07D2176F
:1001E000BF4C22404240D806C417BE480440544089
:1001F0009806C017BC4D284060401A460A400D467C
:10020000524232405C08544062089B07DB1733407F
:1002100053409A094240A006C017B54908405040D3
:100220009A06D21732404240019842401007C01748
:10023000AA4C20405107C917A94B19404140D0068C
:10024000C317A84803404B409006C017A649084072
:100250005840114629404942314053084B40590803
:100260009207D21732404A40910941409806C01780
:100270009F4B184048409106C917314041400298B1
:1002800041400807C01720404A07D217944B1A4034
:100290004240C806C3179348034053408806C0171E
:1002A000914C204058400A462A40524232404B0866
:1002B00053405A088907C917314051408A094240C2
:1002C0009806C3178A48034053408806C017304039
:1002D0005840B98808F096F91A9908F093F9397AD4
:1002E00041404807C0177E4A10407A7A42400807CA
:1002F000C0177A4B18405040CA06D217794B1A40A3
:1003000042408806C31723405340084628404042D5
:1003100030404A08424050088907C91731404140DF
:10032000880958404307DC176D4B1C40039BDBB228
:1003300002935C400307DB17684E3340634092062C
:10034000D2176B4C22408906C917684E3140514084
:100350004140CA06D217634C22405A408B06DB1735
:10036000614C2340534082072840404230404908B6
:1003700041404808D2173240424090095840430754
:10038000DB17574C23400397FC7A37465C40030742
:10039000DB17524E334063408906CC1754490C405A
:1003A0009106C917394061404140CA06D4174D4AE9
:1003B00014405C408A06D2174B4B1A4062408307B8
:1003C000284040423840490841404808DB173B403C
:1003D0004340980950400207D41734404207D217CF
:1003E0003F4E324062408906CC17414E3440990658
:1003F000C917394061404140CB06DB17394C2340D7
:1004000053408A06D217384C22405A40830728406E
:1004100040423840490841404808DB173B404340D0
:10042000980950408906C917314041409806C017C5
:1004300038404840049948400107C917274E3140C9
:100440004207D217264B1A404A40C106CB1725490E
:100450000B4053408106C9172140594002462A40AB
:1004600052423A40430853405A088007C017384068
:10047000504082094A409906C9171D4B1940514006
:100480008006C01738404840059948400107C91701
:10049000314034464207D217114B1A404A40C10638
:1004A000CB1710490B4053408106C9170E4A114023
:1004B000594002462A4052423A40430853405A08A3
:1004C0008007C0173840504082094A409906C91732
:1004D000074E314051408006C0170BE03288DB0EDA
:1004E00019C46D076410B71DC8206E3B2083B8ED9A
:1004F0009041DC7638404840069948400107C917CA
:1005000021404207D217FC4B1A404A40C106CB1784
:10051000FA490B4053408106C917F94A1140594026
:1005200002462A4052423A40430853405A08800744
:10053000C0173840504082094A409906C9173140D7
:1005400051408006C017384048400799484001078D
:10055000C917214026464207D217E74B1A404A40A6
:10056000C106CB17E5490B4053408106C917E44A41
:100570001140594002462A4052423A4043085340F3
:100580005A088007C0173840504082094A409906EF
:10059000C917DC4C214051408006C0173840484004
:1005A000089948400107C91731404207D217D24E77
:1005B00032404A40C106CB17D0490B405340810618
:1005C000C917CF4A1140594002462A4052423A4088
:1005D000430853405A088007C017384050408209EA
:1005E0004A409906C917214051408006C01738403B
:1005F0004840099948400107C917C34A11404207BA
:10060000D21732404A40C106CB17BC4E334053404C
:100610008106C917BA4C2140594002462A4052422D
:100620003A40430853405A088007C01738405040AA
:1006300082094A409906C917B24B194051408006B9
:10064000C017384048400A9948400107C917AE4AC8
:1006500011404207D217A84B1A404A40C106CB1797
:10066000334053408106C9172140594002462A4071
:1006700052423A40430853405A088007C017384056
:10068000504082094A409906C9179E4B1940514073
:100690008006C017384048400B9948400107C917E9
:1006A000994A11404207D217934B1A401C464A40C0
:1006B000C106CB17334053408106C917904A1140F9
:1006C000594002462A4052423A40430853405A0891
:1006D0008007C0173840504082094A409906C91720
:1006E000884B194051408006C017384048400C994B
:1006F00048400107C917844E31404207D2172240B3
:100700004A40C106CB177D490B4053408106C917AB
:100710007B4A1140594002462A402C4652423A40F8
:10072000430853405A088007C01738405040820998
:100730004A409906C917734B194051408006C017AB
:10074000384048400D9948400107C91731404207D9
:10075000D217694B1A404A40C106CB17674D2B4050
:1007600053408106C917664A11405940024622404B
:1007700052423A40430853405A088007C017384055
:10078000504082094A409906C9175E4B19405140B2
:100790008006C017384048400E9948400107C917E5
:1007A00031404207D217544B1A404A40C106CB177A
:1007B0002B4053408106C917514E314059400246E3
:1007C000224052423A40430853405A088007C0171B
:1007D0003840504082094A409906C917494B194090
:1007E00051408006C017384048400F9948400107E3
:1007F000C917454A11404207D2173F4B1A404A4099
:10080000C106CB172B4053408106C91731405940D0
:100810000246224052423A40430853405A08800759
:10082000C0173840504082094A409906C917354BD5
:10083000194051408006C017384048401099484040
:100840000107C917304A11404207D2172A4B1A40F4
:100850004A40C106CB172B4053408106C91731408F
:1008600059400246224052423A40430853405A08F7
:100870008007C0173840504082094A409906C9177E
:10088000204B194051408006C0173840484011990C
:1008900048400107C9171C4A11404207D217164B9E
:1008A0001A404A40C106CB172B4053408106C91756
:1008B000314059400246224052423A404308534098
:1008C0005A088007C0173840504082094A409906AC
:1008D000C9170C4B194051408006C017384048409A
:1008E000129948400107C917074A11404207D21719
:1008F000014B1A404A4009E019C46D076410B71D46
:10090000C8206E3B9041DC763288DB0EC106CB17E7
:100910002B4053408106C9173140594002462240BE
:1009200052423A40430853405A088007C0173840A3
:10093000504082094A409906C917CC4B1940514092
:100940008006C01738404840139948400107C9172E
:10095000C74A11404207D217C64D2A404A40C10635
:10096000CB17C5490B4053408106C9173140594048
:100970000246224052423A40430853405A088007F8
:10098000C0173840504082094A409906C917B74BF2
:10099000194051408006C0173840484014994840DB
:1009A0000107C917B24A11404207D2172A404A40EC
:1009B000C106CB17B0490B4053408106C9173140DF
:1009C00059400246224052423A40430853405A0896
:1009D0008007C0173840504082094A409906C9171D
:1009E000A24D294051408006C01738404840159913
:1009F00048400107C9179E4A11404207D2179D4B34
:100A00001A404A40C106CB179B490B405340810610
:100A1000C917314059400246224052423A404308E9
:100A200053405A088007C0173840504082094A4056
:100A30009906C917294051408006C01738404840E0
:100A4000169948400107C917F04E31404207D217A6
:100A5000EF4B1A404A40C106CB17EB4D2B40534099
:100A60008106C917E74A11405940024622405242C6
:100A70003A40430853405A088007C0173840504056
:100A800082094A409906C917DD4B1940514080063A
:100A9000C01738404840179948400107C9173140EE
:100AA0004207D217DA4B1A404A40C106CB172B40F7
:100AB00053408106C917D34A11405940024622408B
:100AC0001B9452423A40430853405A088007C017CB
:100AD0003840504082094A409906C917C84B19400E
:100AE00051408006C017384048401999CAB2424068
:100AF0005008114621404B423B4043405808910763
:100B0000CC173C404440A00917905007C617C04876
:100B100006401007C017BD490840D506ED17BA4971
:100B20000D409206D217B7490A409B06DB17B4491D
:100B30000B40A406E4173C407040684050401799B1
:100B40004840584060401999090ACAB242405008CA
:100B500011461B9B19404B423B40434058089107AC
:100B6000CC173C404440A00917905007C617A8482E
:100B700006401007C017A5490840D506ED17A24941
:100B80000D409206D2179F490A409B06DB179C49ED
:100B90000B40A406E4173C40704068405040179951
:100BA0004840584060401999090CCAB24240500868
:100BB00011461B9B19404B423B404340580891074C
:100BC000CC173C404440A00917905007C6179048E6
:100BD00006401007C0178D490840D506ED178A4911
:100BE0000D409206D21787490A409B06DB178449BD
:100BF0000B40A406E4173C407040684050401799F1
:100C000048405840604019990A0E42405008114629
:100C10001B9B19404B423B40434058089107CC175F
:100C20003C404440A00919905007C6177848064038
:100C30001007C01775490840D506ED1772490D40D9
:100C40009206D2176F490A409B06DB176C490B408E
:100C5000A406E4173C407040684050401999484051
:100C600058401A9B6040002B08D17EE09041DC7612
:100C70003288DB0E19C46D076410B71D1C991A93D6
:100C80001C91098807F0BEFC1C99498807F0BAFC42
:100C90001C99898807F0B6FC1C99C98807F0B2FC3A
:100CA0001C99097A414048080A461B9B1A40524247
:100CB000524F3A40424050088B07DB173B404340BD
:100CC000980919904807C417514804400807C517E8
:100CD0004E480540C806C6174B4806408806C71749
:100CE000484807409006C017454908409906C9176B
:100CF000424A11401C9A527A62406A4072407A40DD
:100D00003E4F199B5A4041405140480813461B9C96
:100D100023405C423C40444060089307DE173E405D
:100D20004640B3095007C517394805401007C0179A
:100D3000364A1040CA06D217334F3A408906C917BF
:100D4000304F3940A406E4172D4F3C40B606F61745
:100D50002A4F3E4068405040484058401A9B1C99DA
:100D6000604070400A315B1E89D11899002942D039
:100D700005460398806A1C90029F781E032109F0A3
:100D800099FA481C00260328344600D004461B90DC
:100D9000032F284618D33D1B00261C9F398807F0D7
:100DA00031FC798807F02EFCB98807F02BFCF98814
:100DB00007F028FC398907F025FC798907F022FC27
:100DC000F61C0C37B542E9D11B99032913D0B100A9
:100DD0001C9A5518298807F015FC698807F012FC41
:100DE000012C08D0A98807F00DFCE98807F00AFC5F
:100DF0000835A41EEED1C0431DB0F0BD2083B8ED70
:100E00009041DC76C8206E3B6410B71D3288DB0E43
:100E100019C46D07F0B5B7B01D4617920C460746CA
:100E200048261846314609F0B1FD002F01D100F0E7
:100E300091FC139516960920149080013D18159485
:100E400020463E4606F0F1FC002807D02F20000186
:100E50003718386804F03CFD00280AD000202870BC
:100E60001699685417204001301809F069FD37B011
:100E7000F0BD7868002803D006F054FA0028EDD1C0
:100E800010960B9721201599085C0027C10702D105
:100E9000109B2E4614E0109B197800292E460FD087
:100EA000197900290CD0D968002909D01599896CC5
:100EB0001A691E46179B9A1A8A421AD8371D19E0DA
:100EC000810701D4139D20E0194690310A78002A49
:100ED000139D1AD00A79002A17D0CA68002A14D0A4
:100EE000159A946C0B69179AD31AA34204D9109BD4
:100EF0000BE000273346CCE7002F109B04D03A7953
:100F0000097A8A4201D05EE00F1D41071DD5149970
:100F1000490159180A78002A17D00A79002A14D0F2
:100F2000CA68002A11D0159A926C0B69179CE31AB3
:100F3000934201D9109B08E0002F109B04D03A790E
:100F4000097A8A4201D03EE00F1D00071DD51B2003
:100F5000000118180178002917D00179002914D050
:100F6000C168002911D01599896C0269179B9A1ADA
:100F70008A4201D9109B08E0002F109B04D03979D8
:100F8000007A814201D01EE0071D2C46443430789F
:100F9000002F0ED00C9706940027012200281AD0AB
:100FA000B0790C9909798842384615D1F06A002247
:100FB00012E00028179906D0F068081A1599C96C34
:100FC000884200D864E200203070169970541720CF
:100FD0004001181849E73846039204900896159D79
:100FE00021350D970F97099504E0109B7F1C042F66
:100FF00000D19CE1287801263146B9400142F5D064
:10100000902078431A1810780028EFD01079002823
:10101000ECD0D468002CE9D00E911598806C116941
:101020001346179A511A8142DFD88C20185C0106AA
:1010300022D007937833C4B2A20032A8194609F02F
:10104000D5FC0A94012C11D00A98841E0321204655
:1010500009F030F9481C0328059000D100201290B7
:10106000022C3DD20598032800D0E6E00A984008FB
:10107000800032A90C58079B0C980079197A884295
:1010800000D011E20B980568204609F0E5FA024607
:10109000F9B218AB284609F065FB002800D103E23D
:1010A0000F98C0B21490C1002AAA5318FD001598D9
:1010B00046197668455955505E601498810022AAF9
:1010C0005450189A26AB5A5021A90F540D980E99D6
:1010D00008430D900F98401C0F90109B099D85E7C9
:1010E0001298C0430A99401811900021012609E086
:1010F0000846800032A90C50F61C1499C91C11989E
:101100008142AFD01491B00032A90C583246354616
:10111000900032A94118091F0B68A342114623D938
:1011200032A90B50681EC1B2002000291BD08A00D2
:1011300032ABD3181B1F1B68A34215D932A98B50A1
:10114000A91EC9B200290ED08A0032ABD3181B1FCA
:101150001B68A34208D932A98B50ED1EEAB2002ABF
:101160000146D5D100E00146880032A90C50751C1B
:10117000A8000C582A46A90032A80818001F0368C6
:10118000A342284623D932A84350501EC0B20021A2
:1011900000281BD0850032ABEB181B1F1B68A34235
:1011A00015D932A84351901EC0B200280ED0850038
:1011B00032ABEB181B1F1B68A34208D932A843515E
:1011C000D21ED5B2002D0846D5D100E008468000D9
:1011D00032A90C50B21C90000C581546910032A850
:1011E0000818001F0368A342104682D932A8435052
:1011F000681EC0B20021002800D179E7820032AB1E
:10120000D3181B1F1B68A34200D872E732A8835073
:10121000A81EC0B2002800D16AE7820032ABD31802
:101220001B1F1B68A34200D863E732A88350ED1E42
:10123000EAB2002A0846D1D15BE7002014900BE007
:101240002046800032A90A50B61C1499891C1298B5
:101250001491814200D109E7B00032A90A583546FD
:101260003346AC0032A82018001F0168914228467E
:1012700023D932A80151581EC0B2002400281BD027
:10128000850032A96918091F0968914215D932A849
:101290004151981EC0B200280ED0850032A96918AD
:1012A000091F0968914208D932A84151DB1EDDB2FD
:1012B000002D2046D5D100E02046800032A90A50FA
:1012C0000120149908431299884200D1CEE6751C7A
:1012D000A80032A90A582B46AC0032A82018001FDB
:1012E000016891422846ACD932A80151581EC0B2BB
:1012F00000240028A4D0850032A96918091F0968B4
:1013000091429ED932A84151981EC0B2002897D070
:10131000850032A96918091F0968914291D932A83C
:101320004151DB1EDDB2002D2046D5D189E70F9853
:10133000C0B208990D781490012820D8002D139C74
:10134000159B069D0C9800D1B3E000798A799042F4
:1013500000D0AEE0C868179A101ADA6C904200D933
:10136000A7E04822204609F041FB0D98E0710020DB
:1013700020720F9860720120687037B0F0BD002DA8
:10138000139C159F0B9B1CD088790C9A1279904264
:1013900017D1187A002814D0D868179A101A7A6CC6
:1013A00090420ED24822204609F020FB0D98E071B1
:1013B000002020720F98607201200699487037B0A3
:1013C000F0BD01241C721798D86021A81499022935
:1013D00078D10278002A75D14078012872D15868F6
:1013E00000286FD02146229A01263404A24268D2F6
:1013F000239BA3420C4665D291B29AB218AB00F07F
:10140000F7FD00285AD017204001109908180C9AAF
:1014100051881279199B06F023FF796A07F08FFB38
:10142000044618A840780028049802D01A9807F0BB
:1014300075FDCA4908F0B8F9054605F08FFE01466A
:10144000204608F0B1F907461D901495284605F08E
:10145000B7FC01461694204608F0A6F903461E90F4
:1014600018A8417808984830002900D13BE10B9931
:1014700009686922D20089181DAA179D009501925A
:101480003A4601F081F91D9812901E9811902FE1B3
:1014900048222846314609F0A9FA0020E87128813F
:1014A0000120607037B0F0BD002008990870169ACE
:1014B00088541720400110990818D6E40898057838
:1014C00000E00C46002D089A08D090790C99097913
:1014D000884203D1116950691F9105E000201F90D7
:1014E000786AB96A07F02BFB2090F86B32A900905C
:1014F00001912AA826A91FAB149A03F035FB0028F6
:1015000000D127E132A8417C1291807C1190002605
:101510003046314606E010433943761C149AB242F5
:101520001C4611D021AA925D2746974023462546A6
:10153000B5402C46129A14403A4600D12246119CDE
:101540002540E8D12F46E6E7139F3C7032AA137C72
:101550000026022B00D834467C70BE700C9D6C882F
:10156000BC802C79BC71F87139727B72339D349CCC
:101570001798F8603D617C6135983864D17C069A93
:1015800011701599C96B08F021FA7F211496CE05C8
:10159000314607F0D4FA01463046149E08F016FA98
:1015A000386378632046214608F0FEF80446284652
:1015B000294608F0F9F8214607F0C1FA07F05AFE6B
:1015C0001599496A07F0B6FA0446314608F0C8FB97
:1015D000002800D126463499339806F0BDFC5E49B8
:1015E00008F0E2F802460B9800683B46383339466B
:1015F0003C31009135463146149205F0E5F800285B
:10160000089C169E4ED0B96B284607F098FA0746FC
:101610000024214608F0A4FB002800D13C46139F7B
:10162000F96B149807F08BFA07F078FC06461598CA
:10163000416A204607F083FA05467878411E8841C2
:101640000399014302D10120B870049E43493046FA
:1016500008F0AAF8064605F081FD0146284608F084
:10166000A3F804461D90304605F0AAFB0146284623
:1016700008F09AF803461E907978089E3046483064
:1016800000293D4617D00B9909686922D2008918B4
:101690001DAA179F00970192224601F075F81D9C24
:1016A0001E9B0AE03846314609F070F90020207090
:1016B000A05537B0F0BD002101701599069FAC61AF
:1016C000EB61284608F074FB687A042801D30420F3
:1016D00004E0032801D1032000E0022078704822B2
:1016E0003046294634E000210170179D129711936E
:1016F000139F3E80BE700C994888B8800879B871F5
:101700000D98F87102267E72FD60149C204605F04B
:1017100025FD0146169D284608F046F8386120460A
:1017200005F04EFB0146284608F03EF87861129815
:10173000B8611198F8611B981C9938637963069811
:1017400046703846159908F033FB48220898394608
:1017500009F04CF937B0F0BDE02E654235FA8E3C09
:10176000F0B5A9B015460291064600200B9010A9CD
:10177000325C0A54002A6FD00B1831184C7810AA2A
:101780005C70002C6ED013188C7810AA9C70002C02
:101790006ED01318CC7810AADC70002C6ED0131801
:1017A0000C7910AA1C71002C6ED013184C7910AA59
:1017B0005C71002C6ED013188C7910AA9C71002CCF
:1017C0006ED01318CC7910AADC71002C6ED01318CF
:1017D0000C7A10AA1C72002C6ED013184C7A10AA26
:1017E0005C72002C6ED013188C7A10AA9C72002C9C
:1017F0006ED01318CC7A10AADC72002C6ED013189D
:101800000C7B10AA1C73002C6ED013184C7B10AAF2
:101810005C73002C6ED013188C7B10AA9C73002C68
:101820006ED01318CC7B10AADC73002C6ED013186A
:101830000C7C10AA1C74002C6ED013184C7C10AABF
:101840005C74002C6ED01218897C917400296FD0C2
:1018500013305F288BD175E05F21091A10AA101888
:10186000401C6AE05E21091A10AA1018801C64E06E
:101870005D21091A10AA1018C01C5EE05C21091A2B
:1018800010AA1018001D58E05B21091A10AA1018A0
:10189000401D52E05A21091A10AA1018801D4CE070
:1018A0005921091A10AA1018C01D46E05821091A1A
:1018B00010AA1018083040E05721091A10AA101871
:1018C00009303AE05621091A10AA10180A3034E0FB
:1018D0005521091A10AA10180B302EE05421091AAC
:1018E00010AA10180C3028E05321091A10AA101859
:1018F0000D3022E05221091A10AA10180E301CE0F7
:101900005121091A10AA10180F3016E05021091A97
:1019100010AA1018103010E04F21091A10AA101840
:1019200011300AE04E21091A10AA1018123004E0F2
:101930004D21091A10AA10181330022902D3491E8A
:1019400009F024F8039604955F2110A80022019164
:101950000A924254F34F02E02C218170C01C01789E
:10196000092907D03B2905D000291ED079184978CC
:10197000C90601D52C2101704178092907D03B29DE
:1019800005D0002911D079184978C90601D52C2134
:10199000417081780929DFD03B29DDD0002904D0AE
:1019A00079184978C906D7D4D8E7DF4910A808F0D4
:1019B00019FC002800D1CDE2054601260A980690C0
:1019C00007900590099609E00A9000242046D64920
:1019D00008F008FC0546002800D1E7E12878002837
:1019E00019D06D1C38184078C00611D52878002809
:1019F00011D038184078C0060DD56878002809D075
:101A000038184078C00605D5A878ED1C0028E9D123
:101A10006D1E00E06D1C0020295C00290AD02918E9
:101A20004A78002A05D08978C01C0029F4D1401ECC
:101A300000E0401C2818A84217D9421E11787918D6
:101A40004978C90611D5AA4212D9811E0B78FB1814
:101A50005B78DB060CD5A94209D9C01E0278BA18FA
:101A60005278D2060A46E6D402E0024600E00A4670
:101A7000002111702A78002AA7D03D2A284623D1B8
:101A8000002804D13A2A284633D1002846D00170D4
:101A90002A78002A53D06D1CBA185278D20611D574
:101AA0002A78002A4BD0BA185278D20647D56A78DD
:101AB000002A43D0BA185278D2063FD5AA78ED1C36
:101AC000002AE9D16D1E3AE0681C1346002BD9D0DC
:101AD0000378002BD6D03D2BD2D04378002BD1D029
:101AE0003D2B00D15EE18378C01C3D2BEED1401E22
:101AF000C6E7681C1346002B10D00378002B0DD0CE
:101B00003A2BC2D04378002B08D03A2B00D14BE1BE
:101B10008378C01C3A2BEED1401EB6E70798032805
:101B200000D952E7B8184078800700D44DE70799EC
:101B3000481C89000CAA5550079046E76D1C6A5C4A
:101B4000002A0AD06A185378002B05D09278C91C55
:101B5000002AF4D1491E00E0491C6918A94217D98E
:101B60004A1E1378FB185B78DB0611D5AA4212D9FE
:101B70008B1E1C783C196478E4060CD5AB4209D95D
:101B8000C91E0A78BA185278D2061A46E6D402E07C
:101B90000A4600E01A46002111704278002A18D047
:101BA000841CB8184078C00611D52078002813D0BE
:101BB00038184078C0060FD5607800280BD0381848
:101BC0004078C00607D5A278E41C002AE9D1641E3B
:101BD00002E0441C00E0641C605C00280AD060182D
:101BE0004278002A05D08078C91C0028F4D1491E0B
:101BF00000E0491C6018A04217D9411E0A78BA18A3
:101C00005278D20611D5A14212D9821E1378FB1840
:101C10005B78DB060CD5A24209D9C01E0178791881
:101C20004978C9061146E6D402E0014600E01146B3
:101C300000230B70297800291FD0284605E0817009
:101C4000C21CC1780029104617D0CAB2613A1A2ABC
:101C500000D220390170417800290ED00A46613A3D
:101C60001A2A00D2203941708178002905D00A460D
:101C7000613A1A2AE3D22039E1E708932846D1498C
:101C800007F01EFE002817D02846CF4907F018FE9F
:101C9000002811D02846CD4907F012FE00280BD0AD
:101CA0002846CB4907F00CFE002805D02846C94934
:101CB00007F006FE002842D1601C411E0A78B918C0
:101CC0004978401CCB06F8D4861E302A09D1421E22
:101CD000127820231343782B03D10178791849789F
:101CE000064688072AD528A91022304606F09EF815
:101CF000289AB24222D011787B185B78DB060AD58D
:101D000051787B185B78DB0605D591787B185B787A
:101D1000D21CDB06EFD4AA4A904207D8099A089B46
:101D200006E0C04690B30000FEB600000123099A09
:101D30000029114600D1194601292FD1099E2846B4
:101D4000A54907F0BDFD00281ED02846A34907F08D
:101D5000B7FD002818D02846A14907F0B1FD00289A
:101D600012D028469F4907F0ABFD00280CD028462A
:101D70009D4907F0A5FD002806D028469B4907F09D
:101D80009FFD002800D020E60BA9204606F0F8FDB4
:101D90000028304600D017E60A9815E60590099EFF
:101DA000069612E6401C6BE6401C6EE60698C007DD
:101DB00004D0079802283ED300203DE0079802286F
:101DC00000D2C7E00C98401C411E0A78B918497827
:101DD000401CCB06F8D4861E302A09D1421E127848
:101DE00020231343782B03D10178791849780646CC
:101DF000880733D528A91022304606F017F8054683
:101E00002898B0422AD001787A185278D2060AD59A
:101E100041787A185278D20605D581787A185278A6
:101E2000C01CD206EFD44C424C416548401C854250
:101E300011D3002010E001200A99C907324600D1D1
:101E40000246002A02D0059D0A9C0BE00029344678
:101E5000059D12D109E00120044000D1059D0A989A
:101E6000C00702D0E00708D174E00D980BA906F076
:101E700087FD002C6ED000286CD07421049E304663
:101E800008F084FD0120307075800F2028403071EB
:101E90000B98B0600298F060122003990B181A4654
:101EA000123A1278002A5BD01A46113A1278002AA8
:101EB00058D01A46103A1278002A55D01A460F3ACE
:101EC0001278002A52D01A460E3A1278002A4FD0C1
:101ED0001A460D3A1278002A4CD01A460C3A12785B
:101EE000002A49D01A460B3A1278002A46D01A46E0
:101EF0000A3A1278002A43D01A46093A1278002A80
:101F000040D01A46083A1278002A3DD0DA1F1278DB
:101F1000002A3BD09A1F1278002A39D05A1F127813
:101F2000002A37D01A1F1278002A35D0DA1E12780C
:101F3000002A33D09A1E1278002A31D05A1E127805
:101F4000002A2FD00A5C002A2DD013307128A5D189
:101F5000019828E0002104980170084629B0F0BDDE
:101F6000123820E011381EE010381CE00F381AE05B
:101F70000E3818E00D3816E00C3814E00B3812E07B
:101F80000A3810E009380EE008380CE0C01F0AE0FB
:101F9000801F08E0401F06E0001F04E0C01E02E0B2
:101FA000801E00E0401E30741136C4B23046224616
:101FB00008F01CFD00203055099829B0F0BDC0463E
:101FC000FFFF0000EDB60000C7B6000068B60000D5
:101FD000E3B60000A8B60000BDB6000045B600009C
:101FE00078B60000A2B6000057B60000EAB60000BE
:101FF000F0B5B9B0002B00D1E1E1144605910027FE
:102000001F605F609F60DF601F6106461D4605F030
:1020100089F9002800D0D3E10295F08813900028B8
:1020200000D1CDE10025E8430B90706A119005982E
:1020300008F012FB1090F0680F90204608F00CFB9F
:102040000E9030690D900896307A0C9029A80146C0
:1020500014310A910146103903911838049019A8D7
:10206000014614310691014610390091183801904B
:1020700029462A46129515950DE0C00019A90A189F
:10208000149B0B50189850602A461799491C1398B6
:10209000814200D164E116920A20179148431199B8
:1020A0000C18085A08F0D8FA0146109806F042FDBC
:1020B0000F9907F08BFC06461494608808F0CCFA60
:1020C00001460E9806F036FD0D9907F07FFC01469B
:1020D00007F06AFB07463046314607F065FB394694
:1020E00006F02DFD1890159B1806129F2DD0D8B222
:1020F0000B9C444301210D1A02270A9E30461038DA
:102100000068189907F04AFE00281AD1E819022839
:1021100014D0304608380068189907F03FFE0028B0
:1021200011D1E0190AD03068189907F037FE00285D
:102130000AD1FF1CE01918360228DFD1159B1F4673
:1021400003E0BF1E00E07F1E159BF8B2D9B20C9AC7
:10215000914204D3904202D3169A149B61E09142BB
:1021600004D30024914204D25D1C03E00124914277
:10217000FAD31D466A1ED3B2834249D909951599EF
:102180000C19E41BA41EE1B2AB2507914D436D0A67
:1021900003266E43A41B611C1591CCB2032C01D104
:1021A00000211591032C1BD0DC0003990E19002788
:1021B000B468F1683461716101213943C9B2159C79
:1021C000E4B2A1420AD022CE31607560921E9B1EFD
:1021D000BF1CF9B2183EA142EAD101E0521E5B1EBB
:1021E00007990229099D13D3D900049B5B1819692B
:1021F0005C69DC619961D9689C681C6159615968A6
:102200001C689C60D960D21ED1B2183B8142EED8C6
:10221000C00029A90A18149B0B50189850601595F6
:10222000169A187AC007179900D12FE70898437AB1
:1022300010062BD00993D0B20B9D454301210C1AF7
:102240000227069E304610380068189907F0A6FD50
:1022500000281DD1E019022814D030460838006843
:10226000189907F09BFD002814D1E8190AD03068AE
:10227000189907F093FD00280DD1FF1CE8191836B6
:102280000228DFD1169A1746099B06E0002704E0D2
:10229000BF1E00E07F1E099B169AF8B2D1B2994288
:1022A00002D3984200D3F0E6994204D30024994225
:1022B00004D2551C03E001249942FAD315466A1E44
:1022C000D3B2834200D8D8E6099516990C19E41BBD
:1022D000A41EE1B2AB2507914D436D0A03266E4360
:1022E000A41B611C1691CCB2032C01D100211691C4
:1022F000032C1BD0DC0000990E190027B468F1688C
:102300003461716101213943C9B2169CE4B2A14222
:102310000AD022CE31607560921E9B1EBF1CF9B29E
:10232000183EA142EAD101E0521E5B1E0799022924
:10233000099D00D2A1E6D900019B5B1819695C696F
:10234000DC619961D9689C681C61596159681C6895
:102350009C60D960D21ED1B2183B8142EED88CE687
:102360001598000602982AD0169201211291017048
:102370002A98FE49149007F0F3FC1599CDB2002875
:1023800021D0002729AE3C467068F84907F0E8FCE8
:1023900000280ED03068808808F05EF9014620469B
:1023A00006F0CDFB04467F1C6D1E0836002DEBD1D8
:1023B000159FF8B208F050F9014620462FE000279B
:1023C000384639B0F0BD002129AC0E461AE07F2016
:1023D000C005314607F0FAFA07462068808808F001
:1023E0003BF90146384607F0DFF9179906F0A7FBDD
:1023F00006461898394606F0A2FB01466D1E0834C1
:10240000002D0BD01796189167683846D84E314684
:1024100007F0A6FC0028DAD13E46D8E7304607F0A0
:10242000D5FA0646089F7C697F20C50520462946C7
:1024300007F0AAFC0028139506D11894BC7A022C48
:10244000029804D2129FC3E00298129FC0E0179630
:10245000BE6A002E30D0B8690025294607F09EFCE0
:1024600000282CD0149806F005FFB96907F0AEFAE1
:102470000146139F384606F05DFB044600263146B0
:1024800007F06EFC002807D12046394607F086FC8D
:102490000028264600D03E463846189C214606F0C5
:1024A00049FB314607F080F9214606F048FB01461A
:1024B0000898866A847A04E0129F179E88E0139F2A
:1024C00018993846189106F035FB1590A000301881
:1024D0000146071F3888059A90421ED9301D022CEC
:1024E00018D33188914215D2611E7719BA88059B9D
:1024F0009A4215D201290DD03A89059B9A4211D2F0
:10250000022907D0BA89059B9A420DD2C91E0C3503
:102510000029EAD10746354608E00D46083D05E0AA
:102520003F1D02E0083700E00C373D1F388808F0F7
:1025300093F806462C46288808F08EF80546304663
:10254000294606F0F7FA06460120C10730468843BF
:10255000884907F005FC00280FD0608808F07CF857
:102560000546788808F078F80146284606F0E7FA2C
:102570003F21090607F018F91AE0059808F06CF8F1
:10258000294606F0D7FA314607F020FA0646608859
:1025900008F062F80546788808F05EF8294606F0EB
:1025A000C9FA0146304607F0FFF8294606F0C7FA97
:1025B0000146159807F0F8F805461898179907F09E
:1025C000F3F8294606F0BBFA06460298129F139DBF
:1025D0004660149806F04EFE294606F0B0FA014611
:1025E000284607F0F3F90299C8601698000600D152
:1025F000E6E61A9E304606F03DFE0899C96907F0E6
:10260000CDFB0021002800D09CE0109157493046B6
:1026100007F0A6FB002811962ED01698C0B20B9991
:1026200041430B9119AE143601210F1A02254F4C6C
:10263000304610380068214607F092FB00281DD074
:102640007819022816D0304608380068214607F06D
:1026500087FB002814D00B9840190BD03068214616
:1026600007F07EFB00280CD0ED1C0B9840191836A3
:102670000228DDD1169D04E0169D06E0AD1E00E0A7
:102680006D1E129F119E28066AD0EFB23B4C0020AF
:102690003B4D19AA1890179016E0214607F096F9BD
:1026A0000446314607F080F8179906F048FA17906B
:1026B0001898214606F043FA18907F1E159A0832A2
:1026C000002F1498044629D0169710681746062143
:1026D000405E07F08DFE2B4907F078F90646159706
:1026E0007F68294607F03CFB0028304600D1284689
:1026F00005463046214607F051FB0028304600D100
:102700002046149038461A4C214607F029FB002831
:1027100013983A46169FC0D11446BEE7294606F0E4
:1027200009FA129F119E0899096A07F037FB0028E1
:10273000139D109906D11798189907F047F9029937
:1027400088603946029C6170304606F093FD294648
:1027500006F0F5F90146284607F038F920612FE622
:102760000548002117911891DDE7C046CCBC8C2BA1
:1027700017B7D139BD3786350000FAC400007AC4D6
:1027800000007A440000C842F0B5A1B01F460E46D2
:102790000446279D2699007800281792209100D1A1
:1027A000FFE0069715956068081A07F055FF8649FF
:1027B00007F00CF9054618967769394607F0EEFAE6
:1027C000002800D12F46209860602069A56839460E
:1027D00006F0EAFF294606F0B2F91090A0606069A1
:1027E000E568394606F0E0FF294606F0A8F90590AD
:1027F000E060A569A16B1C91384606F0D5FF29461B
:1028000006F09DF92090A56AA16C1B91384606F050
:10281000CBFF294606F093F91F90E569E16B14910F
:10282000384606F0C1FF294606F089F91190E56A9D
:10283000E16C0E91384606F0B7FF294606F07FF9A5
:102840001390256A216C0F91384606F0ADFF129067
:10285000294606F074F91E90256B216D38460891C3
:1028600006F0A2FF0C90294606F069F91D90666AF1
:10287000616C3846079106F097FF0A90314606F0E2
:102880005EF90646656B1694616D0D91384606F04B
:102890008BFF0446294606F052F9054638461E9934
:1028A00006F082FF209906F04AF90B9038461A96F6
:1028B000314606F079FF119906F041F9209038462B
:1028C0001D9906F071FF1F9906F039F91F903846DF
:1028D0001995294606F068FF139906F030F909901A
:1028E00012981C9906F02BF911900A98149906F089
:1028F00026F912900C981B9906F021F913902046A6
:102900000E9906F01CF91490189C26682F49384639
:1029100006F015F905463046294606F045FF0646FD
:102920000B9906F00CF907463046099906F007F9AD
:1029300006466068294606F037FF05460F9906F0FF
:10294000FEF80C9028460D9906F0F9F80D90A56850
:102950001B973846294606F0F2F807461C96304683
:10296000294606F0ECF804460120C5072099694085
:102970001F9806F019FF064638461894214606F0BF
:1029800013FF314606F0DBF80446A843104907F070
:10299000E7F900281ED0159D109828601698C76882
:1029A00047E25821204607F0F1FF012020702098CF
:1029B00060601799A160E760F068A061E06230692B
:1029C00020646065296034E200007A446F12833A23
:1029D000BD3786351B9D2846189906F0E5FE314621
:1029E00006F0ADF80294214606F0F0FF0490384658
:1029F000209C214606F0D8FE0646284621460E9722
:102A000006F0D2FE0146304606F094F8029F3946A1
:102A100006F0DCFF03901F9C20461C9D294606F013
:102A2000C3FE06462046189906F0BEFE314606F063
:102A300081F8394606F0CAFF0F900E98294606F035
:102A4000B3FE06462046209906F0AEFE014630460B
:102A500006F070F8394606F0B9FF09902046129C3E
:102A6000214606F0A1FE0646119D2846189906F05B
:102A70009BFE314606F05EF8394606F0A7FF0B9044
:102A80000E98214606F090FE06462846209906F04C
:102A90008BFE0146304606F04DF83D46394606F0BD
:102AA00095FF0A901F98149C214606F07DFE06466D
:102AB000139F3846189906F077FE314606F03AF82B
:102AC0002E46294606F082FF18900E98214606F001
:102AD0006BFE05463846209906F066FE01462846FC
:102AE00006F028F8314606F071FF0E9017981099FD
:102AF00006F020F805460698059906F01BF80646EC
:102B0000039906F051FE07460498294606F04CFE4C
:102B1000394606F014F80146169CA06806F00FF836
:102B20001790A0603046099906F03EFE07460F98C0
:102B3000294606F039FE394606F001F80146E068FC
:102B400005F0FDFFE06030460A9906F02DFE0746CD
:102B50000B98294606F028FE394605F0F0FF01469D
:102B6000206905F0ECFF206130460E9906F01CFE4E
:102B700006461898294606F017FE314605F0DFFF95
:102B80000146606905F0DBFF6061049C20461B9DE7
:102B9000294606F009FE0146284605F0CBFF05460A
:102BA000039E30461F9906F0FFFD0146284605F0BA
:102BB000C1FF10902046209D294606F0F5FD0146F4
:102BC000284605F0B7FF054630461C9906F0ECFD97
:102BD0000146284605F0AEFF069020461E9D294678
:102BE00006F0E2FD0146284605F0A4FF0546304602
:102BF0001D9906F0D9FD0146284605F09BFF05907A
:102C000020461A9C214606F0CFFD0146204605F0DD
:102C100091FF05463046199906F0C6FD0146284643
:102C200005F088FF04900F9F38461B9906F0BCFD05
:102C300001461F9E304605F07DFF0546099C204653
:102C4000314606F0B1FD0146284605F073FF0390BA
:102C50003846209906F0A8FD01461C9E304605F036
:102C600069FF05462046314606F09EFD014628468E
:102C700005F060FF029038461E9906F095FD01466A
:102C80001D9F384605F056FF054626462046394624
:102C900006F08AFD0146284605F04CFF01900F988A
:102CA0001A9906F081FD0146199C204605F042FF65
:102CB00005463046214606F077FD0146284605F0D8
:102CC00039FF0F900B9E30461B9906F06DFD0146B3
:102CD000119805F02FFF05460A9F38461F9906F008
:102CE00063FD0146284605F025FF11903046209CE3
:102CF000214606F059FD0146129805F01BFF0546D6
:102D000038461C9906F050FD0146284605F012FF92
:102D1000129030461E9906F047FD01460C9805F0CA
:102D200009FF054638461D9906F03EFD0146284636
:102D300005F000FF0C9030461A9906F035FD01466B
:102D4000079805F0F7FE05463846199906F02CFD60
:102D50000146284605F0EEFE0B90189F38461B9959
:102D600006F022FD0146139805F0E4FE05460E9E8E
:102D700030461F9906F018FD0146284605F0DAFE98
:102D80001F903846214606F00FFD0146149805F0C5
:102D9000D1FE0546304634461C9906F005FD014635
:102DA000284605F0C7FE054638461E9906F0FCFC8D
:102DB0000146089805F0BEFE064620461D9906F01D
:102DC000F3FC0146304605F0B5FE064638461A9932
:102DD00006F0EAFC01460D9805F0ACFE07462046D9
:102DE000199906F0E1FC0146384605F0A3FE169954
:102DF000109A8A61069ACA61059A0A62049A4A621E
:102E0000039A8A62029ACA62019A0A630F9A4A6313
:102E1000119A8A63129ACA630C9A0A640B9A4A64DA
:102E20001F9A0B46483364C34865159D1798286060
:102E3000CF686F6021B0F0BDF0B58FB00546992026
:102E4000C143084699300E90002D00D10AE302914B
:102E50006920C000281800901F2000012818079042
:102E60007D4E7E4F29680EAC0C94204604F038FB52
:102E7000A988204605F06EFAE988204605F06AFA2E
:102E8000287A0E99414001220D9208461040434293
:102E900048083340434058088A07D4173440444018
:102EA000A0090B904807C6173E400807C0176C4A98
:102EB0001040CF06FF176B4A17408906C9176A4AA8
:102EC00011409B06DB17694A1340A406E417624AC7
:102ED00014407040784048400B994840584060404A
:102EE0006A7A424010460D990840434250085A4EB3
:102EF0003340434058089107CC1734404440A00960
:102F00000B905007C617554806401007C017544984
:102F10000840D706FF1753490F409206D21752496F
:102F20000A409B06DB1751490B40A406E4174A49A7
:102F30000C407040784050400B99484058406040E9
:102F4000AA7A424010460D99084043425008424E2A
:102F50003340434058089107CC1734404440A009FF
:102F60000B905007C6173D4806401007C0173C4954
:102F70000840D706FF173B490F409206D2173A493F
:102F80000A409B06DB1739490B40A406E417324977
:102F90000C407040784050400B9948405840604089
:102FA000E97A414008460D9A1040434248082A4EAB
:102FB0003340434058088A07D41734404440A0099E
:102FC0000B904A07D617254806400A07D21724480F
:102FD0000240CF06FF17234807408906C917224839
:102FE00001409B06DB1721480340A406E4171A485A
:102FF000044072407A404A400B9842405A40624036
:103000000E92E9680C9C204604F06AFA2969204671
:1030100004F066FA6969204604F062FAA96920465C
:1030200004F05EFAE969204604F05AFA296A20465B
:1030300004F056FA696A204604F052FAA96A20465A
:1030400004F04EFAE96A204604F04AFA0420019599
:103050002E462C460CE0C0462083B8ED19C46D07FF
:103060003288DB0E6410B71DC8206E3B9041DC76C1
:103070000B940C90304680300A90304630300990E6
:103080003020305C0E9B434018460D990840454265
:103090005808F64A1540454068089907CC1714406F
:1030A0004440A00908905807C217F5480240180785
:1030B000C117F2480140D806C017EF4F38409B06B1
:1030C000DB17EC4F3B40AD06ED17E94F3D40A40642
:1030D000E417E64F3C405140414059400898414078
:1030E00069406140099842784A4010460D9908406D
:1030F000434250083D463B40434058089107CC1797
:103100003C404440A00909905107CD17DC480540D8
:103110001107C917D9480140D706FF17D6480740FD
:103120009206D217D34802409B06DB17D0480340D3
:10313000A406E417CD4804406940794051400998FD
:103140004140594061400B9C0E91718E0EAD284656
:1031500005F000F9716B284604F0C2F9B16B2846FE
:1031600004F0BEF9F16B284604F0BAF9316C284638
:1031700004F0B6F9716C284604F0B2F9B16C284637
:1031800004F0AEF9F16C284604F0AAF9316D284636
:1031900004F0A6F9716D284604F0A2F9B16D284635
:1031A00004F09EF9F16D284604F09AF9316E284634
:1031B00004F096F9716E284604F092F9B16E284633
:1031C00004F08EF9F16E284604F08AF97034316FFC
:1031D000284604F085F9716F284604F081F9B16F33
:1031E000284604F07DF9F16F284604F079F9802033
:1031F0003158284604F074F90A9E7168284604F094
:103200006FF9B168284604F06BF9F168284604F0BC
:1032100067F93169284604F063F97169284604F0BA
:103220005FF9B169284604F05BF9F169284604F0BA
:1032300057F90C98401E264600D019E7079C2188B4
:103240000EAD284605F086F86188284605F082F81C
:10325000A188284605F07EF8E188284605F07AF82E
:103260002189284605F076F86189284605F072F82C
:10327000A189284605F06EF8E189284605F06AF82C
:10328000218A284605F066F8618A284605F062F82A
:10329000A18A284605F05EF8E18A284605F05AF82A
:1032A000218B284605F056F8618B284605F052F828
:1032B000A18B284605F04EF8E18B284605F04AF828
:1032C000218C284605F046F8618C284605F042F826
:1032D00085208000019908180390029C0398071923
:1032E0009A200D90395A0EAD284605F033F89C20EF
:1032F0000C90395A284605F02DF89E200B90395A2B
:10330000284605F027F8A0200A90395A284605F0EB
:1033100021F8A2200990395A284605F01BF8A4206C
:103320000890395A284605F015F8A6200790395A12
:10333000284605F00FF8A8200690395A284605F0CF
:1033400009F8AA200590395A284605F003F8AC2060
:103350000490395A284604F0FDFFAE26B95B284692
:1033600004F0F8FF1634B9D14648019908180390C3
:10337000029D039847190D98395A0EAC204604F067
:10338000E9FF0C98395A204604F0E4FF0B98395AAB
:10339000204604F0DFFF0A98395A204604F0DAFF8D
:1033A0000998395A204604F0D5FF0898395A204622
:1033B00004F0D0FF0798395A204604F0CBFF069856
:1033C000395A204604F0C6FF0598395A204604F0C1
:1033D000C1FF0498395A204604F0BCFFB95B20466F
:1033E00004F0B8FF1635C4D1009D29680EAC204604
:1033F00004F076F86968204604F072F8A96820465F
:1034000004F06EF8E968204604F06AF8296920465D
:1034100004F066F86969204604F062F8A96920465C
:1034200004F05EF8E969204604F05AF8296A20465B
:1034300004F056F8696A204604F052F8A96A20465A
:1034400004F04EF8E96A204604F04AF8296B204659
:1034500004F046F8696B204604F042F80E98C04329
:103460000FB0F0BD00200FB0F0BDC0462083B8ED16
:103470009041DC76C8206E3B6410B71D3288DB0EAD
:1034800019C46D07AE020000F0B5FFB0A2B01F4630
:10349000144601910D90A69807908000DB490E58C4
:1034A0005D1ED01E1821009106F008FDC11788434B
:1034B0001721C94341430A19411B13910A967519F3
:1034C0000C9080001297B900401AD1494018061D8F
:1034D000002764AC0992AF420EDC1398C01904D4E3
:1034E000306807F0A3F8099A01E00020014603C400
:1034F0007F1C0034361DEEE71298C00064A9441802
:10350000083C00230A9FBB421FDC109300250D9F3F
:10351000119413952E46129885420FDA03CF0CCCE6
:10352000083C083F04F08AFF139A334604F04FFA30
:1035300013900E466D1C083C0837ECE707F0E8F9DD
:103540005B1C119C0834099ADCE710461838069079
:103550003020801A03902F20801A02908DA8011F1E
:10356000B8000591081804903A46D60014A88119AD
:1035700083594968083E8DAF0B9213921398012826
:103580002ADB11971096002618460C4632460E93F9
:10359000A04B04F053FF06F0DBFD07F047F80F9057
:1035A0000D463246109E119F9B4B04F047FF0E9A2A
:1035B000234604F00CFA06F0CBFD01C71398401E19
:1035C000139014A88119805949680F9A2B4604F06A
:1035D000FEF90346083ED1E71846069F3A4605F035
:1035E0003DFA04460D46FF2083050026204632465C
:1035F00004F024FF04F078FB0E963246874B04F06B
:103600001DFF22462B4604F0E2F904460D4606F063
:103610009FFD064607F00AF802460B46204629465B
:1036200004F0D0F91390012F11915CDB0B9880000E
:103630008DA94018001F01680A46039B1A4196197C
:1036400008969A40891A0160029801410A9D744EB9
:103650000E91012953DB00248DA821460B9A91423B
:103660000EDA0268002C334602D1002A06D0731C01
:103670009A1A02600124491C001DEFE70024FAE7B2
:10368000069801280899674F0B9B0EDB099A192AA7
:10369000654802D01A2A08D1644899008DAA891871
:1036A000091F0A6802400A600899491C08910E988F
:1036B000022824D100203946139A119B04F082F984
:1036C000064602200E90002C7CD000200C46394685
:1036D000069A05F0C3F902460B463046214604F02F
:1036E00071F907460DE00896002F0A9D5FD01398E8
:1036F0000E9AF04B06F016FB0028ED4E5FD1139F9B
:103700001199002438460E462246234606F0ECFA6C
:10371000002859D00B9EB000059909183246AA42DC
:1037200004DD521E0B681C43091FF8E7002C0499A6
:10373000324660D10868521C091F0028FAD012983E
:103740008019C00064A90F180F92711C964200DB0B
:103750000BE70C98109108188000D449085806F01F
:1037600065FF129AB218D20064AB9C189850616041
:10377000002511970D9C13952E46129885420FDA5D
:1037800003CC0CCF083F083C04F058FE139A334694
:1037900004F01DF913900E466D1C0834083FECE749
:1037A00007F0B6F8119F08371E460F9ACDE70B9821
:1037B00080008DA94018001F0068C11547E702204E
:1037C0000E9048E737469CE73946099F0098C21B90
:1037D0000846314605F042F905460C460022B74B33
:1037E00006F0A0FA002823D12846214606F0B0FCB6
:1037F00006460B9F39E08DA90818001F069A183A53
:10380000761E0168001F0029F9D033E0D8B500000A
:1038100088B200000000703E000070C1000020C0AF
:10382000FFFFFF000000F03FFFFF7F00FFFF3F00B2
:103830000027A34B284621463A4604F0FFFD06F038
:1038400087FC064606F0F2FE9E4B3A460B9F04F0BC
:10385000F5FD2A46234604F0BAF806F079FCB900D3
:103860008DAA50507F1C09980690B8008DA90E5063
:10387000069A3E46002090490C9005F0EFF8344639
:10388000B600E5000B942246002A1DD407468DA8F9
:10389000805913960C46164606F0C8FE02460B46A3
:1038A0003846214604F0CAFD14AA531950515960F4
:1038B000002238462146824B04F0C0FD3246139E5A
:1038C000521E361F083DDFE70B9FF90014A80D912B
:1038D00044183A46002A07990A982CD41092B91A2B
:1038E0008842129000DB12910F9100211194764EC4
:1038F0000F460D461298814211DC306813917168B1
:103900000CCC083C04F09AFD3A462B4604F05FF8D4
:1039100007460D461399491C08360834EAE70F9804
:10392000C0003CA90A180F505560109A521E119CF5
:10393000083C0B9FCEE7481E02281ED3002954D016
:10394000032900D0ACE03CA80D990C18083C38467F
:10395000002858DD06F052FF02460F462846314641
:1039600015463B4604F02EF807F02DF8A0C40B9F37
:10397000206013986160103CEAE7FE0000242546B1
:10398000002F0CD43CA8811982594B682046294647
:1039900004F01DF804460D467F1E083EF0E70126A0
:1039A0000E980028284601D0F007684001990C6065
:1039B00048603C983D9922462B4604F003F83CAC05
:1039C00008340B9DAE4206DC0CCC083C03F0FFFF34
:1039D000761C0834F6E70E9A002A02D00122D2079C
:1039E0005140019A9060D1605AE0F8003CA90C184F
:1039F00000200146002F21D40CCC083C03F0E7FF47
:103A00007F1E083CF6E73CA80D990C18083C384688
:103A100001281CDD06F0F2FE07460B46284631461B
:103A20003A461D4603F0CEFF06F0CDFF27600B9F00
:103A30006560A0601398E160083CE9E70E9A002AEF
:103A400002D00122D2075140019A03C228E00C980B
:103A50000146022F0ADB3CAA0D9C131912595B6820
:103A600003F0B5FF7F1E083C0D94F2E706463D9833
:103A70003C9A0E9B002B0CD00123DB0758403E9C48
:103A80003F9D5D405940019B1A601A1D71C25961EA
:103A900006E03E9B3F9C019D2A602A1D59C2696138
:103AA0000721089808407FB022B0F0BD88B200001E
:103AB000FFFFFF000000E03F0000F03F000070410A
:103AC0000000703E000070C1E8B40000F0B59FB087
:103AD000002800D1A7E20C46002900D1A3E2074646
:103AE0000668002E00D19EE27879002806D0606931
:103AF000B968401A80087D2800D294E2F6480A90FE
:103B000001201190387900280F9710947FD1A020C0
:103B10000090F2480190002480273046214622463A
:103B20003B4603F0B5FD0E250095ED48019030466B
:103B3000214622463B460F9F03F0AAFDE6481F3070
:103B400080B20090E648019011980290E54B1C214C
:103B50000422304606F0DDF9E048433880B2009593
:103B600001907F23304621462A4602F0A9F9119D93
:103B70000295DA480190DC480090DC4B07241322C0
:103B80003046214606F0C5F9D7480090D348019049
:103B90000295D74B1E223046214606F0BAF9D2488C
:103BA0000090CE4801900295D24B29223046214602
:103BB00006F0AFF9CC480090C84801900295CE4B72
:103BC00071223046214606F0A4F9C7480090C34848
:103BD00001900295C94B7D223046214606F099F9A5
:103BE00033220092C648019005247A2530462146AA
:103BF0002B4602F065F96C220092C14801903046D4
:103C000021462B46109C02F05BF911983871207800
:103C100017A90D9106F0D5FC15A90991204606F0CB
:103C200049FA12A9204605F07DFA3C68092600965B
:103C3000AA4F01973E210E9112223D230C9320465C
:103C400003F026FD38464338089080B20B90009070
:103C50000197119F029741251322204629460D9B6B
:103C600006F057F90F9804680D960096F8480190F1
:103C70001D2220460E990C9B03F00AFD0B98009024
:103C8000F348019002971E2220460B952946099B76
:103C900006F03FF90F980468109D284606F0F0FCE6
:103CA0000990284606F0ECFC0078462801D0E54E45
:103CB00000E0E84E109F2137E54D502801D12E46F7
:103CC000623E0D9800900195282220460E990C9B8B
:103CD00003F0DEFCB0B20090019511980290292209
:103CE00020460B99099B06F014F938780028D54B2B
:103CF00000D0089B06970F9800680490109DE87804
:103D0000032101400329CF4C07D16868002804D063
:103D1000A868002801D0CE4C433C08931F20079090
:103D200038200090C94E019606213422099274234E
:103D3000049F384603F0ACFC284619AD294604F030
:103D400015FAA0B20090019611980290072137222F
:103D50000B9238462B4606F0DCF846200C9000907B
:103D6000B948019006461E21502205922224384669
:103D7000234602F0A5F80E9D009501962A263846A6
:103D800021460C9A334602F09BF839240094AE4841
:103D90000190384631462A46099E334602F090F893
:103DA0000B980090A848019040253846314622469D
:103DB0002B4602F085F80094A34801904C26384623
:103DC000099529460B9A334602F07AF80E9800902E
:103DD0009D48019056253846314622462B4602F032
:103DE0006FF80C9C0094984801905E26384629464E
:103DF0000E9A334602F064F80598009092480190BC
:103E0000622338463146224602F05AF8069908786D
:103E1000002803D14878002800D106E11098C46C2E
:103E20008D4D2046294605F09BFF002808D18B4E7A
:103E30002046314605F0B2FF0028254600D0354621
:103E40008749284605F0B0FC054603F087F9854E02
:103E5000314605F0A9FC8521C90504F070FE06F085
:103E600079FB0446284602F0ABFF314605F09CFC86
:103E700001467D4804F05EFE06F06CFB089EB5B27C
:103E800000900195402150223846234602F018F850
:103E90000523009301953E214E22384603F0F8FB9E
:103EA0000F9D0798C0020B901CA9109804F038FBD6
:103EB0000020119B1CA9095C002924D01CA9091809
:103EC000497800291ED01CA909188978C01C00292E
:103ED000F0D1401E17E0C046E0FF0000420800009D
:103EE000A510000008B60000718C000087B6000025
:103EF00080B60000B8B60000D6B60000D1B600000B
:103F0000692A0000401C5949484380304008022279
:103F1000B1B200914D49019102930C92039201B20A
:103F200058221CAB384601F0A7F82F680D98009076
:103F3000474E01963E2170223D2338460E9108934C
:103F400003F0A6FB3446433CA0B2009001961198C2
:103F500002904126712212AB3846314605F0D9FF56
:103F60002F68109D287E06F03BFC0790287E0028D5
:103F700000D00A940D980090354C01947C2238466C
:103F80000E99089B03F084FB0A9880B2009001947C
:103F9000119802907D2238463146079B05F0B9FF03
:103FA0000F9800680E90687E06F084FC07466D7ED0
:103FB000022D0B9901D1623C214614208EB2009053
:103FC000019600248C2280230E98214603F060FB8A
:103FD000002F099911D0385D00280AD0381941788E
:103FE000002905D08078E41C0028F4D1641E00E08C
:103FF000641C1E486043803041080196119E029661
:104000000C980390022D01D1002000E01848109C6C
:10401000009009B28F220E983B4601F02DF860699E
:104020000F9988604E711FB0F0BD4E220092054876
:1040300001903A214623384601F042FF0F9D089E29
:104040002FE7C046E0FF0000692A0000A51000002D
:104050004208000000F8FFFF000070C2000070423C
:1040600035FA8E3C0000B0410000A042F4FF010090
:10407000FFFF0000F0B583B00024002800D19AE2D1
:10408000002900D197E24A68002A00D193E28A68A9
:10409000002A00D18FE2CA68002A00D18BE20A69A7
:1040A000002A00D187E24A69002A00D183E2012474
:1040B0000022026042608260C260026142618261ED
:1040C0001746024668C968C268C968C2FC4981616E
:1040D00006C808380546084621469047AA68286859
:1040E00021469047EA682868214690476A6928680F
:1040F00005219047EA6828683E46394690476A6934
:10410000286814219047EA682868214690476A6920
:10411000286896210191904702AF3C7005CD00962A
:104120003146083D9047AA682868314690472B6978
:10413000286839462246984705CD2146083D9047D4
:104140006A6928680199904702AE1120307005CD48
:10415000009F3946083D9047AA682868394690472D
:104160002B69286831462246984705CD2146083DEF
:1041700090476A6928687821904702AEB120307074
:1041800005CD3946083D9047AA68286839469047CA
:104190002B692868314622469847AA682868214634
:1041A00090472B692868C74903220192984705CD9B
:1041B0002146083D904702AEB220307005CD394609
:1041C000083D9047AA682868394690472B692868B7
:1041D000314622469847AA682868214690472B69AD
:1041E0002868F649019A984705CD2146083D904731
:1041F00002AEB320307005CD3946083D9047AA681D
:104200002868394690472B692868314622469847E6
:10421000AA682868214690472B692868E849062241
:10422000984705CD2146083D904702AEB420307036
:1042300005CD3946083D9047AA6828683946904719
:104240002B692868314622469847AA682868214683
:1042500090472B692868DB492246984705CD2146BF
:10426000083D904702AEC020307005CD3946083D6C
:104270009047AA682868394690472B6928683146D4
:1042800022469847AA682868214690472B692868E3
:10429000CD49019A984705CD2146083D904702AE89
:1042A000C120307005CD3946083D9047AA6828687E
:1042B000394690472B692868314622469847AA68B4
:1042C0002868214690472B692868C04922469847AC
:1042D00005CD2146083D904702AEC220307005CD85
:1042E0003946083D9047AA682868394690472B69A7
:1042F0002868314622469847AA6828682146904790
:104300002B692868B24902220192984705CD2146BF
:10431000083D904702AEC320307005CD3946083DB8
:104320009047AA682868394690472B692868314623
:1043300022469847AA682868214690472B69286832
:10434000A449019A984705CD2146083D904702AE01
:10435000C420307005CD3946083D9047AA682868CA
:10436000394690472B692868314622469847AA6803
:104370002868214690472B6928689749019A9847F1
:1043800005CD2146083D904702AEC520307005CDD1
:104390003946083D9047AA682868394690472B69F6
:1043A0002868314622469847AA68286821469047DF
:1043B0002B69286889492246984705CD2146083D42
:1043C000904702AE2020307005CD3946083D904719
:1043D000AA682868394690472B69286831462246E2
:1043E000984705CD2146083D904702AE3A203070EF
:1043F00005CD3946083D9047AA6828683946904758
:104400002B692868314622469847AA6828682146C1
:1044100090472B69286872492246984705CD214666
:10442000083D904702AE3620307005CD3946083D34
:104430009047AA682868394690472B692868314612
:1044400022469847AA682868214690472B69286821
:1044500064492246984705CD2146083D904702AE63
:104460002A20307005CD3946083D9047AA68286853
:10447000394690472B692868314622469847AA68F2
:104480002868214690472B692868574904220192E1
:10449000984705CD2146083D904702AE2B2030704D
:1044A00005CD3946083D9047AA68286839469047A7
:1044B0002B692868314622469847AA6804E0C0461E
:1044C0008000A00091B400002868214690472B6925
:1044D00028684649019A984705CD2146083D9047EE
:1044E00002AEE020307005CD3946083D9047AA68FD
:1044F0002868394690472B692868314622469847F4
:10450000AA682868214690472B69286838491022F4
:104510000192984705CD2146083D904702AEE12023
:10452000307005CD3946083D9047AA68286839465D
:1045300090472B692868314622469847AA68286820
:10454000214690472B6928682A49019A984705CD4A
:104550002146083D904702AE1320307005CD394604
:10456000083D9047AA682868394690472B69286813
:1045700031462246984705CD2146083D90476A6955
:1045800028680A21904702AE2920307005CD3946AF
:10459000083D9047AA682868394690472B692868E3
:1045A00031462246984705CD2146083D90476A6925
:1045B000286864219047204603B0F0BD91B4000004
:1045C0009CB6000000B70000E7B6000002B700008C
:1045D000F8B60000FAB60000FCB6000001B7000013
:1045E00003B7000087B20000DBB60000DFB60000B2
:1045F000F8B50000E8B50000F0B59BB00491039059
:10460000002B00D171E11E4622980290219807905C
:104610002098002101251C062B405918630E07D055
:104620002B405918A30E03D02B405918E30EF1D19B
:10463000C9B20023032902D218461BB0F0BD0028DE
:10464000089609920B9500D13DE1076840680C90EF
:10465000199018970023194605933D460691002AA4
:1046600013931C46D04911910A9700D19CE037461C
:1046700000240498179003981690CB4801462346CF
:104680001190204613944BE004460E98314605F0F5
:104690009DF907460D98314605F098F905463846CC
:1046A000214605F081F826460446394605F07CF897
:1046B000159904F044FA15902046294605F074F83F
:1046C000109904F03CFA07462846314605F06CF88C
:1046D0000646294605F068F8119904F030FA119061
:1046E00020460F9D294605F05FF8129904F027FA3D
:1046F00004463046294605F057F8139904F01FFA8E
:1047000015993B461390089F099A0A9D1498401CDE
:10471000169E08361696179E361D1796824243D06F
:10472000064638461496F040C007EFD01591109316
:104730001294169C2168284604F0FCF9054661682D
:104740000C9804F0F7F90D90014605F02DF8064697
:1047500028460E95294605F027F8314604F0EFF972
:1047600004F088FD0746FD4E314605F0F9FA0028B1
:1047700000D13E4617980168304604F0DBF9074641
:104780000B98C0070F9787433846079C214605F0D2
:10479000F1FA05462046394605F018F9002D00D1FA
:1047A00072E77F20C40570E712940B98C00717903A
:1047B00018460E4619461C4604F0F6FF07461596A5
:1047C0003046119E314604F0EFFF394604F0B2F94D
:1047D000169017990F468843E14905F0C1FA002861
:1047E00000D09CE17C401398214604F0DDFF054693
:1047F0003046129904F0D8FF294604F0A0F9784019
:10480000169F394605F0E2F806461398159904F00C
:10481000CBFF05462046129904F0C6FF294604F056
:104820008EF917994840394605F0D0F805460146FB
:1048300004F0BAFF044630461796314604F0B4FF40
:10484000214604F07CF904F015FD0746C54C2146CD
:1048500005F0A4FA06462046394605F0B7F80446A6
:104860007F20C005002E00D10446169017982146DF
:1048700004F09AFF17902846214604F095FF05465C
:10488000002EB84C00D13C460A98179904F057F90D
:1048900007460C98294604F052F90C9020461699C8
:1048A00005F05EFA0028089E22D10699481C0429CA
:1048B0000146099A0B9D059B00D2CEE60C981990F3
:1048C000189705231AE0002A184652D0D100022773
:1048D0000020049D1446BA1E3346D340DA074AD15D
:1048E0007F1C08302D1D8142F5D100201BB0F0BD8A
:1048F0000C98199018970698431C0B9DFF20C00533
:104900000740874200D10AE10C9901408142099A8F
:1049100005982ED02C460025029F3D603D61FD602C
:104920003C70199818997960B86018A8009003989D
:1049300004991793334604F089FD179BF8603146BC
:10494000080621404D19410E07D021404D19810E16
:1049500003D021404D19C10EF2D1029A157456743C
:104960000020C043099988403043C0439074D374F9
:1049700020461BB0F0BD791EC9B20022A14213929D
:104980001192109213460592129200D396E0039969
:1049900008180A9002460C32291D00200346109088
:1049A00011901290139080E00AD7233C101F0068EA
:1049B0000D900A9E346821460F93169204F0BAF8BF
:1049C000014604F0BCF81590169800680E907168C6
:1049D0000C9104F0AFF8014604F0B1F81490286887
:1049E000014604F0E1FE064617980068014604F00F
:1049F000DBFE0146304604F09DF80646204621467F
:104A000004F0D2FE01463046089E04F093F80446B6
:104A10000D98014604F0C8FE214604F090F80446C3
:104A20000C98014604F0C0FE0146204604F082F8CE
:104A300004460E98014604F0B7FE214604F07FF8C4
:104A40000E90159C2046214604F0AEFE129904F00B
:104A500076F812902046149C214604F0A5FE139986
:104A600004F06DF813902046214604F09DFE119944
:104A700004F065F8119015980E9C214604F094FE00
:104A8000109904F05CF8109014982146099C04F0E9
:104A90008BFE0F9904F053F81799169A0346F8B253
:104AA0007F1C091D0832A04208D01791781E31469C
:104AB000C140C80700D079E71799F0E70F930120AC
:104AC000C407139E3046314604F06EFE0546129828
:104AD000119F394604F068FE294604F02BF8179020
:104AE000A0431D4905F03CF9002818D17440FF206F
:104AF000C5050F98214604F057FE04461396109EF4
:104B00003046394604F050FE214604F018F8179953
:104B100004F05CFF074628401695A84202D105988C
:104B20001BB0F0BD1398314604F03EFE04461298C7
:104B30000F9904F039FE214603F0FCFF179904F0A9
:104B400045FF0C90169908408842089E099A0598DE
:104B500000D07FE50DE7C046BD3786356F12833A3A
:104B600077CC2B320000FA43F0B59FB00F93164676
:104B70000D460246701FC1B20020FD2900D277E227
:104B8000002A00D174E2002D00D171E2259909912B
:104B9000002900D16CE20E92249F002138460C4679
:104BA00005F0E8F8002823D1FF22D1053846084057
:104BB000884220460E9C00D15AE20B920A910D9534
:104BC00000200C90C043B040C543D54904973846F7
:104BD00005F0EFFB022E0ED10F980090099801907E
:104BE000EBB2022220460D9904F07AF81FB0F0BD16
:104BF00020461FB0F0BD07461AA80F9900910197F3
:104C00000290EBB220460D9D29463246FFF7F4FC98
:104C1000002800D12BE2042E0C9800D1A9E0032E2D
:104C200000D025E22E461B9D1C9F2168284603F0DC
:104C300081FF014604F0B8FD2146044649680C97FF
:104C4000384603F077FF014604F0AEFD01462046EA
:104C500003F075FF04F00EFB316803F06BFF0446B0
:104C6000B0480440002120460B9105F097F8002839
:104C700000D104460E9FB968284603F05BFF014649
:104C800004F092FD0646F9680C9803F053FF0146C4
:104C900004F08AFD0146304603F051FF04F0EAFAC1
:104CA0000D99496803F046FF0646F2480640304633
:104CB000214605F073F8411E02468A4107920028FA
:104CC00000D126460E9F3969284603F033FF01467E
:104CD00004F06AFD044679690C9803F02BFF014645
:104CE00004F062FD0146204603F029FF04F0C2FAF9
:104CF0000D9DA96803F01EFF0446DE4804402046CF
:104D0000314605F04BF8414241410891002800D05E
:104D1000264601200C903046049905F03FF8002803
:104D2000099F00D166E110A80F9E00960190032212
:104D300006230E9C2046294603F0D2FF002800D10E
:104D4000CBE0002E00D193E01198316803F0F2FE21
:104D5000014604F029FD04461298716803F0EAFE4A
:104D6000014604F021FD0146204603F0E8FE0A90CA
:104D7000AAE0089701200C90284600250B99C90548
:104D80000791274604460B9503950F9E04E06D1C82
:104D90000837241D042D48D001200A90A8400F2177
:104DA000414010A80096089A01920290CBB20422CA
:104DB0000E980D99FFF720FC0028E8D0119839686B
:104DC00003F0B8FE014604F0EFFC0646129879683D
:104DD00003F0B0FE014604F0E7FC014630460F9EAA
:104DE00003F0ADFE04F046FA05901398069007997B
:104DF00004F0B6FF414241410B9808420C980B90D9
:104E0000C5D12168059803F095FE0A99C907884322
:104E1000039010A815A90CC80CC14CC84CC10F9E1A
:104E2000069807900C980B90B1E70398049904F04A
:104E3000B5FF411E88410B990140012911D17F2006
:104E4000C105079803F07BFE04461D98FD218905E6
:104E500004F0AAFC0146204604F082FF15A90028B0
:104E600000D11AA9099C05C905C40DC90DC4FEE0ED
:104E70001198216803F05EFE014604F095FC21467E
:104E800004461298496803F055FE014604F08CFC74
:104E90000146204603F053FE04F0ECF9296803F0C4
:104EA00049FE04460120C00784433F2001062046F6
:104EB00004F07AFC07990029214600D101460898A0
:104EC000002800D121460A9110A815A90CC80CC1D0
:104ED0001CC81CC10C980B900E9C10A80096019049
:104EE000032205232046294603F0FAFE00285CD061
:104EF000002E19D01198316803F01CFE014604F011
:104F000053FC04461298716803F014FE014604F045
:104F10004BFC0146204603F012FE04460A9930E09D
:104F200000001643FFFFFF7F1198A16803F002FE07
:104F3000014604F039FC214604461298C96803F082
:104F4000F9FD014604F030FC0146204603F0F7FD70
:104F500004F090F9696803F0EDFD06460120C007F2
:104F600086433F200106304604F01EFC04460798A5
:104F7000002800D13446089800280A9900D1344608
:104F80000F9E204604F0ECFE414241410B9808423E
:104F90000C980B9009D110A815A90CC80CC12CC8ED
:104FA0002CC10D9D0A940C980B9010A800960190AE
:104FB00003220E9C20462946134603F091FE00284A
:104FC00015D0002E18D01198316803F0B3FD0146BA
:104FD00004F0EAFB04461298716803F0ABFD014649
:104FE00004F0E2FB0146204603F0A9FD2CE00B98FB
:104FF000002837D11AA836E01198216903F09AFDEC
:10500000014604F0D1FB214604461298496903F099
:1050100091FD014604F0C8FB0146204603F08FFDD8
:1050200004F028F9A96803F085FD04460120C007B3
:1050300084433F200106204604F0B6FB014620468B
:10504000089A002A00D108460A990B9C04F088FEB1
:10505000414241410C4205D110A815A90CC80CC110
:105060001CC81CC115A806C806C70EC80EC70C98D8
:105070001FB0F0BDFFFFFF7FF0B5F7B00D911690A8
:10508000002800D170E21D46002B00D16CE27F9811
:105090001990C01EC0B240087F2800D264E21646B4
:1050A0007D9822900627199847430721414305918F
:1050B000401EC2B2AB2121925143490A03220C92F5
:1050C0005143401A401CC1B22091032900D1002055
:1050D0007E9918917C991C9101211391199AD10004
:1050E0000A91791E04910599491E03912299090A92
:1050F0001A91111A530008930C9B53430C9393007D
:1051000007930523099353430693C0B21D90CCB275
:105110000D9814900B970AE0169905C913999047BA
:105120000B9F1498C01914900E9E0F9D6D1C28782B
:105130000A2800D1E2E00D28F8D0002800D113E2BF
:1051400001467F395E22D24391420F9500D23F2023
:1051500009994843EC494018A0381E9035B23046B2
:105160001499084300B200280E9600D5CCE0189898
:10517000002800D1C8E0149801B27818169A128B52
:10518000904200DDC0E005984019169A528B90427B
:1051900000DDB9E00498149A8018039A921912B2AB
:1051A000009203B216982A4602F062FF002800D14E
:1051B000AAE01E98401C1B9000273846159704E073
:1051C0001298401C072800D18FE11399129081405A
:1051D0001F91159A05E0179A521CD0B2199988426E
:1051E000EED21792159A07E023ABFE1819543F1D13
:1051F000F570D21C062AEED01E98805C1F990840DC
:10520000229900D01C990D0A219802280DD3002064
:1052100023AEF319F55559709D70D9701D71BF1DDE
:105220005971C01CC3B2A342F2D1209803280ED0FA
:1052300023A8C319C555B81C59701D9B012B01D15A
:10524000074604E023ABFE181D543F1DF1701B9868
:10525000805C1F990840229900D01C990D0A219862
:1052600002280DD3002023ABDE19DD557170B57017
:10527000F1703571BF1D7171C01CC3B2A342F2D170
:10528000209803280ED023A8C319C555B81C5970FF
:105290001D9B012B01D1074604E023ABFE181D54D2
:1052A0003F1DF170901C0528229D1A9907D01E9968
:1052B000085C1F990840229D00D01C9D290A219856
:1052C00002280DD3002023ABDE19D9557570B170BB
:1052D000F5703171BF1D7571C01CC3B2A342F2D10C
:1052E0002098032885D023A8C319C155B81C5D7028
:1052F0001D9B012B00D077E707467AE70A983618FE
:105300000D9814906D1C12E71998301800B21B907C
:105310000898301800B217900C98301800B2159009
:105320000798301800B212900698301800B2119009
:10533000F01900B2109000210F462E460EE0199B86
:105340000093019016981F99109A02F0A1F97F1C02
:10535000199829462918062F00D1E1E614980D4620
:10536000401800B21F90052F2AD1189800282298C3
:1053700032D1052F3AD118980028229842D1052F12
:105380004AD118980028229852D1052F5AD118983E
:105390000028229862D1052F6AD1189800282298F7
:1053A00072D1052F7AD118980028229800D082E077
:1053B000052F00D08AE0189800282298BFD1C6E7B0
:1053C0001E98C15D139801401C9800D122980029B5
:1053D00002D118990029CCD0199B009301901698FE
:1053E0001F99324602F054F9052FC4D01E98C05DB3
:1053F000022101401C9800D12298002902D118995D
:105400000029BCD0199B0093019016981F991B9AF4
:1054100002F03EF9052FB4D01E98C05D0421014072
:105420001C9800D12298002902D118990029ACD0EB
:10543000199B0093019016981F99179A02F028F96A
:10544000052FA4D01E98C05D082101401C9800D1F2
:105450002298002902D1189900299CD0199B009309
:10546000019016981F99159A02F012F9052F94D001
:105470001E98C05D102101401C9800D1229800297F
:1054800002D1189900298CD0199B0093019016988D
:105490001F99129A02F0FCF8052F84D01E98C05D67
:1054A000202101401C9800D12298002903D118998D
:1054B000002900D17CE7199B0093019016981F9951
:1054C000119A02F0E5F8052F00D174E71E98C05D2F
:1054D000402101401C9800D12298002900D02EE7DD
:1054E0001899002900D132E729E7169D05CD002142
:1054F000083D9047AA68286813999047002F00D16B
:105500000AE623AE0DE0C046ACB00000F6191698CE
:1055100003690068314617469847F619EF1B00D11A
:10552000FAE5802F3D4600D3802516980369006870
:1055300031462A469847812F00D2EDE528467D1B4B
:10554000802D2F4600D380273618169803690068EF
:1055500031463A469847812D00D2DDE5ED1B802D7E
:105560002A46D3D38022D1E777B0F0BDF0B5E3B0BF
:1055700008920A910C90002800D1A5E118467F38C6
:105580005E21C943884200D23F236A980E90699CED
:1055900068980D9005205843CC494018A0380990D0
:1055A00008980A9908430B9400D5CCE00E9800287F
:1055B00000D1C8E00A98401D0C99098B884200DB95
:1055C000C1E00899891D0C9A528B914200DBBAE028
:1055D00009B2009103B20C980A99089A02F048FDAA
:1055E000002800D1AFE0200A0E90099801780A91B6
:1055F0004178089181780791C1780691057900205A
:1056000007460BE00A0A2023F2542122B15422213A
:105610000E9A7254243723217454C01C01268640EC
:1056200031460A9A1140224600D00D9A130A0FAC57
:10563000E119E3554A703246089B1A400B9C2246FA
:1056400000D00D9A130A8B70CA703246079B1A401D
:10565000224600D00D9A130A0B714A713246069BFE
:105660001A40224600D00D9A130A8B71CA712E403F
:10567000224600D00D9A130A0B724A720E9A8A7251
:10568000CC72482F00D10DE1022181400A460A9BCD
:105690001A40224600D00D9A130A0FACE619337354
:1056A00072730A46089B1A400B9C224600D00D9A42
:1056B000130AB373F2730A46079B1A40224600D0BE
:1056C0000D9A130A337472740A46069B1A402246D6
:1056D00000D00D9A130AB374F2742940214600D009
:1056E0000D990A0A327571750E99B175F475042118
:1056F00081400A460A9B1A40224600D00D9A130A9E
:10570000337672760A46089B1A40224600D00D9ADC
:10571000130AB376F2760A46079B1A40224600D057
:105720000D9A130A337772770A46069B1A4022466F
:1057300000D00D9A130AB377F2772940214600D1A1
:1057400060E70D995EE70899481C00B20790881C35
:1057500000B20690C81C00B20590081D00B204906B
:10576000481D00B20390881D00B2029000260AE096
:10577000009701900C982946029A3B4601F088FF59
:10578000761C052E7DD00998845D0A98301805B2E4
:1057900001272046384002D10E9900290BD000285D
:1057A0000D9800D10B98009701900C982946089A03
:1057B0003B4601F06DFF0220204002D10E990029E6
:1057C0000BD000280D9800D10B98009701900C98F1
:1057D0002946079A3B4601F05BFF0420204002D196
:1057E0000E9900290BD000280D9800D10B98009736
:1057F00001900C982946069A3B4601F049FF082083
:10580000204002D10E9900290BD000280D9800D11C
:105810000B98009701900C982946059A3B4601F099
:1058200037FF1020204002D10E9900290BD000280C
:105830000D9800D10B98009701900C982946049A76
:105840003B4601F025FF2020204002D10E9900297F
:105850000BD000280D9800D10B98009701900C9860
:105860002946039A3B4601F013FF4020044002D131
:105870000E98002884D0002C0D9800D078E70B9863
:1058800076E70E9800281FD00A98401D0721009146
:105890000B99019101B201230C98089A01F0F8FECE
:1058A00063B0F0BD0C9C05CC0021083C9047A26879
:1058B0002068012529469047236920680FA95422B2
:1058C000984705CC2946904763B0F0BDACB00000C6
:1058D000F0B589B0002800D1D3E00168C94A9142EF
:1058E00000D0D1E0818801221302994200D0CEE09D
:1058F000C188E1239B00994200D0CBE0017A4B1F85
:10590000DBB20526FD2B00D2C7E0477A0023002F2B
:105910000DD03D462C061540EB18650E07D01540FE
:10592000EB18A50E03D01540EB18E50EF2D1DAB254
:105930008A4200D0B1E002966921C9004118019164
:10594000FF21CE050146743105910024069008968A
:1059500003973946E140C9070BD0E10041180A69B5
:105960003240B24200D19EE049693140B14200D19B
:1059700099E0702161430246411830200B5C0620FB
:10598000032B0790049436D0022B1AD0012B00D0A1
:1059900032E14A6B3240B24200D12DE18D6B284694
:1059A000994904F0E7F900287AD00021284604F04C
:1059B000EBF9002874D03540B5420798069A0FD10C
:1059C0001AE14B6B3340B34200D115E18B6B33408E
:1059D000B34200D110E1C96B3140B14200D10BE1BB
:1059E000049C641C059870300590042C1046089E99
:1059F000039FAED15AE031228C5C22460D3A0A2335
:105A0000DB439A4200D2F7E00A6C3240B24200D146
:105A1000F2E00D6F0021284604F0A2F900283FD1E2
:105A20003540B542079800D1E6E0641E059F39462F
:105A300030390E683146089A1140914200D1DBE0BE
:105A40003D680021284604F08BF9002828D128461B
:105A500008990840884223D03846343801683046D7
:105A600004F088F900281BD1381F0168284604F08B
:105A700077F9002814D13F1D641E0798069AD6D1E5
:105A8000AEE7012009B0F0BD022009B0F0BD03204F
:105A900009B0F0BD042009B0F0BD304609B0F0BD3A
:105AA000079809B0F0BD029809B0F0BD03F07AF98B
:105AB00001460720002900D19EE0044601980568B0
:105AC0005249284604F056F9002800D196E00021FA
:105AD000284604F059F9002800D18FE03540B5423E
